:020000040800F2
:10000000C8CF012021690008911E0008931E000836
:10001000971E00089B1E00089F1E0008000000009D
:10002000000000000000000000000000A31E000807
:10003000A51E000800000000A71E0008A91E000859
:100040003B6900083B6900083B690008755D0008D2
:100050003B6900083B6900083B6900083B690008F0
:100060003B6900083B6900083B6900083B690008E0
:100070003B6900083B6900083B6900083B690008D0
:100080003B6900083B6900083B6900083B690008C0
:100090003B6900083B6900083B6900083B690008B0
:1000A0003B6900083B6900083B6900083B690008A0
:1000B0003B6900083B69000845AD00083B69000842
:1000C0003B6900083B6900083B6900083B69000880
:1000D0003B690008F3680008D55700082F65000841
:1000E0003B690008515D00083B6900083B69000856
:1000F0003B6900083B6900083B6900083B69000850
:100100003B6900083D4100083B6900083B69000865
:100110003B6900083B6900083B6900085959000821
:100120003B6900083B6900083B6900083B6900081F
:100130003B6900083B6900083B6900083B6900080F
:100140003B6900083B6900083B6900083B690008FF
:100150003B6900083B6900083B6900083B690008EF
:100160003B6900083B6900083B6900083B690008DF
:100170003B6900083B6900083B6900083B690008CF
:100180003B6900083B69000800F002F800F0B2F893
:100190000AA090E8000C82448344AAF10107DA45E2
:1001A00001D100F0A7F8AFF2090EBAE80F0013F082
:1001B000010F18BFFB1A43F0010318473C38010038
:1001C0005C3801000A444FF0000C10F8013B13F0BA
:1001D000070408BF10F8014B1D1108BF10F8015BA0
:1001E000641E05D010F8016B641E01F8016BF9D193
:1001F00013F0080F1EBF10F8014BAD1C0C1B09D1EA
:100200006D1E58BF01F801CBFAD505E014F8016B5B
:1002100001F8016B6D1EF9D59142D6D370470000ED
:100220000023002400250026103A28BF78C1FBD8FF
:10023000520728BF30C148BF0B6070476E2910F0CD
:10024000318070290FF04585662911F04A816529B2
:1002500011F04781672911F044816129AFF30080D3
:1002600003681B0A28BF41F0800169290FF0B6849A
:1002700064290FF0B38475290FF0B0846F2910F052
:10028000288178290FF01185E92910F0C380E4292D
:1002900010F0C080F52910F0BD80EF2910F0258105
:1002A000F8290FF010850368DB0928BF41F08001B1
:1002B000632910F03280732910F03780E32910F0A1
:1002C000D683F32910F0DB83002070471FB511F0AF
:1002D00003F910F029FC04000020002111F0E6F8D9
:1002E000401C60600020002111F0CAF8E0601FBDD2
:1002F00010B510BD10F0EBFB1146FFF7E7FF01F062
:1003000056FB10F0C7FC03B4FFF7F2FF03BC06F086
:10031000A5FA000030BF72B6704762B6704780F32E
:10032000088870472DE9FE430025012704F053FAA1
:1003300000201021FAA20B46CDE900210290802274
:10034000014604F03AFC00200C21FAA20B46CDE94C
:10035000002102908022142104F02FFC00200C21A7
:10036000F8A20B46CDE9002102908022342104F04E
:1003700024FC05F046FE9AE005F012FEF3495220F7
:1003800005F001FF0746002F77D1F1A00FF0B4FB75
:1003900000200C21F1A20B46CDE900210290802221
:1003A000262104F00AFCF04805F006FF0746EE4857
:1003B00005F07AFF8046EC4BEC4A0421602005F002
:1003C000AEFF0746EA49042005F0FCFF0746E9496D
:1003D000042005F0DBFF0746DC4842780178E6A000
:1003E0000FF08AFBE9A00FF087FB002406E0DE484F
:1003F000015DEAA00FF080FB601CC4B2052CF6DBA7
:10040000D5A00FF079FB4146E6A00FF075FB05F093
:10041000D4FD00200C21E8A20B46CDE9002102907A
:100420008022262104F0C9FB0222CF49E54806F0CC
:1004300022F90122E449E34806F066F9E248C0786F
:100440000090E148837842780178E0A00FF054FBF7
:1004500000200C21E3A20B46CDE90021029080226E
:10046000262104F0AAFB4FF47A7006F0D7F904F0C5
:10047000B2F90020BDE8FE83FFE703F06AFFC6B2D1
:10048000681C85B241F2883095FBF0F100FB1150F9
:1004900008B9012000E000200D2E01D1012100E06B
:1004A0000021084318B104F096F90120E2E763E760
:1004B0002DE9F04F91B000200D90002410A908F014
:1004C00081FE0FA9002008F017FF9DF83F609DF8FE
:1004D0003D709DF83E809DF83C909DF840A09DF8B1
:1004E00041000E909DF842B004F075F900200C21F7
:1004F000BFA20B46CDE90021029080222621622076
:1005000004F05BFB00200C21BAA20B46CDE90021D0
:1005100002908022342104F050FBA5E10D98401C8C
:1005200080B20D9003F015FF05460C2D01D101207E
:1005300000E0002040F6B8320D99914201D101212E
:1005400000E00021084320B104F045F911B0BDE8F6
:10055000F08F0D2D3AD1072C37D2DFE804F0040CD0
:10056000141C24292E00BAF1000F03DDAAF10100AA
:1005700000F0FF0A29E00E98002803DD0E98401EC7
:10058000C0B20E9021E0BBF1000F03DDABF1010022
:1005900000F0FF0B19E0B9F1000F03DDA9F1010034
:1005A00000F0FF0911E0002E01DD701EC6B20CE064
:1005B000002F01DD781EC7B207E0B8F1000F03DDA0
:1005C000A8F1010000F0FF0800BF00BF0E2D3AD1D6
:1005D000072C37D2DFE804F0040C141C24292E0069
:1005E000BAF1170F03DA0AF1010000F0FF0A29E05F
:1005F0000E983B2803DA0E98401CC0B20E9021E002
:10060000BBF13B0F03DA0BF1010000F0FF0B19E027
:10061000B9F1070F03DA09F1010000F0FF0911E059
:10062000632E01DA701CC6B20CE00C2F01DA781CC4
:10063000C7B207E0B8F11F0F03DA08F1010000F0BC
:10064000FF0800BF00BF0F2D05D1072C00DA641C86
:10065000072C00D10024102D00D106E1FA210D98BD
:1006600090FBF1F201FB120088BB072C37D2DFE8C8
:1006700004F0040B121920272F00182363A2002175
:10068000084604F0C6F92AE0182360A200212420BD
:1006900004F0BFF923E018235CA20021482004F0F5
:1006A000B8F91CE00C235AA219466E2004F0B1F9E7
:1006B00015E00C2357A21A21442004F0AAF90EE0F9
:1006C0000C2352A21A21622004F0A3F907E007E0EC
:1006D0000C234EA21A21742004F09BF900BF00BF26
:1006E0004FF4FA710D9890FBF1F201FB1200B0B9D2
:1006F00000200D90CDF800B0524648A103A80E9BF3
:100700000FF006FA182303AA0021084604F081F925
:100710000FA9002008F0F0FD3B46324686E0A0E03D
:100720003D3D3D20C2BCC8EBBFA8C6AC203D3D3D11
:1007300000000000C7EBB7C5C8EBD0C2BFA8C6AC6D
:10074000A3BA0000B7B5BBD8000000002D00002000
:100750007263353232206F6B0A000000B6C1BFA849
:10076000B3C9B9A6A3A100002F00002034000020C7
:100770003A00002072040020BFA8B5C4C0E0D0CD6C
:10078000A3BA25237820252378000000BFA8B5C48C
:10079000D0F2C1D0BAC5A3BA00000000252378204A
:1007A00000000000BFA8B5C4C8DDC1BFA3BA25645E
:1007B0004B626974730A0000D5FDD4DAC2BCC8EB81
:1007C0002E00000004000F08160000206361726410
:1007D00069643D7B25582C25582C25582C25587D9F
:1007E0000A000000C2BCC8EBB3C9B9A6A3A10000AF
:1007F0003C2D2D00BCF52020BCD320202020C7D0CC
:10080000BBBB2020C8B7B6A8000000002020000015
:10081000202020002020202000000000253032640D
:100820003A253032643A253032640000FEA103A834
:10083000CDF800800FF06CF90C2303AA1A21442094
:1008400004F0E7F8A9F10100FC4951F82020FCA1CF
:1008500003A80FF05DF90C2303AA19466E2004F0DB
:10086000D8F8012005F0DAFF58E600BF00235A4609
:1008700050460E9905F07EF94B46424639463046C1
:1008800005F08AF903F0A7FF00201021EDA20B4626
:10089000CDE90021029080223021142004F08DF94E
:1008A0004FF47A7005F0BAFF00BF4FE62DE9F04132
:1008B0008AB00026002500240027A046E4A103C931
:1008C000CDE90801E2A103C9CDE9060103F083FFE8
:1008D00000200C21E0A20B46CDE9002102908022ED
:1008E00010210A2004F069F900200C21DFA20B4638
:1008F000CDE90021029080221C210A2004F05DF93C
:1009000000200C21DEA20B46CDE9002102908022BE
:1009100028210A2004F051F900200C21DDA20B4609
:10092000CDE900210290802234210A2004F045F90B
:1009300085E0721CDCA103A80FF0EAF8002010216A
:1009400003AA0B46CDE90021029080220146052032
:1009500004F033F903F0FDFC0546002D53D04FF0B1
:100960000008012D0DDB0A2D0BDA002C09DB062C0B
:1009700007DA05F1300008A908552A2006A908550C
:10098000641C0A2D0AD1002C08DB0A2C06DA302060
:1009900008A908552A2006A90855641C0B2D04D166
:1009A0000EB9012000E0002006460C2D04D10FB93D
:1009B000012000E0002007460D2D09D1002C07DDA5
:1009C0002021601E044608AA1154202006A90855BB
:1009D0000E2D0AD104E0202008A9085506A90855C3
:1009E000201EA4F10104F6D100240F2D08D103F03C
:1009F000F2FE4FF4FA7005F011FF0AB0BDE8F08185
:100A0000102D00D11CE037B90C2306AA0021462086
:100A100003F0FFFF05E00C2308AA0021462003F0A5
:100A2000F8FF08F101001FFA80F84FF47A7098FB84
:100A3000F0F100FB118010B903F0CDFEDDE778E79F
:100A400000BF76B9022208A99A4805F014FE0222D6
:100A50009949984805F058FE974998A00FF04CF82E
:100A60000DE0022208A9974805F005FE02229649EA
:100A7000944805F049FE944994A00FF03DF803F026
:100A8000AAFE0020102193A20B46CDE9002102907E
:100A90008022302104F091F84FF47A7005F0BEFE08
:100AA00000BFAAE73EB50446204604F01DFB0546FC
:100AB00000200C210B468022CDE90051029030210C
:100AC00004F07BF84FF4967005F0A8FE0C2385A285
:100AD0003021002003F09DFF3EBD38B500240025E5
:100AE00034E003F036FCC4B244B30D2C02D14FF60F
:100AF000FF7038BD0E2C02D14FF47F40F9E7002C77
:100B000008DD0A2C06DA632D04DA05EB850004EB18
:100B1000400085B20F2C03D10A2095FBF0F085B27E
:100B20000A2C07D1632D05DA05EB85004FF6FF711E
:100B300001EA4005102C01D12846DAE70C200323F6
:100B40002A46202100904E2003F003FFC9E73EB55E
:100B500003F041FE0020102167A20B46CDE90021E1
:100B600002908022014604F028F800200C2167A2A0
:100B70000B46CDE9002102908022102104F01DF8DF
:100B800000200C2165A20B46CDE9002102908022B5
:100B9000342104F012F8322005F040FEFFF79DFFEB
:100BA00005464FF6FF70854200D1D4E0B5F57F4F82
:100BB00003D104F07CFA044604E00121284604F045
:100BC00040FA0446CCB903F006FE00200C2159A2DD
:100BD0000B46CDE9002102908022142103F0EDFFA5
:100BE00000200C2157A20B46CDE900210290802263
:100BF0003021502003F0E1FF02E02046FFF752FFD2
:100C0000524804F067FD0C200090514800884F497D
:100C10000988421A032330216E2003F09AFE4FF414
:100C2000966005F0FBFD95E03230253032642D25CD
:100C30003032642D25303264000000005C0000205A
:100C400025730000C9E8D6C3B3C9B9A6A3A10000A3
:100C500020202020202000002031202020322020B1
:100C600020332020203420200000000020352020C8
:100C700020362020203720202038202000000000AF
:100C800020392020203020206368672044697320A9
:100C90000000000044656C20436C722042636B20AE
:100CA0004F6B202000000000D0C2C3DCC2EB2564E3
:100CB0003A00000004000208080000207077643D3C
:100CC00025730000040009080F00002070776432CB
:100CD0003D257300C3DCC2EBD0DEB8C4B3C9B9A6EE
:100CE00020A3A10020202020202020202020202020
:100CF00020202020000000003D3D3D20C9BEB3FD66
:100D0000D6B8CEC6203D3D3D00000000CAE4C8EB89
:100D1000D6B8CEC64944A3BA00000000B7B5BBD8C8
:100D200020C7E5BFD520202020C8B7C8CFC9BEB393
:100D3000FD000000C9BEB3FDD6B8CEC6B3C9B9A682
:100D4000A3A10000CAA3D3E000000000000000201F
:100D50005404002000BF03F03EFD3EBD2DE9FE43DC
:100D60004FF0000803F037FD5BE103F0F2FA0746AD
:100D7000102F03D103F02FFDBDE8FE83B8F1050F5E
:100D80004DD2DFE808F0034D80B4DB00701CC6B222
:100D900000201021F9A20B46CDE90021029080220B
:100DA000014603F00AFF00200C21F9A20B46CDE911
:100DB000002102908022182103F0FFFE00200C2168
:100DC000AFF280620B46CDE90021029080223421EF
:100DD000682003F0F2FE04F042F80446E4B9012072
:100DE000EF49086004F058F804460020ED49C1F8C6
:100DF000A0026CB90C21ECA20B46CDE900210290B7
:100E00008022182103F0D9FE00264FF0010806E0E9
:100E10002046FFF747FE02E02046FFF743FEF6E0DC
:100E2000701CC6B200200C21E3A20B46CDE90021C4
:100E300002908022182103F0C0FE04F010F804464E
:100E4000ECB90120D6490860022004F025F80446D8
:100E50000020D449C1F8A0026CB90C21DAA20B46DB
:100E6000CDE9002102908022182103F0A6FE002681
:100E70004FF0020806E02046FFF714FE02E020468D
:100E8000FFF710FEC3E000200C21D2A20B46CDE9F3
:100E9000002102908022182103F08FFE04F01FF839
:100EA00004466CB900200C21D0A20B46CDE90021EC
:100EB00002908022182103F080FE4FF0030811E019
:100EC00000200C21CEA20B46CDE900210290802209
:100ED000182103F072FE2046FFF7E4FD002603F020
:100EE0007AFCB0464FF4966005F098FC8FE0002045
:100EF0000C21C8A20B46CDE90021029080221821C6
:100F000003F05BFE04F050F804466CB900200C219D
:100F1000C5A20B46CDE9002102908022182103F0E2
:100F20004CFE4FF0040804E04FF000082046FFF7A5
:100F3000B9FD4FF4966005F071FC68E000200C21CB
:100F4000BEA20B46CDE9002102908022182103F0B9
:100F500034FE00200C21BEA20B46CDE900210290F8
:100F6000802234217A2003F028FE00200C21B9A22F
:100F70000B46CDE9002102908022342103F01DFEB2
:100F800000BFFFF7AAFD0546B8480088A842F8DD73
:100F90002946022004F025F804467CBB03F01BFC24
:100FA00000201021B2A20B46CDE900210290802240
:100FB0001E2103F002FEB14804F08CFB00200C213E
:100FC000AFF280220B46CDE900210290802234212D
:100FD000422003F0F2FD0C200090A4480088A749AD
:100FE0000988421A032334215A2003F0B2FC40F24C
:100FF000DC5005F013FC03F0EEFBBDE6FFE74FF01D
:1010000000082046FFF74EFD03F0E5FB00BF00BFE0
:101010004FF4C87005F002FC0A2E02D103F0DBFB8E
:1010200000E0A2E600BF00BFA6E62DE9F04389B0CC
:1010300000250024A04600260027A14690A207CA4A
:1010400006AB07C38EA207CA03AB07C303F0C3FBFB
:10105000002010218DA20B46CDE9002102908022B4
:101060000146052003F0A9FD00200C21AFF2184233
:101070000B46CDE900210290802210210A2003F0C6
:101080009CFD00200C21AFF21C420B46CDE9002153
:10109000029080221C210A2003F08FFD00200C21E9
:1010A0007CA20B46CDE900210290802228210A2053
:1010B00003F083FD00200C21AFF228420B46CDE95E
:1010C00000210290802234210A2003F076FD10E1F5
:1010D00003F03FF90546002D4DD04FF00009012DDA
:1010E0000DDB0A2D0BDA002C09DB0A2C07DA05F1DF
:1010F000300006A908552A2003A90855641C0A2DAA
:101100000AD1002C08DB0A2C06DA302006A9085583
:101110002A2003A90855641C0C2D06D1B8F1000F34
:1011200001D1012000E0002080460D2D09D1002CC6
:1011300007DD2021601E044606AA1154202003A9C1
:1011400008550E2D0AD104E0202006A9085503A950
:101150000855201EA4F10104F6D100240F2D0BD157
:1011600003F039FB4FF4FA7005F058FB4FF0FF30F5
:1011700009B0BDE8F0839AE096E000003D3D3D20D7
:10118000C2BCC8EBD6B8CEC6203D3D3D0000000035
:10119000C7EBB0B4D6B8CEC6A3A120200000000093
:1011A000A082424200804242D6B8CEC6D5FDB3A34B
:1011B000A3A1202020200000C7EBD4D9B0B4D2BB1B
:1011C000B4CED6B8CEC60000D6B8CEC6D5FDB3A331
:1011D000A3A10000B6D4B1C8C1BDB4CED6B8CEC6A6
:1011E000202020202020202000000000C1BDB4CEFF
:1011F000D6B8CEC6D2BBD1F9202020202020200096
:10120000B6D4B1C8CAA7B0DC20C7EBD6D8C2BC20C0
:1012100020202000C9FAB3C9D6B8CEC6C4A3B0E511
:101220002E2E2E2020200000C9FAB3C9D6B8CEC673
:10123000C4A3B0E5B3C9B9A621000000C7EBCAE456
:10124000C8EBB4A2B4E649443A2020202020200074
:1012500020000000C9BEB3FD20C7E5BFD520202077
:101260002020202020C8B7C8CF0000005404002050
:10127000C2BCD6B8CEC6B3C9B9A6210000000020B2
:10128000202020202020202020200000C3DCC2EBD2
:10129000A3BA000020392020203020202020202048
:1012A0004469732000000000102D00D122E0B8F145
:1012B000000F06D10C2303AA0021352003F0A9FB5F
:1012C00005E00C2306AA0021352003F0A2FB09F15A
:1012D00001001FFA80F94FF47A7099FBF0F100FBDE
:1012E000119030B903F077FA4FF0FF3009B0BDE844
:1012F000F083EDE600BF00240DE006A8005DFA498A
:10130000895D884202D1701C86B200E00026062E5C
:1013100000D102E0641C0A2CEFDB00BF00240DE0CA
:1013200006A8005DF149C95D884202D1781C87B2E8
:1013300000E00027062F00D102E0641C0A2CEFDB3E
:1013400000BF062E01D1012000E00020062F01D1B0
:10135000012100E00021084358B3E5A00EF0CCFBCA
:1013600003F039FA00201821E7A20B46CDE900214D
:10137000029080220A21142003F01FFC04F04AFB93
:1013800000201821E3A20B46CDE900210290802223
:101390000A21142003F011FC01223021382003F02F
:1013A0006EFC40F2DC5005F039FA03F014FA00202C
:1013B0009CE703F010FA00201021D9A20B46CDE9DA
:1013C00000210290802230212D2003F0F6FB40F214
:1013D000DC5005F023FA03F0FEF94FF0FF3085E70B
:1013E0007FB503F03CFD044603F0F5F90020102121
:1013F000CEA20B46CDE9002102908022014603F0E7
:10140000DCFB002C7FD10120CC49086003F044FDB7
:101410000446002C6BD1C9490860C948028803AB57
:101420000021012004F00EF90446002C51D103F0F4
:10143000D2F900201821B4A20B46CDE90021029078
:1014400080220A21142003F0B8FB04F0E3FA002004
:101450001821BCA20B46CDE90021029080220A216E
:10146000142003F0AAFB01221221702003F007FCD4
:101470004FF4FA61002009F0EEF80546BDF80C00C3
:1014800010B9B3A00EF038FBBDF80C00012802D152
:10149000B5A00EF031FBBDF80C00022802D1B8A0B7
:1014A0000EF02AFB00200C210B468022CDE90051D2
:1014B0000290342103F081FB2946002009F0BBF89B
:1014C0004FF4E16005F0AAF903F085F9002004B0BB
:1014D00070BD2046FFF7E6FA4FF47A7005F09EF9EA
:1014E00003F079F94FF0FF30F1E70CE0FFE7204619
:1014F000FFF7D8FA0020914908604FF4FA6005F030
:101500008DF903F068F94FF0FF30E0E72DE9FE4375
:10151000012704F045FDA049522004F034FE07469F
:10152000002F71D1AFF6D8500EF0E6FA9B4804F0C8
:1015300043FE0746994804F0B7FE8046974B984A09
:101540000421602004F0EBFE07469649042004F0D5
:1015500039FF07469449042004F018FF07468E48D7
:1015600042780178AFF6F0500EF0C6FAAFF6E450CC
:101570000EF0C2FA002600240FE08848015DAFF6A5
:10158000E4500EF0B9FA8548005D8849095D88424B
:1015900001D1701CC6B2601CC4B2052CEDDB042E58
:1015A00024D183A00EF0A8FA87A00EF0A5FA03F0CC
:1015B00012F90020182154A20B46CDE90021029017
:1015C00080220A21142003F0F8FA04F023FA002004
:1015D00018215CA20B46CDE90021029080220A214D
:1015E000142003F0EAFA0020BDE8FE83AFF698600D
:1015F0000EF082FA4146AFF654600EF07DFA78A004
:101600000EF07AFA002414E015E000250AE004EB5D
:10161000C4002844644A115CAFF680600EF06CFA96
:10162000681CC5B2092DF2DB6FA00EF065FA601CD4
:10163000C4B2022CE9DB04F0C0FC0120D4E700B501
:101640008DB00CA9002007F0BDFD9DF83200009080
:101650009DF831309DF83020AFF6406101A80EF0C2
:1016600057FA182301AA0021084603F0D2F90BA962
:10167000002007F041FE9DF82E0000909DF82D30CF
:101680009DF82F00421CAFF6602101A80EF040FA31
:101690000C2301AA1A21442003F0BBF99DF82C0069
:1016A000401E524951F82020AFF66C2101A80EF0DF
:1016B0002FFA0C2301AA19466E2003F0AAF90DB0E7
:1016C00000BDFEB540F6B83005F0A8F803F083F889
:1016D000D7E003F080F8062345A20021084603F076
:1016E00098F903F039F8A1E0080000200F0000206D
:1016F00041542B4E4D47533D332C30303030303336
:101700000D0A0D0A00000000BDE2CBF8D6D02E2E47
:101710002E000000D2D1BDE2CBF8A3A12000000032
:10172000C3DCC2EBB4EDCEF3A3A10000D5FDD4DA47
:10173000BCECB2E2D6B8CEC600000000A0824242A5
:1017400054040020D2D1BDE2CBF8A3A100000000D8
:1017500041542B4E4D47533D332C303130303030D7
:101760000D0A0D0A0000000041542B4E4D47533D19
:10177000332C3030303130300D0A0D0A00000000BB
:1017800041542B4E4D47533D332C303030303031A7
:101790000D0A0D0A000000002D0000202F0000207F
:1017A000340000203A0000207204002016000020BF
:1017B0007266696420C6A5C5E4B3C9B9A6A3ACBD69
:1017C000E2CBF80A0000000041542B4E4D47533D38
:1017D000332C3030303030320D0A0D0A000000005A
:1017E000BFA8CAFDBEDDA3BA0A0000005C0000204D
:1017F0004578706C6F7265722053544D33324634A5
:10180000000000000623FEA20C21002003F001F9D5
:10181000C82005F003F80623FDA20C21002003F0E8
:10182000F8F8C82004F0FAFF02F096FF01F05AFC25
:101830000028E7D10623FAA2182103F0EAF80623CC
:10184000FAA22421002003F0E4F8FDA310226E2167
:1018500014200DF091FF064611E00623F9A2302175
:10186000002003F0D6F8C82004F0D8FF0623FAA21F
:101870003021002003F0CDF8C82004F0CFFF002E67
:10188000EBD10EF0DEF800287FF423AF02F0A3FFC7
:1018900000200C21F5A20B46CDE900210290802208
:1018A000014603F08AF900200C21F5A20B46CDE990
:1018B00000210290802203F080F91DE04FF4C870EF
:1018C00004F0ACFF00200C21F2A20B46CDE9002170
:1018D00002908022182103F070F94FF4487004F050
:1018E0009DFF00200C21E6A20B46CDE900210290CD
:1018F0008022182103F061F9EB4803F022FF002851
:10190000DCD10C21E9A20B46CDE900210290802216
:10191000182103F052F91E21002008F09CFE044615
:10192000E1484FF46142E6A1036820460EF0F0F86A
:1019300000200C210B468022CDE900410290242199
:1019400003F03BF9E34803F0C5FE054615B1284610
:10195000FFF7A8F8E04803F07CFC0546CDB9322239
:101960000021204608F0ABFDDB4883780088D94988
:101970000988421AD9A120460EF0CAF800200C218D
:101980000B468022CDE900410290302103F015F989
:1019900002E02846FFF786F82146002008F04BFEBB
:1019A0004FF47A7004F03AFF02F015FFFEBD0EB559
:1019B000002600244FF4A06004F0D2FF04F0FEF8EB
:1019C0000021042004F08EF9A82004F0C5FE4FF495
:1019D000165004F050FF4FF4165004F055FD4FF42C
:1019E000614003F027FF03F09FF900F067FB02F06E
:1019F00085FC03F03DF800F02DFC03F0EDFF002026
:101A000008F067FD022008F064FD0DF043F9B849C5
:101A1000012208688AA10BF0D2FAB5490122486870
:101A2000B4A10BF0CCFAFFF74CFE0222B249B34846
:101A300004F06AFE0222B249B24804F065FE0122B7
:101A4000B149B24804F060FEF1E100BF002230214C
:101A5000382003F014F9A0E07F1C4FF4FA6097FBE4
:101A6000F0F100FB117008B9FFF7E9FD41F2883091
:101A700097FBF0F100FB1170002867D1002704F0FC
:101A8000C0FAFFF743FDA24908600846006800B9A4
:101A900084E000223021382003F0F1F8964804F069
:101AA0008BFD9B49086008460068F0B902F093FE80
:101AB00000201821AFF2B0320B46CDE90021029090
:101AC00080220A21142003F078F803F0A3FF0020FD
:101AD0001821AFF290320B46CDE90021029080220E
:101AE0000A21142003F069F858E000223021382040
:101AF00003F0C5F8824804F05FFD85490860084698
:101B00000068F0B902F067FE00201821AFF2084229
:101B10000B46CDE90021029080220A21142003F017
:101B20004CF803F077FF00201821AFF2E8320B46A3
:101B3000CDE90021029080220A21142003F03DF813
:101B40002CE000223021382003F099F87148006819
:101B500088B10CE0FFF744FC6D4908600846006856
:101B600000B91BE000223021382003F088F86948D2
:101B700000680028EED102F0ECFB0546681C60B15D
:101B8000FFF753FA624908600846006800B905E0AB
:101B900000223021382003F072F85DE702F01BFECE
:101BA000032C0DDA002010215BA2CDE90021029068
:101BB000210110238022052002F0FFFF002610E003
:101BC0000020102154A2CDE900210290E01E4FF622
:101BD000FF7202EA001110238022052002F0EDFFBF
:101BE0000326002110224D4850F826001346CDE967
:101BF000012100908022192002F0DFFF00218FE0F8
:101C000053442043617264204661696C656421001D
:101C100020202020202020202020202020202000E4
:101C200053442043617264204F4B0000466F6E7432
:101C3000205570646174696E672E2E2E00000000BE
:101C4000303A0000466F6E742055706461746520F0
:101C50004661696C6564210020202020202020201E
:101C600020202020202020202020200066696E6770
:101C700065727072696E742073797374656D21007A
:101C8000636F6E6E65637420746F206173363038D5
:101C900000000000636F6E6E656374206661696C9E
:101CA0006564212000000000BC000020636F6E6EA0
:101CB00065637420737563636565642100000000CB
:101CC000626175643A25642020616464723A257803
:101CD00000000000000000205404002063617061D7
:101CE000636974793A256420204C763A2025640093
:101CF00038040020313A00000800002004000208E7
:101D00000F000020040009081600002004000F083E
:101D10001C000020180240422D3E000078000020E8
:101D200010224D4B701C53F820001346CDE90121C1
:101D3000009080221021192002F03FFF0021102284
:101D4000454BB01C53F820001346CDE9012100900B
:101D500080222021192002F030FF00200C213FA218
:101D60000B46CDE9002102908022342102F025FFAC
:101D70004FF000085AE008F1010842F21070804567
:101D800001DD012000E000200F2D01D1012100E044
:101D900000210843D8B14FF0000802F01CFD0020DC
:101DA000102134A20B46CDE900210290802214219B
:101DB0001E2002F002FF00223021382002F05FFFD7
:101DC0004FF47A7004F02AFD02F005FD3EE602F0C1
:101DD000C0FA05463DB30D2D04D1002C01DD601E77
:101DE000C4B2DBE60E2D04D1052C01DA601CC4B2AE
:101DF000D4E6102D17D1052C13D2DFE804F003062A
:101E0000090C0F00FEF7AAFF0BE0FEF7A0FE08E0AA
:101E1000FEF74CFD05E0FEF74BFB02E0FEF782FA11
:101E200000BF00BFBAE6012004F0F8FCA3E70CE60F
:101E30000EB502F0D0FC00200C2111A20B46CDE91A
:101E4000002102908022014602F0B7FE4FF47A7022
:101E500004F0E4FC0EBD000078000020C9CF202073
:101E600020CFC2202020CBF8B6A82020C8B7B6A823
:101E700000000000D2D1CBF8B6A8A3A1000000005A
:101E8000D6C7C4DCC3C5CBF8CFB5CDB300000000C6
:101E9000704700BFFEE700BFFEE700BFFEE700BFE0
:101EA000FEE7704770477047704700000CB5002090
:101EB000019000907648006840F4803074490860D2
:101EC00000BF7348006800F4003000900198401C87
:101ED0000190009818B90198B0F5A04FF1D16C4865
:101EE000006800F4003010B10120009001E00020F3
:101EF00000900098012846D165484030006840F0C5
:101F000080506349403108606248006840F44040B6
:101F1000604908605E48083000685D490831086023
:101F20000846006840F4004008600846006840F435
:101F3000A05008605848091F0860081F006840F05A
:101F40008070091F086000BF5148006800F00070F1
:101F50000028F9D040F20570504908604C4808301C
:101F6000006820F003004A4908310860084600680C
:101F700040F00200086000BF45480830006800F0EB
:101F80000C000828F8D10CBD10B54548006840F495
:101F90007000434908603E48006840F001003C4939
:101FA000086000203A4908310860394800683D4916
:101FB0000840374908603C48091D0860081F006850
:101FC00020F48020091F0860002031490C3108608E
:101FD000FFF76CFF4FF0006031498039086010BD99
:101FE00070B500200022022300240221284D08356C
:101FF0002D6805F00C0020B1042806D0082834D143
:1020000007E02A4D2A4E356033E02A4D284E3560D0
:102010002FE01F4D2D1D2D68C5F380541C4D2D1D27
:102020002D6805F03F0154B1224DB5FBF1F5184E76
:10203000361D3668C6F3881605FB06F209E01B4D0F
:10204000B5FBF1F5124E361D3668C6F3881605FB52
:1020500006F20F4D2D1D2D68C5F301456D1C6B005B
:10206000B2FBF3F5124E356003E0104D104E3560B3
:1020700000BF00BF064D08352D68C5F303150E4E91
:10208000705D0B4D2D68C540094E356070BD000078
:10209000003802400070004008544007003C0240F5
:1020A00088ED00E0FFFFF6FE103000240024F4006D
:1020B0009400002000127A00980000201CB5012135
:1020C000202004F0E1FF4FF4C060009001208DF863
:1020D000040000208DF8060003208DF80500012083
:1020E0008DF807006946044804F030FD4FF4C061E4
:1020F000014804F0A7FD1CBD0014024010B50446C1
:1021000000BF0221414806F09FFB0028F9D021467C
:102110003E4806F050FB00BF01213C4806F094FB0E
:102120000028F9D0394806F043FBC0B210BD00B515
:1021300087B00121084604F0A7FF0121080304F03D
:10214000FDFF3820059002208DF8180000208DF842
:102150001A0003208DF8190001208DF81B0005A935
:102160002B4804F0F3FC05220321294804F079FDF3
:1021700005220421264804F074FD05221146244856
:1021800004F06FFD0121080305F02DF800214FF444
:10219000805005F028F80020ADF800004FF4827060
:1021A000ADF802000020ADF804000220ADF80600F2
:1021B0000120ADF808004002ADF80A003820ADF863
:1021C0000C000020ADF80E000720ADF810006946A5
:1021D0000E4806F075F901210C4806F06BFAFF2055
:1021E000FFF78CFF07B000BD10B504460748008814
:1021F0004FF6C7710840054908800846008820430B
:1022000008800121014806F055FA10BD0030014058
:102210000004024010B500240020D8490860902036
:10222000FFF76CFF0020FFF769FF0020FFF766FF54
:102230000020FFF763FFFF20FFF760FF44EA002460
:10224000FF20FFF75BFF04430120CD49C1F8B8022E
:10225000204610BD1CB50121022004F015FF01210C
:10226000402004F011FF4FF48040009001208DF8D1
:10227000040000208DF8060003208DF805000120E1
:102280008DF807006946BF4804F060FC802000908C
:102290006946BD4804F05AFC8021BB4804F0D2FCDA
:1022A0000120B6490860FFF742FF0020FFF79CFFBE
:1022B000FFF7B0FFB54908801CBD10B50024002011
:1022C000AE4908600520FFF719FFFF20FFF716FF52
:1022D00004460120AA49C1F8B802204610BD10B535
:1022E00004460020A54908600120FFF707FF2046AB
:1022F000FFF704FF0120A249C1F8B80210BD10B5D4
:1023000000209E4908600620FFF7F8FE01209C4946
:10231000C1F8B80210BD10B500209849086004202B
:10232000FFF7ECFE01209649C1F8B80210BD2DE977
:10233000F04106460C4617460020904908600320ED
:10234000FFF7DCFEC4F30740FFF7D8FEC4F3072015
:10235000FFF7D4FEE0B2FFF7D1FE002505E0FF2035
:10236000FFF7CCFE7055681C85B2BD42F7DB01203B
:1023700082490860BDE8F08110B500BFFFF79DFFFE
:1023800000F001000028F9D110BD2DE9F04106460A
:102390000C461746FFF7B3FF00207849086002207B
:1023A000FFF7ACFEC4F30740FFF7A8FEC4F3072015
:1023B000FFF7A4FEE0B2FFF7A1FE002504E0705D88
:1023C000FFF79CFE681C85B2BD42F8DB01206B491B
:1023D0000860FFF7D1FFBDE8F0812DE9F041074625
:1023E0000E461446F0B2C0F58075AC4200DC2546BE
:1023F00012E02A4631463846FFF7C7FFAC4200D10B
:102400000BE02F442E44601B84B2B4F5807F02DDC4
:102410004FF4807500E02546EBE700BFBDE8F08192
:1024200010B5044621465AA00DF066FB2403FFF7C1
:1024300066FFFFF7A1FF0020504908602020FFF74A
:102440005DFEC4F30740FFF759FEC4F30720FFF712
:1024500055FEE0B2FFF752FE01204949C1F8B8022B
:10246000FFF78AFF10BD2DE9F05F81460F46164643
:10247000DFF824B14FEA1738C7F30B0ACAF58054C6
:10248000A64200DC344644E04FEA08314FF4805263
:102490005846FFF74CFF002508E00AEB05001BF843
:1024A0000000FF2800D003E0681C85B2A542F4DBE1
:1024B00000BFA54216DA4046FFF7B2FF002507E04D
:1024C00019F8050005EB0A010BF80100681C85B23C
:1024D000A542F5DB4FEA08314FF480525846FFF72A
:1024E0007CFF04E0224639464846FFF776FFA642C5
:1024F00000D10FE008F101084FF0000AA144274481
:10250000301B86B2B6F5805F02DD4FF4805400E0E8
:102510003446B9E700BFBDE8F09F10B5FFF7EFFE06
:10252000FFF72AFF002015490860C720FFF7E6FDE6
:1025300001201349C1F8B802FFF71EFF10BD10B506
:1025400000200E490860B920FFF7D8FD01200C4992
:10255000C1F8B802032004F019F910BD10B500202D
:1025600006490860AB20FFF7C9FD01200449C1F806
:10257000B802032004F00AF910BD0000B8824042FE
:10258000008040420004024000180240A8000020E1
:1025900066653A25780D0A00840400200020FE4973
:1025A0000860091D0860091D0860091D0860FA49D6
:1025B00024310860091D0860091D0860F748F649C4
:1025C000383108600020091D08607047014600206E
:1025D000012900D011B9F24B197000E02620704794
:1025E0000146ED4A121D106820F0FF0008431060FC
:1025F000704770B5044606E0E7483430056805F0DA
:10260000450000B100E0F7E700BF042006F014FA2F
:1026100020B1042006F01BFA032070BD012006F053
:102620000BFA20B1012006F012FA0120F5E7DA4892
:1026300010300068A04201D01020EEE740F2FF50B9
:1026400006F005FAD4481430006808210840C0B2EA
:10265000E3E72DE9FC4107460D4600260024002053
:10266000009001900820CF49086010204860402069
:1026700088600020C8604FF480600861084606F05A
:1026800048F91020FFF7B5FF044614B12046BDE815
:10269000FC81C54800880004C249086037204860B2
:1026A000402088600020C8604FF4806008610846C0
:1026B00006F02FF93720FFF79CFF04460CB12046A7
:1026C000E5E74FF0FF30B949086008204860302046
:1026D00088600220C8600020086101204861084627
:1026E00006F043F90020AF490860332048604020DD
:1026F00088600020C8604FF480600861084606F0DA
:1027000008F93320FFF775FF04460CB12046BEE7F9
:102710000DE04FF4001006F08FF940B19E48803074
:1027200000684DF82600761C022E00D307E09A4878
:102730003430006840F22A6108400028E9D000BF28
:10274000082006F079F920B1082006F080F904206D
:102750009DE7022006F070F920B1022006F077F91B
:10276000022094E7202006F067F920B1202006F02F
:102770006EF906208BE74FF4007006F05DF928B182
:102780004FF4007006F063F9072080E740F2FF5035
:1027900006F05DF900980006009901F47F4140EAD7
:1027A0000120009901F47F0140EA1120009940EADC
:1027B0001160686001980006019901F47F4140EAC8
:1027C0000120019901F47F0140EA1120019940EABA
:1027D0001160286020465AE77CB505460024002099
:1027E0000090019000260DB1022600E000266A4804
:1027F0001430006800F0007008B10E207CBD6A49FA
:10280000098888B26946FFF724FF04460CB12046C8
:10281000F4E7019800F4802060B363480088000466
:102820006049086037204860402088600020C86008
:102830004FF480600861084606F06BF83720FFF718
:10284000D8FE04460CB12046D8E75648066006205C
:1028500054494860402088600020C8604FF4806080
:102860000861084606F055F80620FFF7C2FE044648
:102870002046C3E72520C1E770B5044600254C4833
:102880000078032802D12725284670BD48480078E3
:1028900038B147480078012803D04548007802281D
:1028A00019D1B4F5805F02D127252846EDE7E0B2C3
:1028B000FFF792FF054675B93748001D006820F400
:1028C000C0503549091D086008460068204308606B
:1028D0000846006808602846D7E710B50446314826
:1028E000046007202F494860402088600020C860AD
:1028F0004FF480600861084606F00BF80720FFF7E8
:1029000078FE10BDF0B5014600200022284B1B7850
:1029100081F85630244B1B88A1F85430254B1B6896
:102920001A0E93090B70C2F383034B7002F003037A
:102930008B70204B1B68C3F30742CA701D4B1B886A
:10294000C3F307220A711B4B1A784A715B681A0E8F
:102950001301CB80174B5B68C3F30742CB8843EA74
:102960001213CB8002F00F030B72124B9B88C3F340
:102970000722D3094B72C2F380138B72C2F3401348
:10298000CB72C2F300130B7300234B73084B1B78FD
:10299000C3B1074B1B780FE0002C0140FF07C000BC
:1029A000B4000020A0140020B0000020B4140020C7
:1029B000AC000020CC140020012B03D0FE4B1B7870
:1029C000032B4FD193071B0D0B61FC4B1A790B693D
:1029D00043EA82030B61F94B9B681A0E0B6943EAC9
:1029E00092130B61C2F3C2030B7502F007034B7520
:1029F000F24B9B68C3F3074253098B75C2F3820302
:102A0000CB7593075B0F0B76EC4B1B89C3F3072247
:102A10000B7E43EAD2130B760B695B1C0024C1E9E1
:102A200012340B7E9B1C012404FA03F3DC17D1E95A
:102A30001256A5FB037C06FB03C305FB0433C1E967
:102A400012730C7A0123A3400B650024D1E91265AF
:102A50000B6DA6FB037C05FB03C306FB0433C1E936
:102A600012732EE0D44B1B78022B2AD1D34B1A7948
:102A700093069B0A0B61D14B9B681A0E0B6943EAC4
:102A800002230B61CD4B9B68C3F307420B691343D1
:102A90000B61CA4B1B89C3F307220B695B1C4FF404
:102AA0000074A3FB04464FF480630025A4FB037C61
:102AB00006FB03C304FB0533C1E912734FF4007333
:102AC0000B65C2F3801301F8193F93065B0E4B7040
:102AD000BA4B1A7A4B7843EAD2134B7002F07F0359
:102AE0008B70B64BDB681A0ED309CB70C2F341135F
:102AF0000B71C2F382034B7193071B0F8B71AF4BAA
:102B0000DB68C3F307428B7943EA92138B71C2F3FC
:102B10004013CB7100230B7202F001034B72A74BE1
:102B20009B89C3F30722D3098B72C2F38013CB7244
:102B3000C2F340130B73C2F300134B73C2F3810350
:102B40008B7302F00303CB739C4B1A7B53080B74FB
:102B500001234B749A4B1B681A0ECA741939984B8F
:102B60001B68C3F307421402CC85954B1B88C3F343
:102B70000722CB8D1343CB85914B1A7814060C6337
:102B80005B681A0E0B6B43EA02440C638C4B5B6868
:102B9000C3F307420B6B43EA02240C63884B9B8808
:102BA000C3F307220B6B13430B63854B1A79342352
:102BB0005A54834B9B681A0E35235A54804B9B689A
:102BC000C3F3074214068C637D4B1B89C3F30722B2
:102BD0008B6B43EA02448C63794B1A7A8B6B43EA22
:102BE00002248C63764BDB681A0E8B6B13438B636A
:102BF000734BDB68C3F307423C235B5C43EA12146C
:102C00003C235C5413071C0DCC876D4B9B89C3F38D
:102C10000722CB8F1343CB87694B1A7B5408402381
:102C20005C54012441235C54F0BD70B500264FF480
:102C3000803505E06348046804F0450000B103E016
:102C4000281EA5F10105F5D100BF15B104F004005F
:102C500028B10326042005F0FAFE304670BD01209D
:102C600005F0EAFE18B10126012005F0F0FE40F261
:102C7000FF5005F0ECFE3046F0E72DE9F041054647
:102C80000E464FF0000805E04E48076807F0450083
:102C900000B100E0F8E700BF042005F0CDFE28B148
:102CA000042005F0D4FE0320BDE8F081012005F0EA
:102CB000C3FE20B1012005F0CAFE0120F4E741481F
:102CC00024380068A84201D01020EDE740F2FF5000
:102CD00005F0BDFE3B482038046804F4604018B994
:102CE000200C30804046DFE704F4005008B1132088
:102CF000DAE704F4804008B11020D5E704F400407E
:102D000008B10F20D0E74046CEE738B500240120B7
:102D1000009005F0F8FD10B92524204638BD26485E
:102D20000078042825D00020274908600220486048
:102D3000C02088600020C8604FF4806008610846A9
:102D400005F0E7FDFFF771FF04460CB12046E5E70B
:102D50001C48203800681A4908601A481C38006866
:102D600048601848183800688860164814380068A9
:102D7000C8601148007858B10F480078012807D082
:102D80000D480078062803D00B480078022821D18E
:102D900000200D4908600320486040208860002022
:102DA000C8604FF480600861084605F0B2FD6946CE
:102DB0000320FFF762FF09E0AC000020CC140020E4
:102DC000DC140020342C0140A014002004460CB177
:102DD0002046A3E7FE480078032816D1BDF800007E
:102DE0000004FC49086003204860402088600020FF
:102DF000C8604FF480600861084605F08AFDFFF75F
:102E000014FF04460CB1204688E7F14800780428F6
:102E10002AD0BDF80000F0490860BDF800000004A9
:102E2000EC49086009204860C02088600020C86024
:102E30004FF480600861084605F06BFDFFF7F5FE72
:102E400004460CB1204669E7E4480068E44908609C
:102E5000E248001D00684860E0480830006888606B
:102E6000DE480C300068C860002057E710B506E067
:102E7000DA482030046804F0450000B100E0F7E7CC
:102E800000BF042005F0D8FD20B1042005F0DFFDCF
:102E9000032010BD40F2FF5005F0D9FD0020F8E7F7
:102EA00070B500264FF4803506E0CC482030046829
:102EB00004F0450000B103E0281EA5F10105F4D19E
:102EC00000BF15B104F0040028B10326042005F06A
:102ED000BEFD304670BD04F0400018B10026402011
:102EE00005F0B5FD3046F5E770B500254FF48034A8
:102EF00004E0802005F0A0FD00B103E0201EA4F155
:102F00000104F6D100BF0CB9032070BD40F2FF50A0
:102F100005F09DFD2846F8E72DE9F047002700243D
:102F200000260025A046A1467620AE49087500205F
:102F3000086048608860C8600861084605F0BFFC0A
:102F4000032005F0DCFCA5481038006840F48070D0
:102F5000A2491039086000BF12E000209D490860B6
:102F600048608860C8604FF480600861084605F0DA
:102F7000D0FCFFF7B9FF044604B903E0781CC7B2E0
:102F80004A2FEADB00BF14B12046BDE8F0874FF4BA
:102F9000D570904908600820486040208860002073
:102FA000C8604FF480600861084605F0B2FCFFF786
:102FB00077FF044624B90120854908704FF0804905
:102FC0000020844908603720486040208860002045
:102FD000C8604FF480600861084605F09AFC37200D
:102FE000FFF707FB0446002C4BD134E00020794961
:102FF000086037204860402088600020C8604FF497
:1030000080600861084605F084FC3720FFF7F1FA7C
:1030100004460CB12046B8E7734849EA00006D4900
:10302000086029204860402088600020C8604FF474
:1030300080600861084605F06CFCFFF717FF044646
:103040000CB12046A1E765480668012080EAD670E9
:1030500080F001086D1CB8F1000F03D14FF6FF702E
:103060008542C3D34FF6FF70854202D31B2420460E
:103070008BE706F08040061E32D0022054490870CB
:103080002EE01CE059485349086001204860402068
:1030900088600020C8604FF480600861084605F031
:1030A00038FCFFF7E3FE04460CB120466DE74B48C1
:1030B0000668012080EAD67080F001086D1CB8F126
:1030C000000F03D14FF6FF708542DBD34FF6FF7040
:1030D000854202D31B24204657E703203C49087051
:1030E000204652E73EB5002400250121404803F068
:1030F000CBFF0121C80204F021F80121C80204F02D
:1031000072F84FF4F850019002208DF808008DF805
:10311000090000208DF80A0001208DF80B0001A99C
:10312000344803F013FD0420019001A9324803F054
:103130000DFD0C2208212F4803F093FD0C220921DC
:103140002C4803F08EFD0C220A212A4803F089FD49
:103150000C220B21274803F084FD0C221146254840
:1031600003F07FFD0C220221234803F07AFD0021A9
:103170004FF4006004F037F8FFF710FA31208DF8B3
:10318000000000208DF801008DF8020001208DF86C
:103190000300684603F0E9FBFFF7BEFE044614B9DE
:1031A000FFF7B3FD04461CB91448FFF7ABFB044618
:1031B00034B91249B1F854100804FFF78EFB0446E5
:1031C00024B94FF40060FFF757FB0446E4B117E061
:1031D000AC000020A0140020B0000020142C0140FE
:1031E000CC14002088140020000010800080FF8094
:1031F0000C00400000080240000C0240F0140020C7
:10320000FE480078032812D1FD4890F8560020B1FE
:10321000FB4890F85600012801D1022500E0002566
:103220002846FFF7DDF90020FFF7D0F904462046D5
:103230003EBD10B5002005F062FB002010BD70B54A
:1032400090B004460E46154600BFEE4805F043FD1B
:103250000028FAD1EB4805F015FC4FF00060019012
:10326000E9480290039404950020059006904FF4DD
:1032700080600790800008908000099000200A90EC
:103280004FF440300B9004200C9003200D904FF42D
:1032900000000E9080100F9001A9DA4805F094FC10
:1032A0002021D84805F0E0FC0121D64805F0C6FCF5
:1032B00010B070BD0146002002E04910421CD0B29F
:1032C0000129FAD170472DE9F84F814617469846F3
:1032D0000A9C4FF0000AD3464D464FF0FF36B9F135
:1032E000000F02D12620BDE8F88F0020C6495439CE
:1032F0000860C2480078022805D10402780A40EA32
:10330000C8574FEA68280020C04988604860401EBE
:103310000860012048610020C8600861084605F087
:1033200024FBB9486C38006800F0007008B10E202A
:10333000D9E7002C21DDB4F5006F1EDC601E2040B3
:10334000D8B92046FFF7B6FF0090B14804601020BE
:10335000AF494860402088600020C8604FF480601A
:103360000861084605F0D5FA1020FFF742F98246B9
:10337000BAF1000F03D05046B5E72620B3E7009816
:103380000001A2498860084644604FF0FF300860A1
:10339000012048610220C86000200861084605F04D
:1033A000E4FA9B48076011209949486040208860F2
:1033B0000020C8604FF480600861084605F0A9FA53
:1033C0001120FFF716F98246BAF1000F01D05046DE
:1033D00089E79048007800285AD1FCF79CFF17E055
:1033E0004FF4004005F028FB70B14FF0000B05E0F2
:1033F0008548006845F82B000BF1010BBBF1080F65
:10340000F6D32035844E03E00EB904206BE7761E18
:103410007D484C38006840F22A6108400028DFD01F
:10342000082005F009FB20B1082005F010FB04205E
:1034300059E7022005F000FB20B1022005F007FB50
:10344000022050E7202005F0F7FA20B1202005F0F7
:10345000FEFA062047E74FF4007005F0EDFA28B1B8
:103460004FF4007005F0F3FA07203CE703E06648EC
:10347000006828602D1D4FF4001005F0DDFA0028CB
:10348000F5D1FCF74AFF40F2FF5005F0E0FA39E0D1
:1034900060480078012835D10020604908706049F3
:1034A00008706049087058484438006840F22A3172
:1034B000084355494439086053485438006840F07F
:1034C0000800514954390860002221464846FFF758
:1034D000B6FE00E0761E4B485838006800F00060E9
:1034E00038B95048007820B94C48007808B9002E07
:1034F000F0D10EB90420F6E64848007810B14748EC
:1035000090F800A05046EEE62DE9FF5F174698467A
:10351000DDE90E464FF00009CA464FF0FF3542493B
:103520000098086000203849543908603348007812
:10353000022805D10402780A40EAC8574FEA6828F1
:103540000020324988604860401E086001204861C0
:103550000020C8600861084605F007FA2A486C3860
:10356000006800F0007018B10E2004B0BDE8F09FB4
:10357000002C21DDB4F5006F1EDC601E2040D8B9A0
:103580002046FFF797FE834621480460102020491B
:103590004860402088600020C8604FF48060086167
:1035A000084605F0B6F91020FFF723F88146B9F177
:1035B000000F03D04846D8E72620D6E7012E6ED963
:1035C00006FB04F0B0F1007F01D32620CDE74FEADF
:1035D0000B100E49886006FB04F048604FF0FF3086
:1035E0000860012048610220C86000200861084688
:1035F00005F0BBF906480760122017E0AC00002078
:10360000F014002058640240802C0140B4140020C3
:10361000A0140020B4000020FFFF7F00B6000020AF
:10362000B5000020B7000020B8000020F94948602C
:10363000402088600020C8604FF480600861084620
:1036400005F067F91220FEF7D4FF8146B9F1000FAB
:1036500001D0484689E7F048007800287ED1FCF781
:103660005AFE1EE04FF4004005F0E6F9A0B14FF01D
:10367000000A07E0E9480068E949096841F82A00BA
:103680000AF1010ABAF1080FF4D3E54800682030C6
:10369000E3490860E34D04E015B9042065E7AEE0B6
:1036A0006D1EDE484C38006840F22A310840002880
:1036B000D8D0082005F0C0F920B1082005F0C7F9DE
:1036C000042052E7022005F0B7F920B1022005F0EE
:1036D000BEF9022049E7202005F0AEF920B12020F4
:1036E00005F0B5F9062040E74FF4007005F0A4F9A5
:1036F00028B14FF4007005F0AAF9072035E709E07A
:10370000C6480068C64909680860C5480068001DC9
:10371000C34908604FF4001005F08EF90028EFD17E
:103720004FF4807005F088F920B3BF48007838B1B5
:10373000BD480078012803D0BB480078022819D181
:103740000020B44908600C204860402088600020B8
:10375000C8604FF480600861084600E011E005F0A1
:10376000D8F80C20FEF745FF8146B9F1000F01D0D3
:103770004846FAE6FCF7D1FD40F2FF5005F067F944
:103780003DE0A5480078012839D10020A7490870FC
:103790000120A74908700020A64908709F484438B6
:1037A000006840F22A3108439C49443908609B482C
:1037B0005438006840F0080098495439086006FB06
:1037C00004F100220098FFF73AFD00E06D1E9A48D0
:1037D000006800F0006008B9002DF7D10DB9042091
:1037E000C3E600BF9348007818B9904800780028D5
:1037F000F8D08E48007810B18C4890F80090484678
:10380000B3E61CB504460020019000908B48008868
:103810000004804908600D20486040208860002036
:10382000C8604FF480600861084605F072F87B4874
:103830004C380068009003E078484C3800680090ED
:10384000009800F045000028F6D0012005F0F4F8BB
:1038500020B1012005F0FBF801201CBD042005F07B
:10386000EBF820B1042005F0F2F80320F5E76B48EF
:10387000703800680D2801D01020EEE740F2FF50AC
:1038800005F0E5F865486C38006801900198C0F3D0
:10389000432020700020E0E72DE9FF5F86B0174647
:1038A0009846149D0026002005900490002481462F
:1038B0000390824602900195DDF818B0DDF818B04B
:1038C000BBF1000F03D126200AB0BDE8F09F002015
:1038D0005249543908605A4988604860401E08605F
:1038E000012048610020C8600861084605F03DF8E5
:1038F0004A486C38006800F0007008B10E20E3E719
:1039000049480078022805D10502780A40EAC857DC
:103910004FEA6828002D1FDDB5F5006F1CDC681E1E
:103920002840C8B92846FFF7C5FC0590394805600E
:10393000102038494860402088600020C8604FF45B
:1039400080600861084604F0E4FF1020FEF751FE95
:1039500006461EB13046B7E72620B5E7374800884F
:1039600000042C4908600D20486040208860002039
:10397000C8604FF480600861084604F0CAFF0D205B
:10398000FEF737FE06460EB130469DE723486C38F9
:10399000006803904FF0FF341CE0641E2748008845
:1039A00000041C4908600D20486040208860002009
:1039B000C8604FF480600861084604F0AAFF0D203B
:1039C000FEF717FE06460EB130467DE713486C3809
:1039D00000680390039800F4807008B9002CDCD1D3
:1039E0000CB9292070E70B48076018200949486086
:1039F000402088600020C8604FF48060086108465D
:103A000004F087FF1820FEF7F4FD0646D6B13046D5
:103A10005AE70000A0140020B4000020802C0140D0
:103A2000B8000020FFFF7F00AC000020B60000209F
:103A3000B5000020B700002000640240B000002064
:103A4000B41400200020F849087005980001F749D7
:103A50008860084645604FF0FF30086001204861EB
:103A60000020C8600861084604F07FFF4FF0FF3473
:103A7000EF48007800287CD1FCF74DFC43E04FF480
:103A8000804004F0D9FFC8B30198A0EB09002028BA
:103A900021D20198A0EB090000F0030020B90198A1
:103AA000A0EB0900800804E00198A0EB0900800861
:103AB000401C02904FF0000A09E0DE49DBF80000EC
:103AC00008600AF1010A0BF1040B09F104090298DC
:103AD0008245F2D30FE04FF0000A05E05BF82A00C0
:103AE000D44908600AF1010ABAF1080FF6D30BF1C4
:103AF000200B09F120096FF0404404E0FFE70CB906
:103B00000420E1E6641ECB484C38006840F21A619C
:103B100008400028B3D0082004F08EFF20B1082010
:103B200004F095FF0420CFE6022004F085FF20B1C9
:103B3000022004F08CFF0220C6E6102004F07CFF77
:103B400020B1102004F083FF0520BDE64FF4007083
:103B500004F072FF30B14FF4007004F078FF0720DA
:103B6000B2E606E0FCF7D9FB40F2FF5004F06FFF2D
:103B700043E0AF48007801283FD10020AE490870EB
:103B8000A9490870AD490870AA484438006840F255
:103B90001A310843A749443908604022294606984B
:103BA000FFF74DFBA3485438006840F00800A149D6
:103BB0005439086000E0641EA148006800F000600D
:103BC00008B9002CF7D11CB9FFF78CFA04207BE66A
:103BD0004FF0FF3400E0641E9848007820B9964802
:103BE000007808B9002CF6D10CB904206CE6924894
:103BF000007810B19048007866E640F2FF5004F07B
:103C000026FF04A8FFF7FDFD064603E004A8FFF722
:103C1000F8FD06463EB99DF810000728F6D09DF83D
:103C200010000628F2D030464EE62DE9FF5F84B042
:103C3000DDE912470026002003900290002580460F
:103C40008146019007FB04FBDDF810A0DDF810A011
:103C5000BAF1000F03D1262008B0BDE8F09F002084
:103C6000744954390860714988604860401E086092
:103C7000012048610020C8600861084604F075FE14
:103C80006C486C38006800F0007008B10E20E3E763
:103C90006C480078022808D10402DDE90601400AD8
:103CA00040EAC1504912CDE90601002C1FDDB4F5F0
:103CB000006F1CDC601E2040C8B92046FFF7FAFAEE
:103CC00003906148046010205F494860402088608C
:103CD0000020C8604FF480600861084604F019FEB7
:103CE0001020FEF786FC06461EB13046B4E72620BB
:103CF000B2E7012F6FD907FB04F0B0F1007F01D3C9
:103D00002620A9E74F48007838B14E4800780128AE
:103D100003D04C48007802282DD14C48008800047C
:103D20004949086037204860402088600020C8600A
:103D30004FF480600861084604F0EBFD3720FEF781
:103D400058FC06460EB1304686E73F48076017200C
:103D50003D494860402088600020C8604FF4806082
:103D60000861084604F0D5FD1720FEF742FC064620
:103D70000EB1304670E73449069808601920486053
:103D8000402088600020C8604FF4806008610846C9
:103D900004F0BFFD1920FEF72CFC06460EB130469C
:103DA0005AE7039800012149886007FB04F0486046
:103DB0004FF0FF300860012048610020C8600861B2
:103DC000084604F0D2FD1A480078002872D1451E3A
:103DD000FCF7A1FA54E0F8E04FF4804004F02CFE28
:103DE000B0B3ABEB0800202833D2ABEB080000F0F7
:103DF000030018B9ABEB0800800803E0ABEB080048
:103E00008008401C01904FF0000909E00949DAF8E8
:103E10000000086009F101090AF1040A08F1040828
:103E200001988145F2D324E0B5000020B4140020AD
:103E3000B4000020802C0140B6000020B700002014
:103E400000640240AC000020A0140020B00000205C
:103E500012E04FF0000905E05AF82900F749086020
:103E600009F10109B9F1080FF6D30AF1200A08F1A6
:103E700020086FF0404503E00DB90420ECE66D1E0C
:103E8000EE484C38006840F21A3108400028A3D0B0
:103E9000082004F0D1FD20B1082004F0D8FD042052
:103EA000DAE6022004F0C8FD28B1022004F0CFFDBC
:103EB0000220D1E640E0102004F0BEFD20B1102029
:103EC00004F0C5FD0520C7E64FF4007004F0B4FD12
:103ED00028B14FF4007004F0BAFD0720BCE64FF49F
:103EE000807004F0A9FD00B3D548007838B1D448FB
:103EF0000078012803D0D2480078022815D100208C
:103F0000D04908600C204860402088600020C860CC
:103F10004FF480600861084604F0FBFC0C20FEF7BB
:103F200068FB06460EB1304696E6FCF7F6F940F21D
:103F3000FF5004F08CFD48E0C3480078012844D1CC
:103F40000020C24908700120C14908700020C14901
:103F50000870BA484438006840F21A310843B7493B
:103F60004439086007FB04F140220498FFF767F921
:103F7000B2485438006840F00800B049543908602D
:103F80004FF0FF3500E06D1EB348006800F00060A0
:103F900008B9002DF7D11DB9FFF7A4F804205BE69E
:103FA0004FF0FF3500E06D1EAA48007820B9A74801
:103FB000007808B9002DF6D10DB904204CE6A348CD
:103FC000007810B1A148007846E640F2FF5004F0B6
:103FD0003EFD02A8FFF715FC064603E002A8FFF726
:103FE00010FC06463EB99DF808000728F6D09DF85B
:103FF00008000628F2D030462EE610B54FF4807047
:1040000004F01AFD88B392480078012814D10020EA
:104010008C4908600C204860402088600020C860FF
:104020004FF480600861084604F073FC0C20FEF732
:10403000E0FA8649087002E00020844908707F4851
:104040004838006840F480707C4948390860081D91
:1040500000684CF23A3188437849443908600120BD
:104060007C4908707948007810BDFFE7022004F011
:10407000E3FC78B1022004F0EAFC704844380068A0
:104080004CF23A3188436D494439086002206F4947
:104090000870E9E7082004F0CFFC78B1082004F0AC
:1040A000D6FC6648443800684CF23A31884363498C
:1040B00044390860042065490870D5E7202004F0E1
:1040C000BBFC78B1202004F0C2FC5C484438006896
:1040D0004CF23A31884359494439086006205B491B
:1040E0000870C1E7102004F0A7FC78B1102004F09C
:1040F000AEFC5248443800684CF23A3188434F498C
:1041000044390860052051490870ADE74FF400704C
:1041100004F092FC80B14FF4007004F098FC474822
:10412000443800684CF23A318843444944390860C5
:1041300007204649087097E7002095E710B5FFF77C
:104140005CFF10BD70B50446002514B9262528462D
:1041500070BD4248008800043A4908600D2048605C
:10416000402088600020C8604FF4806008610846E5
:1041700004F0CFFB0D20FEF73CFA05460DB12846B2
:10418000E6E72E486C38006820602846E0E708B56E
:10419000002000906846FFF7D5FF08B1FF2008BD5A
:1041A0000098C0F34320FAE72DE9FE4F83460C4602
:1041B000914600200290002625462C46700240EAD7
:1041C000D5566D020BF00300F0B14FF0000A18E075
:1041D0004FF4007000904FEA4A20471946EBE07315
:1041E0003A461F48FFF76FF802904FF400721C49DF
:1041F00058460BF0CAFE0BF5007B0AF1010000F0F7
:10420000FF0ACA45E4DB16E0B9F1010F09D14FF40A
:1042100000702A46334600905846FFF754F8029043
:1042200009E04FF400702A463346CDE900095846AC
:10423000FFF76AF902900298BDE8FE8F802C0140DA
:10424000AC000020A0140020B4000020B600002024
:10425000B5000020B700002000640240B00000203C
:10426000481500202DE9FE4F81460C46924600205D
:104270000290002625462C46700240EAD5566D0273
:1042800009F00300F0B14FF0000B18E04FF400729A
:10429000494619480BF079FE4FF4007000904FEA40
:1042A0004B20471946EBE0733A461348FFF7F4FA00
:1042B000029009F500790BF1010000F0FF0BD345E6
:1042C000E4DB16E0BAF1010F09D14FF400702A4681
:1042D000334600904846FFF7DFFA029009E04FF4BA
:1042E00000702A463346CDE9000A4846FFF79DFC98
:1042F00002900298BDE8FE8F481500201CB50121F0
:10430000202002F0C1FE0F20009001208DF8040053
:1043100000208DF8060003208DF8050000208DF8A0
:10432000070069466E4802F011FC1E216C4802F03D
:104330008BFCF020009000208DF8040003208DF805
:10434000050001208DF807006946654802F0FEFB74
:104350001CBD10B5002462481430006800F47F4191
:104360005F4802F078FC5E481030006800F0F00012
:10437000F02801D1601E10BD142002F04FFA5848F9
:104380001030006800F0F000F02802D14FF0FF304C
:10439000F1E75348143000684FF6F072104040F0D7
:1043A0000E014F4802F057FC4D481030006800F0F5
:1043B000F00070280BD0B02807D0D02803D0E02818
:1043C00007D1102405E00F2403E00E2401E00D24A2
:1043D00000BF00BF00BF42481030006800F0F0008E
:1043E000F028F8D13E48143000684FF6F0721040C3
:1043F00040F00D013A4802F02EFC394810300068B8
:1044000000F0F00070280BD0B02807D0D02803D0DF
:10441000E02807D10C2405E00B2403E00A2401E086
:10442000092400BF00BF00BF2D481030006800F015
:10443000F000F028F8D12A48143000684FF6F072E6
:10444000104040F00B01264802F005FC24481030D3
:10445000006800F0F00070280BD0B02807D0D028FA
:1044600003D0E02807D1082405E0072403E0062450
:1044700001E0052400BF00BF00BF194810300068EC
:1044800000F0F000F028F8D11548143000684FF61D
:10449000F0721040C11D124802F0DDFB10481030D0
:1044A000006800F0F00070280BD0B02807D0D028AA
:1044B00003D0E02807D1042405E0032403E002240C
:1044C00001E0012400BF00BF00BF054810300068B4
:1044D00000F0F000F028F8D1C4F111004BE7000023
:1044E000001402402DE9F05F82460F461446204634
:1044F000E21704EB5272D2102146E31704EB537318
:10450000DB10A4EBC3030BB1012300E000231A442A
:10451000624302F0FF099AF800600AF10100824646
:104520000578812E05DB402D03DBFF2D01D0FF2E0A
:104530000DD14FF0000B06E0002007F8010B0BF146
:10454000010000F0FF0BCB45F6DBBDE8F09F7F2DAF
:1045500003DAA5F14000C5B202E0A5F14100C5B201
:10456000A6F18100C6B2BE2010FB065000FB09F880
:104570000C2C04D0102C0CD0182C1ED113E0FA48AF
:10458000D0F8090000EB08014A463846FDF7CFFE97
:1045900013E0F548D0F8110000EB08014A46384610
:1045A000FDF7C5FE09E0F048D0F8190000EB08015E
:1045B0004A463846FDF7BBFE00BF00BF00BFC4E758
:1045C000F0B5144600267F2801DC3F2900DDF0BD50
:1045D0000B46CF1701EB5777FF10C7F10707FAB269
:1045E000CF1701EB5777FF10A1EBC707FDB2C5F15D
:1045F00007070123BB40DEB24CB1DC4B03EBC00329
:104600009B5C3343D94F07EBC007BB5408E0D74B43
:1046100003EBC0039B5CB343D44F07EBC007BB5411
:1046200000BFD4E72DE9F04F93B006460D46904603
:104630001C46AA462046E21704EB5272D2102146CD
:10464000E31704EB5373DB10A4EBC3030BB101239B
:1046500000E000231A44624302F0FF0B0C2C06D04A
:10466000102C04D0182C02D013B0BDE8F08F2246D5
:1046700069464046FFF736FF00272EE01DF8070089
:1046800012904FF0000922E0129800F0800028B14B
:10469000E9B2F0B20122FFF793FF06E01C9820B9BF
:1046A000E9B2F0B20022FFF78BFF12984006000E2D
:1046B0001290681C85B2A5EB0A00A04203D15546B2
:1046C000701C86B206E009F1010000F0FF09B9F1A3
:1046D000080FD9DB00BF781CC7B25F45CEDB00BF37
:1046E000C2E72DE9F0478046894615461C46089FDB
:1046F000002628460BF01EFC86B2204604EBD07143
:10470000491071438EB2BDE8F08710B5984B19601F
:104710000023984CC4F89C32002214E00023964CED
:10472000236000F080031BB10123241D236003E0FC
:104730000023914C241D236001238F4C23604306EA
:10474000180E531CDAB2082AE8DB01238B4C2360D5
:104750008B4CC4F8983210BD30B500241CE004F135
:10476000B001C8B20021FFF7D0FF00210846FFF7D3
:10477000CCFF00211020FFF7C8FF002508E07B498F
:1047800001EBC501085D0121FFF7BFFF681CC5B241
:10479000802DF4DB601CC4B2082CE0DB30BD00B51A
:1047A00000218D20FFF7B1FF00211420FFF7ADFF9E
:1047B0000021AF20FFF7A9FF00BD00B500218D202B
:1047C000FFF7A3FF00211020FFF79FFF0021AE207D
:1047D000FFF79BFF00BD30B500240CE0002506E08C
:1047E0000020624901EBC5010855681CC5B2802D47
:1047F000F6DB601CC4B2082CF0DBFFF7ADFF30BD68
:104800002DE9F04706460F4690469946DDF820A070
:1048100034460CE03D4606E0524629462046FFF766
:10482000CFFE681CC5B24D45F6DD601CC4B24445E0
:10483000F0DDFFF791FFBDE8F0872DE9F84F8046E6
:104840000F4616461C46BA462046E31704EB537340
:10485000DB1021464FEAE47C04EB5C7C4FEAEC0C75
:10486000A4EBCC0CBCF1000F02D04FF0010C01E026
:104870004FF0000C6344224604EBD27C4FEA6C0CF0
:1048800003FB0CF303F0FF0BA6F12000C6B20025DA
:104890004EE00C2C07D106EB46003A4901EB8000B4
:1048A000405D009013E0102C05D1374800EB061056
:1048B000405D00900BE0182C07D106EBC600334991
:1048C00001EB8000405D009001E0BDE8F88F4FF003
:1048D000000927E0009800F0800028B139464046E2
:1048E0000A9AFFF76DFE09E00A9808B9012000E076
:1048F0000020024639464046FFF762FE0098400617
:10490000000E0090781CC7B2A7EB0A00A04205D1A8
:10491000574608F1010000F0FF0806E009F1010028
:1049200000F0FF09B9F1080FD4DB00BF681CC5B265
:104930005D45AEDBFFF710FF00BFC6E710B50246CE
:10494000012000E050430B1EA1F10104E1B2F9D1B6
:1049500010BD2DE9FF4F81B0074691461E460E9DC2
:104960004FF0000A00244DE044C901204817002000
:104970009882414200804042980241429C824042DB
:1049800000804142E61401085A1901084A1F010833
:10499000301B401EC1B20A20FFF7D0FFB9FBF0F078
:1049A0000A21B0FBF1F201FB1208BAF1000F16D197
:1049B000701EA04213DDB8F1000F0ED10120AB46EE
:1049C00005EBDB71491001FB04710090C8B22B4666
:1049D00020220299FFF731FF12E04FF0010A012077
:1049E000AB4605EBDB71491001FB04710090C8B2C6
:1049F00008F13001CAB22B460299FFF71EFF00BF33
:104A0000601CC4B2B442C3DBFFF7A6FE05B0BDE82C
:104A1000F08FF8B506460F4615461C4621E004EB1C
:104A2000D4714910C1F18001B14202DA002638196F
:104A3000C7B2C4F14000B84204DA00200646074677
:104A4000FFF7C9FE012000902A78234639463046F8
:104A5000FFF7F3FE204604EBD07106EB6101CEB206
:104A60006D1C28787E2802DC28782028D7DAF8BD4B
:104A70001CB501215F2002F007FB8020009001207F
:104A80008DF8040000208DF8060003208DF8050045
:104A900001208DF807006946984802F057F8C020B9
:104AA00000906946964802F051F84020009069460F
:104AB000944802F04BF84FF4004000906946924849
:104AC00002F044F80120914908609149C1F8980228
:104AD000904908609049086000209049086064206F
:104AE00001F09CFE01208E49C1F8BC020021AE20DD
:104AF000FFF70BFE0021D520FFF707FE0021502015
:104B0000FFF703FE0021A820FFF7FFFD00213F2053
:104B1000FFF7FBFD0021D320FFF7F7FD002108463A
:104B2000FFF7F3FD00214020FFF7EFFD00218D206E
:104B3000FFF7EBFD00211420FFF7E7FD0021202007
:104B4000FFF7E3FD00210220FFF7DFFD0021A12098
:104B5000FFF7DBFD0021C020FFF7D7FD0021DA20A1
:104B6000FFF7D3FD00211220FFF7CFFD00218120A8
:104B7000FFF7CBFD0021EF20FFF7C7FD0021D92073
:104B8000FFF7C3FD0021F120FFF7BFFD0021DB206F
:104B9000FFF7BBFD00213020FFF7B7FD0021A42067
:104BA000FFF7B3FD0021A620FFF7AFFD0021AF20E6
:104BB000FFF7ABFDFFF70FFE1CBD2DE9FC5F0746BD
:104BC0000D4691469A46DDE90C64B846AB46002096
:104BD00001904CE0019870BB3078802802DD012004
:104BE000019044E004EBD47108EB0902A2EB6101EF
:104BF000B94202DA281985B247460BEB0A00001BBE
:104C0000A84200DA36E030780D2804D1281985B2A0
:104C10004746761C07E0012000903278E9B2F8B2EE
:104C20002346FFF70AFE761C204604EBD07107EB03
:104C300061018FB21BE0FFE70020019008EB090043
:104C4000001BB84202DA281985B247460BEB0A006E
:104C5000001BA84200DA0DE00E9823463246294692
:104C600000903846FFF7DEFCB61C381987B2307862
:104C70000028AFD100BFFFF76FFDBDE8FC9F2DE915
:104C8000F84F05460C461746A246202000902548BE
:104C900000EB471B00262AE01BF806804FF00009B6
:104CA0001FE008F0800028B1E1B2E8B20122FFF76E
:104CB00087FC04E0E1B2E8B20022FFF781FC4FEA92
:104CC00048604FEA1068601C84B2A4EB0A00102808
:104CD00003D15446681C85B206E009F1010000F0DA
:104CE000FF09B9F1080FDCDB00BF701CC6B20098E9
:104CF0008642D1DBFFF730FDBDE8F88F00040240AB
:104D000000080240000C0240001802409C02414290
:104D1000000041429C82404298824142BC02434290
:104D200000004342A62C01081CB50121084602F0F0
:104D3000ABF94020009000208DF8040002208DF88F
:104D4000070003208DF805006946F74801F0FEFED4
:104D50001CBD00BFF549098801F040010029F9D0C8
:104D6000F249091D0880704710B5EF20FFF7F1FFE9
:104D70000120FFF7EEFF10BD10B5ED490968080EE0
:104D8000FFF7E7FFEA480068C0F30740FFF7E1FFDD
:104D9000E7480088C0F30720FFF7DBFFE449087805
:104DA000FFF7D7FF10BD10B504462046FFF7D1FF2F
:104DB00010BD10B50446C4F30720FFF7CAFFE0B2E8
:104DC000FFF7C7FF10BD10B504462046FFF7C1FF2F
:104DD00010BD10B504462012FFF7BBFFE0B2FFF78D
:104DE000B8FF10BD7CB50546EF208DF8000001200E
:104DF0008DF80100CE480068000E8DF80200CC4806
:104E00000068000C8DF80300C9480088000A8DF87E
:104E10000400C74800788DF8050007208DF80600CB
:104E200000208DF80700C349088012E0012001F03E
:104E3000F5FCC048008800F4004050B10020BD4996
:104E400008806946BC480BF013F804460CB12046B4
:104E50007CBD681E80B2051EE8D100BFF8E770B5C2
:104E6000FFF782FFFFF788FF0120FFF79CFF032079
:104E7000FFF79FFF0120FFF7A6FF05263046FFF74B
:104E8000A8FF4FF4FA60FFF7ADFF05460DB16C7A4D
:104E900000E0FF24204670BD2DE9F0410546FFF7F4
:104EA00063FFFFF769FF0120FFF77DFF0420FFF795
:104EB00080FF0220FFF787FF2846FFF74AFFEF1D1C
:104EC0003846FFF786FF4FF4FA60FFF78BFF064680
:104ED0000EB1747A00E0FF242046BDE8F08170B581
:104EE000FFF742FFFFF748FF0120FFF75CFF0320B9
:104EF000FFF75FFF0320FFF766FF07263046FFF747
:104F000068FF4FF4FA60FFF76DFF05460DB16C7A4C
:104F100000E0FF24204670BD2DE9F04781460D4694
:104F200016461F46FFF720FFFFF726FF0120FFF779
:104F30003AFF0820FFF73DFF0420FFF744FF4846F3
:104F4000FFF707FF2812FFF704FFE8B2FFF701FFA2
:104F50003012FFF7FEFEF0B2FFF7FBFE09F10D0085
:104F600000EB2520E9B2084400EB2620F1B200EB6B
:104F7000010A5046FFF72DFF4FF4FA60FFF732FFAA
:104F8000044664B194F80980E07AA17A00EB01202C
:104F90003880607B217B00EB0120788001E04FF0BE
:104FA000FF084046BDE8F08770B5FFF7DDFEFFF76C
:104FB000E3FE0120FFF7F7FE0320FFF7FAFE0520CE
:104FC000FFF701FF09263046FFF703FF4FF4FA60B1
:104FD000FFF708FF05460DB16C7A00E0FF2420467C
:104FE00070BD2DE9F04106460C46FFF7BDFEFFF708
:104FF000C3FE0120FFF7D7FE0620FFF7DAFE0620EA
:10500000FFF7E1FE3046FFF7A4FE2012FFF7A1FEF6
:10501000E0B2FFF79EFE06F10D0000EB2420E1B2A6
:1050200000EB01084046FFF7D4FE4FF4FA60FFF7AB
:10503000D9FE07460FB17D7A00E0FF252846BDE87E
:10504000F0812DE9F04104460D46FFF78DFEFFF794
:1050500093FE0120FFF7A7FE0720FFF7AAFE0C2012
:10506000FFF7B1FE2012FFF774FEE0B2FFF771FE0A
:105070002812FFF76EFEE8B2FFF76BFE142000EB7C
:105080002420E1B2084400EB2520E9B200EB01083E
:105090004046FFF79EFE4FF4FA60FFF7A3FE074677
:1050A0000FB17E7A00E0FF263046BDE8F08170B592
:1050B000FFF75AFEFFF760FE0120FFF774FE0320A2
:1050C000FFF777FE0D20FFF77EFE11263046FFF733
:1050D00080FE4FF4FA60FFF785FE05460DB16C7A4D
:1050E00000E0FF24204670BD0146212977D2DFE889
:1050F00001F01113151719535557595B5D5F7676FB
:105100007676616376767665767667696B6D7076AE
:105110007672740009A064E009A062E00CA060E06F
:1051200010A05EE014A05CE00000024000440040DB
:10513000BC000020C0000020D81C00204F4B000005
:10514000CAFDBEDDB0FCBDD3CAD5B4EDCEF30000C0
:10515000B4ABB8D0C6F7C9CFC3BBD3D0CAD6D6B8C4
:1051600000000000C2BCC8EBD6B8CEC6CDBCCFF1A3
:10517000CAA7B0DC00000000D6B8CEC6CDBCCFF1C7
:10518000CCABB8C9A1A2CCABB5ADB6F8C9FAB2BB2D
:10519000B3C9CCD8D5F70000AFA022E0B6A020E07C
:1051A000BCA01EE0C9A01CE0C8A01AE0CAA018E07C
:1051B000CDA000BFD5A014E0D8A012E0DBA010E085
:1051C000E3A00EE0E6A00CE0E8A00AE0EBA008E017
:1051D00005E0EFA005E0F3A003E0F5A001E0F7A0F3
:1051E00000BF00BF70472DE9F04706460D46FFF7A8
:1051F000BBFDFFF7C1FD0120FFF7D5FD0520FFF73F
:10520000D8FD0E20FFF7DFFD3046FFF7A2FD284650
:10521000FFF79FFD701900F114084046FFF7D9FD14
:105220004FF4FA60FFF7DEFD07460FB17C7A00E02D
:10523000FF241CB9E6A00AF05FFC07E02046FFF758
:1052400053FF81464946E7A00AF056FC2046BDE8D8
:10525000F0872DE9F0410546FFF786FDFFF78CFD4D
:105260000120FFF7A0FD0320FFF7A3FD0F20FFF7AC
:10527000AAFD13273846FFF7ACFD4FF47A70FFF70D
:10528000B1FD0446BCB1667AE07BA17B00EB012056
:105290002880607CA870A07C0006E17C00EB0140C7
:1052A000217D00EB0120617D08446860E07D28726B
:1052B000607E687200E0FF26A6B92988CBA00AF0BC
:1052C0001BFCA978CFA00AF017FCD2A069680AF0ED
:1052D00013FC687A4FF4165210FB02F1D0A00AF0CA
:1052E0000BFC07E03046FFF7FFFE80464146BDA0BD
:1052F0000AF002FC3046BDE8F0812DE9F041044699
:10530000FFF732FDFFF738FD0120FFF74CFD0720C6
:10531000FFF74FFD1520FFF756FD200EFFF719FD93
:10532000C4F30740FFF715FDC4F30720FFF711FD95
:10533000E0B2FFF70EFD1D2000EB1460C4F307413F
:105340000844C4F307210844E1B247183846FFF780
:1053500040FDB64804604FF4FA60FFF743FD06468F
:105360000EB1757A00E0FF25B04804601DB9B0A009
:105370000AF0C2FB07E02846FFF7B6FE804641462A
:1053800098A00AF0B9FB2846BDE8F0812DE9F04766
:1053900081460E46FFF7E8FCFFF7EEFC0120FFF721
:1053A00002FD2420FFF705FD1820FFF70CFD4846FD
:1053B000FFF7CFFC002407E0305DFFF7CAFC305D4B
:1053C000384487B2601CC4B2202CF5DB09F13D00E3
:1053D000384487B23846FFF7FCFC4FF4FA60FFF719
:1053E00001FD054615B195F8098001E04FF0FF0871
:1053F0004046BDE8F0872DE9F04707468846FFF7AD
:10540000B3FCFFF7B9FC0120FFF7CDFC0420FFF748
:10541000D0FC1920FFF7D7FC3846FFF79AFC07F1BC
:105420001E094846FFF7D5FC4FF4FA60FFF7DAFC97
:10543000064666B1757A002406E004F10A00305C85
:1054400008F80400601CC4B2202CF6DB00E0FF2545
:105450002846BDE8F0870000D6B8CEC6CDBCCFF157
:10546000CCABCAAAA1A2CCABBAFDB6F8C9FAB2BB02
:10547000B3C9CCD8D5F70000D6B8CEC6CDBCCFF1D5
:10548000CCABC2D2B6F8C9FAB2BBB3C9CCD8D5F747
:1054900000000000D6B8CEC6CDBCCFF1D5FDB3A379
:1054A000A3ACB5ABCCD8D5F7B5E3CCABC9D9A3A8E1
:1054B000BBF2C3E6BBFDCCABD0A1A3A9B6F8C9FA39
:1054C000B2BBB3C9CCD8D5F700000000D6B8CEC661
:1054D000B2BBC6A5C5E42100CCD8D5F7BACFB2A2DD
:1054E000CAA7B0DC00000000B7C3CECAD6B8CEC68B
:1054F000BFE2CAB1B5D8D6B7D0F2BAC5B3ACB3F62D
:10550000D6B8CEC6BFE2B7B6CEA70000C9BEB3FDBF
:10551000C4A3B0E5CAA7B0DC00000000C7E5BFD552
:10552000D6B8CEC6BFE2CAA7B0DC0000BBBAB3E5AE
:10553000C7F8C4DAC3BBD3D0D3D0D0A7D4ADCABCCC
:10554000CDBCB6F8C9FAB2BBB3C9CDBCCFF100002F
:10555000B6C1D0B420464C41534820B3F6B4ED0058
:10556000CEB4B6A8D2E5B4EDCEF30000CEDED0A71F
:10557000BCC4B4E6C6F7BAC500000000BCC4B4E6BB
:10558000C6F7C9E8B6A8C4DAC8DDB4EDCEF30000AA
:10559000BCC7CAC2B1BED2B3C2EBD6B8B6A8B4EDCE
:1055A000CEF30000D6B8CEC6BFE2C2FA00000000BB
:1055B000B5D8D6B7B4EDCEF300000000C4A3BFE960
:1055C000B7B5BBD8C8B7C8CFC2EBD3D0CEF30000B5
:1055D0000D0AC9E8D6C3B2CECAFDB3C9B9A6A3A104
:1055E000000000000D0A2573000000000D0AC4A38E
:1055F000BFE9D7EEB4F3D6B8CEC6C8DDC1BF3D25EE
:10560000640000000D0AB6D4B1C8B5C8BCB63D25CB
:10561000640000000D0AB5D8D6B73D25780000001B
:105620000D0AB2A8CCD8C2CA3D256400BC00002037
:105630000D0AC9E8D6C3B5D8D6B7B3C9B9A6A3A1D0
:10564000000000002DE9F04781460D4616461F4632
:10565000FFF78AFBFFF790FB0120FFF7A4FB082070
:10566000FFF7A7FB1B20FFF7AEFB4846FFF771FBD8
:105670002812FFF76EFBE8B2FFF76BFB3012FFF763
:1056800068FBF0B2FFF765FB09F1240000EB252071
:10569000E9B2084400EB2620F1B200EB010A5046C3
:1056A000FFF797FB4FF4FA60FFF79CFB044664B1E9
:1056B00094F80980E07AA17A00EB01203880607BC1
:1056C000217B00EB0120788001E04FF0FF0840468D
:1056D000BDE8F0872DE9F0410646FFF745FBFFF7EF
:1056E0004BFB0120FFF75FFB0320FFF762FB1D2050
:1056F000FFF769FB21273846FFF76BFB4FF4FA6091
:10570000FFF770FB044634B1657AE07AA17A00EBCA
:105710000120308000E0FF253DB9E07AA27A00EB5D
:10572000022125A00AF0E8F908E02846FFF7DCFC92
:1057300080464146AFF254100AF0DEF92846BDE833
:10574000F08110B50446FFF70FFBFFF715FB0120B2
:10575000FFF7FFFA0020FFF7FCFA0020FFF7F9FA45
:10576000C82001F05BF81948008800F4004008B335
:1057700017480078EF281AD115484078012816D12B
:1057800013488079072812D1114880780006104903
:10579000C97800EB01400E49097900EB01200C4962
:1057A00049790844206000200849088010BD002085
:1057B000064908800120F9E70D0AD3D0D0A7D6B852
:1057C000CEC6B8F6CAFD3D2564000000C00000202A
:1057D000D81C002010B540F22551594801F088FF2F
:1057E00000B3574801F0C2FEC4B25648008800F426
:1057F0000040B8B953480088B0F5C87F13DA0021DB
:10580000514802F0B5F84F48008818B901214E48B8
:1058100002F0EEF84B4801880088401C494A10808D
:105820004A48445405E04748008840F40040454950
:10583000088010BD10B588B004460121084601F06B
:1058400023FC0121480401F068FC3D4801F070FD93
:10585000072202213E4801F004FA072203213C48B6
:1058600001F0FFF90C20059002208DF818008DF84A
:10587000190000208DF81A0001208DF81B0005A9E1
:10588000334801F063F901940020ADF80800ADF849
:105890000A00ADF80C00ADF810000C20ADF80E00B9
:1058A00001A9274801F0ABFD0121254801F02FFE99
:1058B000012240F22551224801F0DFFE26208DF81A
:1058C0001C0001208DF81D0000208DF81E00012015
:1058D0008DF81F0007A801F048F842F2CF0140F20E
:1058E000E73000F04EF800201649088000211648E5
:1058F00002F07EF808B010BD0FB438B505A80090CE
:105900001448009A04990AF0E5F800200090114824
:105910000AF010FB85B200240DE000BF40210848CA
:1059200001F0D0FE0028F9D00A48015D044801F0DA
:1059300019FE601C84B2AC42EFDB38BC5DF814FB8E
:1059400000440040C000002000140040D81C00208B
:1059500000000240481B002010B501211C4802F045
:1059600076FC68B11B48008840F400401949088063
:105970000121174802F07CFC0021154802F038F89C
:1059800010BD7FB505460C460121202001F0C5FB66
:105990000195ADF800400020ADF80800ADF8020018
:1059A00069460B4801F09BFF01221146084802F0AE
:1059B00037FC37208DF80C0001208DF80D008DF894
:1059C0000E008DF80F0003A800F0CFFF7FBD000090
:1059D00000140040C00000201CB50121082001F087
:1059E00053FB4FF42A40009001208DF80400002062
:1059F0008DF8060003208DF8050001208DF80700C2
:105A00006946594801F0A2F84FF42A41564801F07E
:105A10001BF91CBD10B5002442E001205349086069
:105A200000205349C1F8AC02504910310860504978
:105A3000C1F8BC02032000F0F1FE00204B490860D1
:105A400001204A49083108600020484910310860A7
:105A50004749C1F8BC02032000F0E0FE00204349A2
:105A6000086042490831086001204049103108604F
:105A700000203F49C1F8BC02032000F0CFFE002007
:105A80003A490860394908310860384910310860DE
:105A900001203749C1F8BC02032000F0BFFE641C9E
:105AA000FF2CBADD0020314908603149C1F8AC0251
:105AB0002E49103108602E49C1F8BC0210BD10B546
:105AC000002442E00020294908602949C1F8AC02BD
:105AD00026491031086001202549C1F8BC02052083
