:020000040800F2
:100000002809002019060008E7020008E902000894
:10001000ED020008F1020008F502000800000000EF
:10002000000000000000000000000000F9020008CD
:10003000FB02000800000000FD020008FF020008AB
:1000400033060008330600083306000833060008AC
:10005000330600083306000833060008330600089C
:10006000330600083306000833060008330600088C
:10007000330600083306000833060008330600087C
:10008000330600083306000833060008330600086C
:10009000330600083306000833060008330600085C
:1000A000330600083306000833060008330600084C
:1000B000330600083306000833060008330600083C
:1000C000330600083306000833060008330600082C
:1000D000330600088D0500083306000833060008C3
:1000E000330600083306000833060008330600080C
:1000F00033060008330600083306000833060008FC
:1001000033060008330600083306000833060008EB
:1001100033060008330600083306000833060008DB
:1001200033060008330600083306000833060008CB
:1001300033060008330600083306000833060008BB
:1001400033060008330600083306000833060008AB
:10015000330600083306000833060008330600089B
:10016000330600083306000833060008330600088B
:10017000330600083306000833060008330600087B
:10018000330600083306000800F002F800F092F889
:100190000AA090E8000C82448344AAF10107DA45E2
:1001A00001D100F087F8AFF2090EBAE80F0013F0A2
:1001B000010F18BFFB1A43F0010318477435000004
:1001C00094350000103A24BF78C878C1FAD8520795
:1001D00024BF30C830C144BF04680C6070470000C1
:1001E0000023002400250026103A28BF78C1FBD840
:1001F000520728BF30C148BF0B6070476E2901F01D
:100200004187702902F08D80662903F023826529D9
:1002100003F02082672903F01D826129AFF300807B
:1002200003681B0A28BF41F08001692901F0EE86AE
:10023000642901F0EB86752901F0E8866F2902F048
:100240001A80782902F05980E92901F0B587E4295C
:1002500001F0B287F52901F0AF87EF2902F017808E
:10026000F82902F058800368DB0928BF41F08001BB
:10027000632901F02587732901F02A87E32902F019
:100280002B83F32902F03083002070471FB503F061
:10029000D7F902F07BFB04000020002103F078F87E
:1002A000401C60600020002103F05CF8E0601FBD8E
:1002B00010B510BD02F03CFB1146FFF7E7FF00F060
:1002C00008F802F019FC03B4FFF7F2FF03BC01F0D9
:1002D00001FB4FF4E13000F01BF901F0CFF801E031
:1002E00001F0D3F8FCE7704700BFFEE700BFFEE770
:1002F00000BFFEE700BFFEE77047704770477047DA
:100300000CB50020019000907648006840F48030E1
:100310007449086000BF7348006800F40030009022
:100320000198401C0190009818B90198B0F5A04FB1
:10033000F1D16C48006800F4003010B10120009049
:1003400001E0002000900098012846D16548403027
:10035000006840F08050634940310860624800689E
:1003600040F44040604908605E48083000685D49DC
:10037000083108600846006840F4004008600846FC
:10038000006840F4A05008605848091F0860081F22
:10039000006840F08070091F086000BF5148006885
:1003A00000F000700028F9D040F205705049086054
:1003B0004C480830006820F003004A4908310860C2
:1003C0000846006840F00200086000BF4548083059
:1003D000006800F00C000828F8D10CBD10B54548A5
:1003E000006840F47000434908603E48006840F0EF
:1003F00001003C49086000203A490831086039484A
:1004000000683D490840374908603C48091D0860BC
:10041000081F006820F48020091F0860002031496F
:100420000C310860FFF76CFF4FF0006031498039F4
:10043000086010BD70B500200022022300240221B4
:10044000284D08352D6805F00C0020B1042806D091
:10045000082834D107E02A4D2A4E356033E02A4D72
:10046000284E35602FE01F4D2D1D2D68C5F380549B
:100470001C4D2D1D2D6805F03F0154B1224DB5FBDB
:10048000F1F5184E361D3668C6F3881605FB06F2E0
:1004900009E01B4DB5FBF1F5124E361D3668C6F36B
:1004A000881605FB06F20F4D2D1D2D68C5F301457D
:1004B0006D1C6B00B2FBF3F5124E356003E0104D7E
:1004C000104E356000BF00BF064D08352D68C5F3DE
:1004D00003150E4E705D0B4D2D68C540094E3560FD
:1004E00070BD000000380240007000400854400712
:1004F000003C024088ED00E0FFFFF6FE10300024D3
:100500000024F4000000002000127A000400002003
:1005100010B586B004460121084600F031FC0121E7
:10052000102000F087FC07220921374800F015FA57
:1005300007220A21344800F010FA4FF4C0600490FA
:1005400002208DF814008DF8150000208DF816009B
:1005500001208DF8170004A92B4800F073F90094CE
:100560000020ADF80400ADF80600ADF80800ADF8C5
:100570000C000C20ADF80A006946244800F0BBFDD1
:100580000121224800F03FFE06B010BD10B540F238
:1005900025511E4800F028FF10B31C4800F062FEF1
:1005A000C4B21B48008800F40040C8B9184800884D
:1005B00000F4804060B10A2C03D000201449088068
:1005C00020E01348008840F400401149088019E0F9
:1005D0000D2C06D10E48008840F480400C4908805C
:1005E00010E00B480088C0F30D000A490C5408487D
:1005F0000088401C0649088008460088C72801DD9D
:100600000020088010BD00000000024000100140E2
:1006100014000020FC0000200948804709480047DA
:10062000FEE7FEE7FEE7FEE7FEE7FEE7FEE7FEE7A2
:10063000FEE7FEE704480549054A064B70470000FF
:10064000DD03000889010008280300202809002094
:10065000280500202805002032490143324A116054
:10066000704770B5002100230F22C4781CB32E4CB4
:10067000246804F4E064C4F5E064C4F30721C1F124
:100680000404E3B20A4144789C40E1B28478144007
:1006900021430C07210E254C05786155047804F0A0
:1006A0001F050124AC4005786D11AD0005F1E02572
:1006B000C5F8004109E0047804F01F050124AC40AE
:1006C0001B4D0678761145F8264070BD194A0A4040
:1006D0000243154B1B1F1A60704739B1124A121D95
:1006E00012680243104B1B1D1A6006E00E4A121DD1
:1006F000126882430C4B1B1D1A607047042808D1F6
:100700004FF0E021096941F004014FF0E02211614E
:1007100007E04FF0E021096921F004014FF0E022E9
:10072000116170470000FA050CED00E000E400E004
:1007300080E100E080FFFF1F10B504469848844226
:1007400008D10121084600F086FB0021012000F0BD
:1007500082FB76E09348844208D10121022000F018
:100760007AFB0021022000F076FB6AE08E4884428A
:1007700008D10121042000F06EFB0021042000F0CC
:100780006AFB5EE08948844208D10121082000F01C
:1007900062FB0021082000F05EFB52E084488442A6
:1007A00008D10121102000F056FB0021102000F09C
:1007B00052FB46E07F48844208D10121202000F00E
:1007C0004AFB0021202000F046FB3AE07A488442B0
:1007D00008D10121402000F03EFB0021402000F024
:1007E0003AFB2EE07548844208D10121802000F0B8
:1007F00032FB0021802000F02EFB22E07048844272
:1008000008D10121801500F026FB0021A01500F081
:1008100022FB16E06B48844208D10121401500F00C
:100820001AFB0021601500F016FB0AE066488442BE
:1008300007D10121001500F00EFB0021201500F06A
:100840000AFB10BDF0B50A4600210023002400BFBA
:100850003DE0012505FA01F3156805EA03049C4211
:1008600034D105684F000326BE40B54305601579B5
:100870004E00B5400668354305601579012D02D05C
:100880001579022D16D185684F000326BE40B54369
:10089000856055794E00B54086683543856045686A
:1008A00001268E40B5434560456896798E40B6B2C4
:1008B00035434560C5684F000326BE40B543C5605B
:1008C000D5794E00B540C6683543C560491C10292E
:1008D000BFD3F0BD4FF6FF7101600021017141717E
:1008E0008171C171704708B54FF480320092009A4F
:1008F0000A430092009AC261C161009AC261C26952
:100900000092C269009208BD0246002013690B40A4
:100910000BB1012000E0002070470146086980B259
:1009200070470246002053690B400BB1012000E0E4
:10093000002070470146486980B2704701837047C4
:10094000418370470AB1018300E0418370474161F0
:10095000704742694A4042617047F0B50023002465
:100960004D07ED0E02FA05F3CE1000F1200555F803
:1009700026504E07F70E0F26BE40B543CF1000F1AC
:10098000200646F82750CE1000F1200555F82650D5
:1009900045EA0304CE1000F1200545F82640F0BDDD
:1009A000000002400004024000080240000C024027
:1009B000001002400014024000180240001C0240D7
:1009C000002002400024024000280240F94800684C
:1009D00040F00100F74908600020F649083108603E
:1009E000F4480068F4490840F2490860F348091DDA
:1009F0000860F348EF4984310860F0481038091D59
:100A00000860EC48006820F48020EA490860002073
:100A1000E8490C310860E7498C31086070470021D3
:100A2000E44A921C117011460870704710B50146D7
:100A30000022002300204A11012A02D1DD4C236844
:100A400008E0022A03D1DB4C7034236802E0D94C61
:100A50007434236801F01F02012494401C400CB13F
:100A6000012000E0002010BD38B5002000900024D7
:100A7000002500BF3120FFF7D9FF05460098401C34
:100A800000900098B0F5A04F01D0002DF2D0312099
:100A9000FFF7CCFF08B1012400E00024204638BD58
:100AA00001460020C34A106820F0F80040EAC10067
:100AB00010607047C349086070470021BD4A70321A
:100AC00011701170012802D004280AD104E001211C
:100AD000B84A7032117005E00521B64A70321170C3
:100AE00000E000BF00BF7047B7490860704770B5AD
:100AF000049C41EA82150126C6EB530645EA0645E9
:100B0000054345EA0465AB4E361D356070BDAD4901
:100B100008667047820142EA0172A64B84331A606C
:100B20007047A8498866704710B5830143EA01639E
:100B300043EA02739F4C8834236010BDA1490867C3
:100B40007047A049C864704702460020994B08339B
:100B5000186820F0EC6042EA01031843954B083313
:100B60001860704702460020924B0833186820F046
:100B7000784042EA010318438E4B083318607047EF
:100B8000014600208B4A0832106820F00300084319
:100B90001060704787480830006800F00C0070470C
:100BA00001460020834A0832106820F0F000084314
:100BB00010607047014600207E4A0832106820F419
:100BC000E05008431060704701460020794A08321F
:100BD000106820F4604040EAC10010607047F0B532
:100BE000002100220024022500260223714F08372D
:100BF0003F6807F00C0121B1042905D0082937D13D
:100C000005E0724F076036E0714F076033E0694FCF
:100C10003F1D3F68C7F38056664F3F1D3F6807F092
:100C20003F036EB16A4FB7FBF3F7DFF888C10CF1F1
:100C3000040CDCF800C0CCF3881C07FB0CF40CE0BF
:100C4000624FB7FBF3F7DFF86CC10CF1040CDCF872
:100C500000C0CCF3881C07FB0CF4564F3F1D3F68C7
:100C6000C7F301477F1C7D00B4FBF5F7076002E086
:100C7000564F076000BF00BF4E4F08373F6807F070
:100C8000F0010909534F7A5C0768D7404760494F24
:100C900008373F6807F4E051890A4E4F7A5C47688D
:100CA000D7408760434F08373F6807F46041490BDE
:100CB000484F7A5C4768D740C760F0BD002100F418
:100CC0004072B2F5407F0AD13A4A0832116821F4E5
:100CD000F811414A02401143364A08321160354A40
:100CE00070321268C0F30B031A43324B70331A6030
:100CF00070473549443908607047334940390860C6
:100D0000704736490860704701460020294A8C32F6
:100D1000106820F01F004A1E1043264A8C321060D3
:100D2000704701460020234A8C32106820F4F850A6
:100D30004A1E40EA02201F4A8C321060704701466A
:100D400000201C4A8C32106820F4401008431060C8
:100D5000704701460020174A8C32106820F440008A
:100D600008431060704701460020124A8C32106818
:100D700020F44030084310607047194908607047FC
:100D800039B10C4A3032126802430A4B30331A60D0
:100D900006E0084A303212688243064B30331A604C
:100DA0007047F9B1034A343212680243014B3433BD
:100DB0001A601CE000380240FFFFF6EA1030002401
:100DC0000030002000004742800E47420024F4001B
:100DD00000127A0016000020FFFCFF0F5C01474262
:100DE000E01147428F4A126882438E4B1A60704767
:100DF00039B18C4A121D126802438A4B1B1D1A60BE
:100E000006E0884A121D12688243864B1B1D1A6039
:100E1000704739B1834A0C3212680243814B0C335C
:100E20001A6006E07F4A0C32126882437D4B0C3315
:100E30001A60704739B17B4A103212680243794B0D
:100E400010331A6006E0774A103212688243754BFD
:100E500010331A60704739B1724A243A126802435B
:100E6000704B243B1A6006E06E4A243A12688243B3
:100E70006C4B243B1A60704739B16A4A203A1268B9
:100E80000243684B203B1A6006E0664A203A12682B
:100E90008243644B203B1A60704739B1614A1C3A67
:100EA000126802435F4B1C3B1A6006E05D4A1C3A25
:100EB000126882435B4B1C3B1A60704739B1594A38
:100EC000143A12680243574B143B1A6006E0554A25
:100ED000143A12688243534B143B1A60704739B17D
:100EE000504A103A126802434E4B103B1A6006E01B
:100EF0004C4A103A126882434A4B103B1A607047C2
:100F000039B1484A1C3212680243464B1C331A60FE
:100F100006E0444A1C3212688243424B1C331A607A
:100F2000704739B13F4A2032126802433D4B2033AB
:100F30001A6006E03B4A203212688243394B203364
:100F40001A60704739B1374A243212680243354B70
:100F500024331A6006E0334A243212688243314B4C
:100F600024331A60704739B12E4A2C32126802437A
:100F70002C4B2C331A6006E02A4A2C32126882432A
:100F8000284B2C331A60704739B1264A3032126828
:100F90000243244B30331A6006E0224A3032126892
:100FA0008243204B30331A607047012808D11D4915
:100FB0003C31096841F008011A4A3C32116007E0EF
:100FC00018493C31096821F00801164A3C32116089
:100FD000704739B1134A273A12780243114B273B25
:100FE0001A7006E00F4A273A127882430D4B273BCE
:100FF0001A7070470B484030006840F08070094913
:1010000040310860704701460020064A283A1268BD
:101010000A400AB1012000E000207047014926394A
:10102000087070473438024010B50446FA488442CC
:1010300008D101211020FFF752FF00211020FFF7F7
:101040004EFF57E0F548844209D101214804FFF7DB
:1010500035FF00214FF40030FFF730FF4AE0F04841
:10106000844209D101218804FFF728FF00214FF4B1
:101070008020FFF723FF3DE0EA48844209D10121A7
:10108000C804FFF71BFF00214FF40020FFF716FFF5
:1010900030E0E548844209D101210805FFF70EFF41
:1010A00000214FF48010FFF709FF23E0DF4884425E
:1010B00008D101212020FFF712FF00212020FFF797
:1010C0000EFF17E0DA48844209D101218807FFF7B3
:1010D000F5FE00214FF08040FFF7F0FE0AE0D54812
:1010E000844207D101214005FFF7E8FE0021600599
:1010F000FFF7E4FE10BD2DE9FF4705460E4600242C
:10110000A14600BFA046B08900B100BF2C8A24F4DC
:101110004054F08804432C82AC8941F20C60844333
:10112000B08831890843718908430443AC81AC8A93
:1011300024F44074B0890443AC826846FFF74FFD45
:10114000B548854202D0B948854202D1DDF80C90FD
:1011500001E0DDF80890A88900F4004040B109EBF7
:10116000C90000EB091031684900B0FBF1F707E056
:1011700009EBC90000EB091031688900B0FBF1F7F9
:101180006420B7FBF0F004012009642101FB107812
:10119000A88900F4004040B1322000EBC800B0FB49
:1011A000F1F000F00700044308E0322000EB0810E3
:1011B0006421B0FBF1F000F00F0004432C81BDE886
:1011C000FF874FF41651016000218180C1800181A9
:1011D0000C21418100218181704710B50246002019
:1011E000108A20F470600B884C8823438C8823433A
:1011F000CC8823431843108210BD00210180418018
:101200008180C180704721B1828942F4005282817D
:1012100004E082894DF6FF731A4082817047028B89
:1012200002F47F420283028B0A430283704721B19A
:10123000828942F40042828103E08289C2F30E0275
:101240008281704721B1828A42F40062828204E086
:10125000828A4FF2FF731A4082827047C1F30802FC
:101260008280704701468888C0F308007047028A70
:101270004FF6F0731A400282028A0A4302827047D4
:1012800021B1828942F00202828104E082894FF614
:10129000FD731A408281704782894FF2FF731A40B2
:1012A000828182890A4382817047028A4FF6DF7306
:1012B0001A400282028A0A430282704721B1028ADE
:1012C00042F48042028204E0028A4BF6FF731A4025
:1012D00002827047818941F001018181704721B10B
:1012E000828A42F00802828204E0828A4FF6F77313
:1012F0001A4082827047028BD2B20283028B42EA8A
:1013000001220283704721B1828A42F02002828248
:1013100004E0828A4FF6DF731A408282704721B15F
:10132000828A42F01002828204E0828A4FF6EF73D2
:101330001A4082827047828A4FF6FB731A4082827B
:10134000828A0A438282704721B1828A42F0020275
:10135000828204E0828A4FF6FD731A4082827047CF
:101360001AB1838A0B43838202E0838A8B43838290
:101370007047F0B50346002400260025002040F603
:101380006A17B94200D100BF1846C1F3421401F0F8
:101390001F06012707FA06F5012C01D10C3004E0E5
:1013A000022C01D1103000E014301AB107682F432D
:1013B000076002E00768AF430760F0BD0246002007
:1013C000B1F5007F00D100BF13880B400BB10120A5
:1013D00000E00020704701F40072B2F5007F00D1F8
:1013E00000BFCA430280704770B502460024002344
:1013F0000025002040F66A16B14200D100BFC1F3BB
:10140000421501F01F03012606FA03F3012D13D143
:101410009689334017E0000000100140004400406E
:1014200000480040004C00400050004000140140C3
:1014300000780040007C0040022D02D1168A334023
:1014400001E0968A33400C12012606FA04F416884D
:10145000344013B10CB1012000E0002070BD10B584
:101460000022002340F66A14A14200D100BF0A12F4
:1014700001249440A3B2DC43048010BD10B5104891
:1014800000F08EF800F051F810BD08B50C4800F0DF
:10149000AAF80C4880ED000A90ED000A00F046F82A
:1014A0000949086008460068084B09A20AA1009093
:1014B000032000F011FA4FF47A7000F079FA08BDB9
:1014C00038000020340000203000002028000020D8
:1014D00025733A2564000000494E464F0000000085
:1014E000002315221DE0981841102A4800EB8100C6
:1014F000D0ED000AF4EEC00AF1EE10FA02D2481E56
:1015000002B20EE0234800EB8100D0ED000AF4EEB9
:10151000C00AF1EE10FA02DD481C03B201E00846F1
:1015200070479A42DFDA1046FAE7704770B52DED42
:10153000028BB0EE408A0025B0EE480AFFF7D0FFDC
:101540000446601C10B3152C20D0124800EB840018
:1015500090ED000A30EE480A0F4800EB840090ED51
:10156000001AC0EE010A04EB84003221C1EB4000F6
:1015700000EE100AB8EEC00A30EE800ADFED070A6E
:1015800020EE200ABDEEC00A10EE105A2846BDEC2F
:10159000028B70BD40000020940000200000C84273
:1015A00010B5044668202070002060700C20A070E8
:1015B0000020E0708020207100F046FB10BD4170DB
:1015C000704781707047C170704701717047014664
:1015D000487870470146887870470146C878704758
:1015E00001460879704770B52DED068B82B005462F
:1015F000002600249FEDA10AB0EE408A80202871C9
:101600006878A9780843E9780843297940EA01060F
:10161000A87830B1042843D008286ED00C283ED1D9
:10162000BBE0642000902878022301AA314600F034
:1016300060FB9DF8040040EA04249DF8050040EAA0
:101640000424C4F30B04E00AC0B1E443C4F30B0167
:10165000481C01F0E4FE41EC1A0B9FED890B53ECA2
:10166000102B01F0EFFE41EC190B01F0A7FE08EE84
:10167000100AB1EE480AB0EE408A10E0204601F0B0
:10168000CEFE41EC1A0B9FED7E0B53EC102B01F0BC
:10169000D9FE41EC190B01F091FE08EE100ABFE0F3
:1016A000642000902878022301AA314600F021FB33
:1016B0009DF8040040EA04249DF8050040EA042453
:1016C000C4F30D04600BC8B1E443C4F30D01481C1E
:1016D00001F0A5FE41EC1A0B9FED6B0B53EC102BA8
:1016E00001F0B0FE41EC190B01F068FE08EE100AA3
:1016F000B1EE480AB0EE408A11E011E0204601F058
:101700008EFE41EC1A0B9FED600B53EC102B01F099
:1017100099FE41EC190B01F051FE08EE100A7FE032
:10172000642000902878022301AA314600F0E1FAF3
:101730009DF8040040EA04249DF8050040EA0424D2
:10174000A4B2E00BB8B1E443A1B2481C01F067FEBB
:1017500041EC1A0B9FED4E0B53EC102B01F072FE77
:1017600041EC190B01F02AFE08EE100AB1EE480A0E
:10177000B0EE408A10E0204601F051FE41EC1A0B19
:101780009FED430B53EC102B01F05CFE41EC190B69
:1017900001F014FE08EE100A42E064200090287860
:1017A000032301AA314600F0A4FA9DF8040040EAA0
:1017B00004249DF8050040EA04249DF8060040EA50
:1017C0000424C4F31104600CC0B1E443C4F3110158
:1017D000481C01F024FE41EC1A0B9FED2F0B53EC3B
:1017E000102B01F02FFE41EC190B01F0E7FD08EE84
:1017F000100AB1EE480AB0EE408A10E0204601F02F
:101800000EFE41EC1A0B9FED240B53EC102B01F054
:1018100019FE41EC190B01F0D1FD08EE100A00BFD2
:1018200000BF687830B101280BD0022810D00328FF
:101830001CD114E0B7EE000AC8EE000AB0EE608AD0
:1018400014E0B0EE000AC8EE000AB0EE608A0DE0C7
:10185000B1EE000AC8EE000AB0EE608A06E0B2EE11
:10186000000AC8EE000AB0EE608A00BF00BFB0EE0A
:10187000480A02B0BDEC068B70BD000000000000FD
:10188000000000000000F03F000000000000D03F1A
:10189000000000000000B03F000000000000903F8A
:1018A00000BF1A4A128802F04002002AF9D0C2B2E0
:1018B000164B9A8070470146704701464FF0FF3043
:1018C000704710B5044612492046FFF7E9FF10BDE6
:1018D0000020704700BFFEE70FB438B504460D4640
:1018E000052C0FDC07A8009029460AA000F058FA42
:1018F0000099069800F04EFA0020009007A000F032
:101900004FFA00BF002038BC5DF814FB0010014006
:10191000E80000205B25735D3A0000000D0A00001E
:1019200010B504466FF00400FEF7E8FEE11704EB83
:101930005171C1F3C701354A11701046007800EBB0
:101940004001C1EBC0104FF6FF7101EAC000304901
:10195000088010BD70B505462E48007828B9A8202B
:10196000FFF7DEFF01202B49087028480078684304
:101970004FF0E0214861002088610846006940F08E
:101980000100086100BF4FF0E020046904F001008D
:1019900018B104F480300028F5D04FF0E020006941
:1019A00020F001004FF0E02108610020886170BD47
:1019B00070B505461748007828B9A820FFF7B0FF92
:1019C0000120144908701248008868434FF0E02154
:1019D0004861002088610846006940F00100086104
:1019E00000BF4FF0E020046904F0010018B104F4D6
:1019F00080300028F5D04FF0E020006920F0010091
:101A00004FF0E02108610020886170BDF4000020E3
:101A1000F6000020F800002010B5D948006820F436
:101A20004000D74908600846006840F4800008601C
:101A30000120D4490860D449C1F8B0020420FFF75E
:101A400089FF0020CF4908600420FFF783FF0020B2
:101A5000CD49C1F8B00210BD10B5C948006820F4E6
:101A60004000C74908600846006840F480000860EC
:101A70000020C449091D0860C349C1F8AC02042014
:101A8000FFF768FF0120BF49091D0860BE49C1F882
:101A9000AC020420FFF75EFF10BD70B50446B848E5
:101AA000006820F44000B64908600846006840F429
:101AB000800008600020B349091D086000251EE071
:101AC00004F0800018B10120AE49086002E0002057
:101AD000AC4908606006040E0220FFF73BFF0120BE
:101AE000A849091D08600220FFF734FF0020A6491D
:101AF000C1F8B0020220FFF72DFF681CC5B2082D07
:101B0000DEDB70BD70B500249D48006820F4400005
:101B10009B490860084600680860002517E000201F
:101B20009849091D08600220FFF714FF012096491B
:101B3000C1F8B0026006040E92488038006808B10F
:101B4000601CC4B20120FFF705FF681CC5B2082D58
:101B5000E5DB204670BD10B58948006820F44000E0
:101B600087490860084600680860012085490860C8
:101B7000FFF7F0FE01208449C1F8B002FFF7EAFE4A
:101B800007E0601CC4B2FA2C03DDFFF765FF0120FB
:101B900010BD7C48803800680028F2D17949091DC1
:101BA000086000BFF4E710B500207649091D086001
:101BB0007348006820F440007149086008460068D6
:101BC00040F48000086000206F49C1F8AC02022098
:101BD000FFF7C0FE01206B49091D08600220FFF7D6
:101BE000B9FE00206849C1F8B00210BD10B5002050
:101BF0006449091D08606248006820F4400060499B
:101C000008600846006840F48000086001205E49D2
:101C1000C1F8AC020220FFF79DFE01205949091DC1
:101C200008600220FFF796FE00205749C1F8B00275
:101C300010BD10B5002304E00C780470401C491C52
:101C40005B1C9342F8D310BD1CB501210846FFF779
:101C500097F84FF4C050009001208DF80400002048
:101C60008DF8060003208DF8050001208DF807008F
:101C700069464348FEF7E6FD1CBD2DE9F05F0746C7
:101C8000884691461C46DDF828A04FF0000B002046
:101C900040EA47003D490870084680F80180224626
:101CA0004946801CFFF7C5FFA01C84B2FFF7B4FEB5
:101CB000002516E03549485DFFF7EFFE002603E0FA
:101CC000761C0520FFF746FEFFF745FF08B1564595
:101CD000F6D3564503D3681C00F0FF0B03E0681CE5
:101CE00085B2A542E6DB00BFFFF7B6FE5846BDE869
:101CF000F09F2DE9F0470546884616461F46DDF859
:101D000020900024FFF788FE002141EA4501C8B277
:101D1000FFF7C3FEFFF71FFF20B1FFF79DFE012075
:101D2000BDE8F0874046FFF7B8FEFFF714FF18B193
:101D3000FFF792FE0120F3E7FFF76EFE012101EBB2
:101D40004501C8B2FFF7A9FEFFF705FF18B1FFF77D
:101D500083FE0120E4E7781E87B206E0FFF7D2FE9B
:101D60003055FFF720FF601C84B2BC42F6DBFFF762
:101D7000C9FE3055FFF73AFFFFF76EFE0020CFE7B0
:101D800000000240AC02404200004042C40100207A
:101D9000704700000A46014900F09EB9E8000020A3
:101DA0000FB4044910B503AA029800F095F910BCCD
:101DB0005DF814FBE800002070B50C460546012ACA
:101DC00005D02878800600D5EA69002302E00123C7
:101DD00005E05B1C934202D2E05C0028F9D1A869BF
:101DE000E618C01AA861286A18442862284600F03C
:101DF000D4F804E0D5E9012114F8010B9047B4426E
:101E0000F8D3284600F0DFF870BD00002DE9F05F40
:101E1000894604464FF0000ADFF874B1FB44C0F86D
:101E200020A02046E1688847002874D0252806D0E5
:101E3000D4E901219047206A401C2062F1E7002686
:101E40005F462046E16888472028054607DB312D9C
:101E500005D2781910F8200C08B10643F1E7B00755
:101E600001D526F00406C4F81CA00027C4F818A069
:101E70002A2D09D0284601F06DFA38B304EB870803
:101E8000303DC8F8185019E059F8041B204604EBFF
:101E900087029161E1688847012F054618D1E06902
:101EA000002820DA26F020061DE0D8F8180000EB04
:101EB000800005EB40003038C8F818002046E16883
:101EC0008847054601F046FA0028EED1012F0AD0D6
:101ED0002E2D08D12046E16888477F1C0546022F39
:101EE00046F02006C4DBA069002803DA404246F031
:101EF0000106A061F00701D026F010066C2D0BD072
:101F0000682D09D04C2D39D06A2D35D0742D35D09F
:101F10007A2D33D016E038E0E1682F462046884716
:101F2000B842054609D16C2F26D04FF48060E16895
:101F3000064320468847054604E06C2F1AD04FF42C
:101F4000807006430DB3A5F14100192802D8203551
:101F500046F400664A462946204626604E46FEF76D
:101F60004DF980B101280BD0F61D26F0070000F1D5
:101F7000080956E74020E4E78020D8E70020D6E7AC
:101F800006F104094DE7284652E7206ABDE8F09FB4
:101F90003818000070477047704770B5044685696F
:101FA0000068C10601D5302600E02026C00707D012
:101FB00070BDD4E9012130469047206A401C206260
:101FC0006D1EF6D570BD70B5044685690078C007F2
:101FD00007D170BDD4E9012120209047206A401C20
:101FE00020626D1EF6D570BD09684A0501D540B264
:101FF0007047C905FCD500B2704709684A0501D58C
:10200000C0B27047C905FCD580B270472DE9F041D8
:102010000646002410687529314616A510D0FFF732
:10202000E3FF002802DA404213A507E031688A077F
:1020300001D512A502E0490704D511A5012401E04C
:10204000FFF7DBFF00210A2206F1240709E0B0FBBD
:10205000F2FCB0FBF2F302FB1C003030785418465F
:10206000491C0028F3D123462A463046BDE8F041FA
:1020700000F0A7B9000000002D0000002B000000B8
:102080002000000011680268006A530501D508703D
:102090000AE0D30501D5088006E0130603D5C21770
:1020A000C1E9000200E008600120704710B54369F3
:1020B00013B1AFF3008001E0FFF77EFE012010BDF9
:1020C000127800F124010A7000224A700122EDE723
:1020D00011684FF0FF32E9E7074B70B50D467B44BE
:1020E00000F0DDFB04462846FFF7E7FB10B14FF098
:1020F000FF3070BD204670BDBFF7FFFF2DE9FF5FC9
:1021000015468A460446DFF8AC80F8440027D8E933
:1021100000103E46CDE9001010E03AF816106A466D
:1021200002A800F0E5FB411C07D02178890603D501
:10213000E269391891420DD80744761C2078800650
:1021400002D5E069B84205DDAE42E6DB3AF816009A
:102150000028E2D1A069C01BA0612046FFF71DFF47
:10216000D8E90010CDE90010002017E03AF8181067
:102170006A4602A800F0BCFBB0F1FF3F81460BD0DD
:1021800000250DF1080B05E0D4E901211BF805003D
:1021900090476D1C4D45F7D308F10100B0428046D1
:1021A000E4DB206A384420622046FFF70CFFBDE8DC
:1021B000FF9F00005E1500002DE9F0418046D21D12
:1021C00022F007020025D2E90002F52915A614D055
:1021D000011E72F1000106DA0023D0EB030063EB6D
:1021E000020211A608E0D8F800108B0701D50FA64F
:1021F00002E0490701D50EA601251146002408F189
:10220000240704E000F098F830323A55641C50EA94
:102210000102F7D12B46324621464046BDE8F04147
:1022200000F0CFB8000000002D0000002B000000DF
:102230002000000030B4002100F1240408E002F086
:102240000705D208303542EA4372DB086554491C61
:1022500052EA0305F3D10468002310A2250707D52D
:10226000A40600D421B1C46901230DA2641EC46177
:1022700030BC00F0A6B810B5044621461068FFF740
:10228000BCFE02462046BDE810400023D2E7D21D26
:1022900022F00701D1E90023CCE700000000000094
:1022A00030000000F0B40D460188090502D5214C2C
:1022B0007C4402E01F4C7C440E34002100F12406D3
:1022C00008E002F00F071209E75D42EA03721B09FA
:1022D0007754491C52EA0307F3D10278002312070E
:1022E00004D5702D06D009B1022311342246F0BC6A
:1022F00000F067B801231034F8E770B504460D46C6
:1023000021461068FFF779FE024629462046BDE8BF
:1023100070400023C6E7D21D22F00703D3E9002353
:10232000C0E70368126843F0200303600823C36119
:102330000023B7E7C013000030B5B0F10A024FEA3E
:10234000900E71F100034EEA817EB0EB0E0061EB5E
:1023500091014FEA101E4EEA017E10EB0E0041EB98
:1023600011114FEA102E4EEA016E10EB0E0041EBF8
:1023700011214FEA104E4EEA014E10EB0E0041EBD8
:102380001141401841F100014FEAD00040EA41708C
:102390004FEAD10110EB80054FEA810444EA9074C2
:1023A00044EB01046D1944EB0404521BA3414FF0AC
:1023B000000348BF0A3200D530BD401C41F1000186
:1023C00030BD2DE9F0470D4699469246044600F18E
:1023D00024080168880604D5E06921F01001216015
:1023E00000E00120A84201DD471B00E00027A169B1
:1023F0007A1902EB0900081AA0612078C00602D4FD
:102400002046FFF7CAFD002608E0D4E901211AF8AA
:1024100006009047206A401C761C20624E45F4DB83
:102420002078C0060AD52046FFF7B7FD06E0D4E9BC
:10243000012130209047206A401C2062381EA7F1FD
:102440000107F4DC07E0D4E9012118F80500904702
:10245000206A401C2062281EA5F10105F3DC2046FD
:10246000FFF7B1FD2078000602D50220BDE8F08715
:102470000120FBE770472DE9FF4F0C461E464FF049
:10248000FF378BB0D2E90001DDF860800A908A4600
:10249000C1F30A5505B93D46002108464FF000003A
:1024A000BAF1000F00F4400005DA00EB80004FF4B1
:1024B000400101EA50004FEA9059B9F1010F00DDE7
:1024C000B9460A9850EA4A000ED044F61050A5F2D8
:1024D000FF3545432F14B8F1000F1ED07542291E59
:1024E0001EDDC9F100021CE0B8F1010F4FF0000041
:1024F00001D0302103E0F24305E02154401CB042FA
:10250000FBDB30460022002121540B99C1F80880E2
:10251000C1E900200FB0BDE8F08FBD1B6D1CDEE7E8
:102520004A4600DA694206A800F074FA06AB93E85E
:10253000070003AB83E8070050460A9900F02AFB26
:102540008DE80700A0F500501F3800900398002D7B
:102550000ADD42F21F014A460844002303A9039002
:10256000684600F093FD09E0A0F500504A461F3888
:10257000002303A90390684600F09DFD8DE8070045
:102580000004000C03D04FF0FF30410800E010467B
:10259000B8F1000F03D00022009215461EE0751E10
:1025A00005D4FFF7C9FE303262556D1EF9D5B3462A
:1025B0000122084302D000227F1C04E0207830284A
:1025C00001D100227F1E002A099784D01DE0112D21
:1025D00007DAFFF7B1FE303262556D1C50EA010296
:1025E000F5D1084302D00098C8B10EE00021681E62
:1025F00005E0235C625C63542254401E491C814206
:10260000F7DBAB46A81B401E0990002004F80B0026
:102610000B98099AC0F80880C0E9002B7AE71126C8
:102620004FF0000857E72DE9F04F88460446D21DC9
:1026300022F0070191B0D1E90001CDE90A0100F0D3
:1026400071FE02460B98C00F01D02D2007E02068D4
:10265000810701D52B2002E0202101EAC000032AD6
:10266000099001D0072A05DB03464146204600F0C9
:1026700091F90BE12078800601D5E06900E00620A1
:10268000B8F1650F814606D0B8F1660F18D0B8F1E1
:10269000670F70D131E00020B9F1110F009001DB1C
:1026A000112301E009F101030AAA01A90CA8FFF70F
:1026B000E2FEDDE90C70002609F10105834647E0E2
:1026C00001204B4600904FF000470AAA01A90CA830
:1026D000FFF7D1FEDDE90DB00C995D46002610B97B
:1026E00009F101000D18B9EB050003D4C0F1FF3664
:1026F00009F10105A5EB09002BE0B9F1010F01DAA1
:102700004FF001090020B9F1110F0090484601DD9A
:10271000112300E003460AAA01A90CA8FFF7ABFEAB
:10272000DDE90C704D4600268346207800070AD468
:10273000AB4500DA5D4601A8012D04DD411911F811
:10274000011C302907D04F4502DA17F1040F04DAD3
:10275000012082460FE06D1EEEE7002F02DCED1B2C
:102760003E4403E0781CA84200DD7D1CB81B00F14C
:10277000010A4FF000472078000703D4AA4501DB87
:102780004FF0FF3A0021B7F1004F0DF143088DF8EB
:10279000431024D002202B23002F01DA7F422D2367
:1027A0000A21021EA0F1010000DC5FB197FBF1FCE1
:1027B00097FBF1F201FB1C7C17460CF1300C08F87A
:1027C00001CDEEE7A8F1010003702188090501D5CC
:1027D000452100E06521A0F1010800F8011C0998DD
:1027E0000FA9A1EB0807FF1D00B10120411901EB62
:1027F000EA70A1693844081A401EA0612078C0061A
:1028000002D42046FFF7C9FB099828B1D4E9012179
:102810009047206A401C20622078C00622D52046BE
:10282000FFF7BBFB1EE0002E04DBB34502DD01A871
:10283000805D00E03020D4E901219047206A401CEF
:102840002062761CAAF101005FEA000A0AD100F0BA
:102850009DF8C0680168405CD4E901219047206A76
:10286000401C2062281EA5F10105DCDC07E0D4E94C
:10287000012118F8010B9047206A401C2062381E85
:10288000A7F10107F3DC2046FFF79DFB032011B001
:1028900041E6000001694A1C02610878704700B5F2
:1028A0008FB0CDE901310021059105497944CDE989
:1028B000031011466846FFF7A9FA0FB000BD0000EB
:1028C000E5FFFFFF10B5436913B1AFF3008001E0EE
:1028D000FFF714FC012010BD128800F1240182844E
:1028E0000022C2840122EDE711684FF0FF32E9E7D0
:1028F00070B516460C46054600F040F8036893F89C
:102900000101012806D0FF2C0FD8185D68B1012005
:102910002C7070BDD3F807013246214603F207132D
:1029200003442846BDE8704018474FF0FF3070BDA3
:10293000754600F0EBF8AE4605006946534620F0B8
:102940000700854618B020B5FDF774FEBDE82040AD
:102950004FF000064FF000074FF000084FF0000B5B
:1029600021F00701AC46ACE8C009ACE8C009ACE80E
:10297000C009ACE8C0098D467047000010B500F0F2
:1029800005F8001D10BD00BF090A0000004870478F
:10299000E40200202DE9F0411F46044603260168A9
:1029A000072A01F4006004DB08B116A505E016A5AE
:1029B00003E008B115A500E015A521F01000206086
:1029C000A069C01EA0610FB1401EA0612046FFF7A4
:1029D000E4FA4FB1D4E9012138469047206A401CFF
:1029E0002062C01C206206E0206AFAE7D4E90121D7
:1029F00015F8010B9047761EF8D22046FFF7E3FA50
:102A0000BDE8F0814E414E006E616E00494E4600B9
:102A1000696E66002DE9F047814616468AB0354852
:102A200078440DC88DE80D0032487844801C03AC12
:102A30000DC884E80D0041F69B300844372190FB17
:102A4000F1F290FBF1F5A5F1800501FB12041B3CAE
:102A500002D56442012000E00020DFF898A0804603
:102A60000027FA44AAF1BE0A0EE0E0070AD0324677
:102A7000684607EB470101230AEB810100F01BFBCD
:102A80008DE8070064107F1C002CEED1194F7F44A5
:102A9000AE3F19E0E80715D007EB04100DF1180A56
:102AA00090E80E008AE80E00C068F04201D1981943
:102AB00008903246012306A903A800F0FCFA03ABF4
:102AC00083E807006D10641C002DE3D14FF0010373
:102AD00032466946B8F1000F03A802D000F0D6FADA
:102AE00001E000F0E8FAC9E90001C9F808200AB0DD
:102AF000BDE8F087F40C000010B50446AFF3008089
:102B00002046BDE81040FDF7DEBB000000487047DE
:102B1000C40200204FF0013C50F8042B51F8043B54
:102B20009A4221D1A2EB0C03934313EACC1317D1A1
:102B300050F8042B51F8043B9A4215D1A2EB0C0338
:102B4000934313EACC130BD150F8042B51F8043BF8
:102B50009A4209D1A2EB0C03934313EACC13DBD0C6
:102B60004FF00000704700BFD01A01BAB1FA81F1EE
:102B700001F0180122FA01F0CB40C1F12001DBB2D3
:102B8000C0B2C01A2CFA01F3D11A914311EAC31151
:102B9000E6D170475FEA400C08BF91F0000F4FEAA2
:102BA0008C234FEAC12243EA51514FEA1C5018BF0F
:102BB00000F5F0404FEA300018BF41F000415FEAF5
:102BC0006C5C00F02980BCF1FF3F08BF40F0804002
:102BD0007047130C06BF12044FF0100C4FF0000C9E
:102BE000130E04BF12020CF1080C130F04BF1201E4
:102BF0000CF1040C930F04BF92000CF1020CD30FE4
:102C000004BF52000CF1010C11464FF00002A0F17C
:102C10001F00A0EB0C00704711F0004F08BF704779
:102C200031F000413FF4D5AF0B0C06BF09044FF063
:102C3000100C4FF0000C0B0E04BF09020CF1080C35
:102C40000B0F04BF09010CF1040C8B0F04BF8900AA
:102C50000CF1020CCB0F04BF49000CF1010CCCF1BC
:102C60002003A0EB0C0022FA03F302FA0CF241EA73
:102C7000030100F10100704720F07F4C80EA03005F
:102C800023F07F47ACEB070303F57C5300F00040D3
:102C900003F1FF032DE980494FEA154B09B44FEAD0
:102CA000144325EA0B4E24EA03480FF2042606EBF0
:102CB000132749083E785FEA320203FB0667C7F52F
:102CC000000707FB06F64FEA54374FEAD64606F1EF
:102CD000020607FB066CCCF1005C4FEA1C472CEAAD
:102CE000074C07FB06F40CFB06F504EB15464FEA10
:102CF000961634BF00204FF000404FEAD13706FB54
:102D000007FC4FEA1C4C0CFB0BF7D21B03FB0CF728
:102D100061EB07010CFB0EF7B0EB074072EB1742BB
:102D20000CFB08F734BFA2EB0742B2EB074261EBA2
:102D300017414FEA0C444FEA910706FB07FC4FEAA4
:102D40001C4C0CFB0BF7B0EBC74072EB573203FB8C
:102D50000CF734BFA2EBC742B2EBC74261EB57316D
:102D60000CFB0EF7B0EBC70072EB57720CFB08F7C9
:102D700034BFA2EBC702B2EBC70261EB5771039FEE
:102D80004FEA816141EA921104EBCC044FEAD1375A
:102D90004FEA826206FB07FC42EA90124FEA80602B
:102DA0004FEA1C4C0CFB0BF7D21B03FB0CF761EB3F
:102DB00007010CFB0EF7B0EB074072EB17420CFB60
:102DC00008F734BFA2EB0742B2EB074261EB1741B1
:102DD0004FEA8C554FEA910704EB9C2406FB07FC55
:102DE0004FEA1C4C0CFB0BF7B0EBC74072EB5732B1
:102DF00003FB0CF734BFA2EBC742B2EBC74261EB57
:102E000057310CFB0EF7B0EBC70072EB57720CFB9F
:102E100008F734BFA2EBC702B2EBC70261EB5771F0
:102E200015EB4C254FEA816141EA92114FEA82622B
:102E30004FEAD13742EA901206FB07FC44F1000446
:102E40004FEA80604FEA1C4C0CFB0BF7D21B03FBD4
:102E50000CF761EB07010CFB0EF7B0EB074072EBD0
:102E600017420CFB08F734BFA2EB0742B2EB074254
:102E700061EB174115EB1C154FEA813141EA924194
:102E80004FEA823242EA90424FEA80304FEA0C76B3
:102E900044F1000448EA03434EEA0B484FF0000EA9
:102EA000B2EB080C71EB030724BF624639464EEBC8
:102EB0000E0E4FF0000B0018524149414BEB0B0B2B
:102EC000B2EB080C71EB03077BF1000B24BF6246E9
:102ED00039464EEB0E0E4FF0000B0018524149419F
:102EE0004BEB0B0BB2EB080C71EB03077BF1000B08
:102EF00024BF624639464EEB0E0E51EA020718BF58
:102F000046F0010616EB0E7655F1000254F1000171
:102F100003D5BDE88901BDE80088BDE88901BDE8A9
:102F20000048B619524141EB0101A3F1010370477A
:102F300080807F7E7D7C7B7A7978777676757473F6
:102F4000727171706F6E6E6D6C6C6B6A6A696868B5
:102F5000676666656464636362616160605F5F5E4B
:102F60005E5D5D5C5C5B5B5A5A59595858575756C1
:102F70005655555554545353525252515150505026
:102F80004F4F4F4E4E4D4D4D4C4C4C4B4B4B4A4A78
:102F90004A494949484848474747474646464545BC
:102FA00045444444444343434342424242414141F5
:102FB000002B9C4630D477002BD01CB54FEA370746
:102FC00003B44FF010004FF01001BAF1000F06D01B
:102FD000BCF1000FDCBF40F0080040F008014FF0EA
:102FE00000000FBCBDE810400BF1010BBBF1010F5D
:102FF00008BF5FEA170722BF12F1010211F10101B8
:103000004FF0004143F1000300F0004043EA0000AC
:103010007047F9D35708D0E746EA064613F1400F48
:103020004FEA16461FDD13F1200FDFBF16430A4695
:10303000002120335B42BED0C3F1200746EA06469A
:1030400002FA07F74FEA164646EA0706C3F12007D9
:1030500022FA03F201FA07F721FA03F14FF0000315
:1030600042EA0702A7E746EA020646EA06464FEAB0
:10307000164646EA0106BCBF46EA0646360C4FF045
:1030800000034FF000024FF0000194E72DE9804C5F
:103090009A46934670B491E8380007C831EA400C6C
:1030A00048BF34EA430C03D5FFF7E6FDFFF780FF86
:1030B000F0BCBDE8008C2DE9804C9A46934670B474
:1030C00091E8380007C810F0804F08BF13F0804F18
:1030D00003D100F005F8FFF76BFFF0BCBDE8008CF2
:1030E00020F07F4780EA030023F07F4C07EB0C03BE
:1030F000A3F57C5300F00040A3F1FE0392F0000F13
:1031000000F0B38095F0000F00F077802DE90149C1
:103110004FEA11404FEA144621EA004800FB06FC42
:1031200024EA064708FB06F607FB08F800FB07F74A
:1031300018EB06484CEB164C4FEA124B18EB0748BD
:103140004FEA15464CEB174022EA0B4E0BFB06FCF0
:1031500025EA06470EFB06F607FB0EFE0BFB07F7FC
:103160001EEB064E4CEB164C4FF000061EEB074EC6
:103170004CEB174B18EB0B0840F1000018EB0E0B53
:1031800058EB000840F100008F1A4FF000013CBFDF
:10319000C943661B14BFB5EB040C00213CBFC943F7
:1031A000F61B4FEA17444EEA8E0E27EA04454FEA13
:1031B0001C4704FB07622CEA074C05FB07F70CFBD6
:1031C00005F604FB0CFC16EB074642EB174216EB28
:1031D0000C4642EB1C421BEB060658EB0202414137
:1031E00046EA9E0601D5BDE80189B619524141EB78
:1031F0000101A3F10103BDE801894FEA14454FEA3B
:10320000114724EA054621EA074C05FB07F406FBB3
:1032100007F70CFB06F105FB0CFC11EB074144EB37
:1032200017444FEA124711EB0C4144EB1C4422EACD
:10323000074C05FB07F206FB07F70CFB06F605FB40
:103240000CFC16EB074642EB174216EB0C4642EB22
:103250001C456A1854F1000148BF7047B619524125
:1032600041EB0101A3F10103704795F0000F37D046
:103270004FEA11424FEA144721EA024624EA074C7A
:1032800002FB07F106FB07F70CFB06F402FB0CFC44
:1032900014EB074441EB17414FEA154714EB0C447C
:1032A00041EB1C4125EA074C02FB07F506FB07F73B
:1032B0000CFB06F602FB0CFC16EB074645EB17452C
:1032C00016EB0C4645EB1C42121951F1000148BFA8
:1032D0007047B619524141EB0101A3F10103704758
:1032E0004FEA14454FEA114724EA054621EA074C04
:1032F00005FB07F106FB07F70CFB06F24FF0000693
:1033000005FB0CFC12EB074241EB174112EB0C42A0
:1033100051EB1C4148BF7047921841EB0101A3F1EA
:103320000103704703B401984100009850EAC1209E
:1033300018BF04204A0D18BF40F0010040F2FF7290
:10334000B2EB515F08BF40F00200012808BF052022
:1033500002B0704730380A2801D20120704700209F
:103360007047000010B500290AD00878002807D05F
:1033700005487844FFF7CEFB002801D0002010BD9F
:103380000248784410BD0000DE030000D6030000B0
:1033900010B500290AD00878002807D005487844DD
:1033A000FFF7B8FB002801D0002010BD0248784488
:1033B00010BD0000CE030000C603000021F0004253
:1033C000A2F16052B2F5801F01F0004328BFD2F194
:1033D0007F6C0BD95FEA001C43EAC20242EB5070DB
:1033E00018BF704728BF20F001007047B2F5801F5A
:1033F000BCBF184670474FEA410C1CF5001F02D2B3
:10340000084600F022B970B500F0C6F80000008947
:10341000FFF7F6BF4FF00040A0F580007047B0FA0C
:1034200080F310FA03F10AD0C3F11D0303F58063A2
:103430004FEA41504FEA035202EBD12170474FF05F
:1034400000007047DFF848C170B51CEA111E1EBFAE
:103450001CEA13159EEA0C0F95EA0C0F00F06F8022
:1034600081EA030423EA4C134EEAD47E21EA4C118C
:1034700041F4801143F48013AE44A1FB024CA0FB45
:103480000365AEF17F7E361955EB0C05A1FB034CAD
:103490004CF10003A0FB021C16EB0C06654153F136
:1034A0000003094218BF46F0010613F4007F0BD158
:1034B0004FEA03314FEA0530340341EA155140EA3F
:1034C00016506FF003020AE04FEAC3214FEAC5200D
:1034D000F40241EA555140EA56506FF0020202EB05
:1034E0002E4201EB025585EACE710AD05FEA440C08
:1034F00018BF24F0004450F1000041F1000120EA1F
:10350000D47040F2FE7C624500D270BDA84214BF68
:103510004FF080444FF04044002E08BF0024BEF11D
:10352000806FA8BFA1F1C041BDE8704080F28280E9
:103530004FF0000001F1C04101F0004170479EEAE8
:103540000C0F0CEA131518BF95EA0C0F06D04FF0BC
:10355000000081EA030E0EF0004170BD00F01CF87F
:103560008900013E00F007B800F009B84FEA430CAB
:103570005FEA5C5C08D081EA030100F05BB84FEAC7
:10358000410C5FEA5C5CF6D14FF0000001497047E6
:103590000000FF070000F87F0EF1020E2EF0030E70
:1035A0005EF8046B364205D4012A43EB030515F59A
:1035B000001F12D8012841EB010C1CF5001F0CD88C
:1035C0000ED14FEAD17C15F5001F0CEB4C0C0CF121
:1035D000020C08BF4CEBD37C04E04FF0080C01E078
:1035E0004FEAD37C0CEB4C0526FA05F606F00706ED
:1035F000B6F1040C06D20EEB860CBDE870404CF020
:10360000010C6047DFE80CF0090B02024FF00041AB
:103610004FF00000A1F5002170BD194610460128A9
:1036200051EB010418BFD4F5001484BF002001F051
:10363000004170BD0808A0F500114FEA3101704744
:103640004FF04070E1EE100A7047FF2141EAD05080
:10365000C0057047FEF7E7BF040000080000000047
:103660000000000200010000100000000000000047
:1036700000000000303132333435363738394142BA
:1036800043444546403058003031323334353637C4
:10369000383961626364656640307800024000003A
:1036A000000000A00000000005400000000000C86D
:1036B000000000000C4000000000409C00000000E2
:1036C000194000000020BCBE000000003440000093
:1036D000BFC91B8E00000004B5400000504BCFD086
:1036E0006607E2CF010000006C4100003E8251AA53
:1036F000DFEEA73401000000D9420000DCB5A0E2F3
:103700003A301F97FFFFFFFFB4450000FD25A0C81A
:10371000E9A3C14FFFFFFFFFFF3F00000000008053
:1037200000000000FF3F00000000008000000000DB
:103730007C38000800000020FC000000C4010008E4
:1037400078390008FC0000202C080000E001000887
:103750001C00000043000000F8FFFFFF0C00000009
:103760000E0000000F0000002E00000010010000FD
:1037700043000000F8FFFFFF004040404040404051
:103780004040414141414140404040404040404034
:1037900040404040404040404005020202020202D8
:1037A0000202020202020202022020202020202027
:1037B000202020020202020202029090909090903B
:1037C00010101010101010101010101010101010F9
:1037D000101010100202020202028888888888886D
:1037E0000808080808080808080808080808080859
:1037F0000808080802020202400000000000000061
:1038000000000000000000000000000000000000B8
:1038100000000000000000000000000000000000A8
:103820000000000000000000000000000000000098
:103830000000000000000000000000000000000088
:103840000000000000000000000000000000000078
:103850000000000000000000000000000000000068
:103860000000000000000000000000000000000058
:10387000000000000000000000000000007A030AC1
:103880000000000000000000010203040607080910
:103890000000000000000102030401020304060707
:1038A00008090000617070000000000000000000C6
:1038B0000000000000000000000000001DCEA84431
:1038C000FA92A244BC4C9C444AFC95443DA28F44CD
:1038D000963F8944B4D4824433C3784487CE6B4442
:1038E00064CB5E4473B851440A974444E966374454
:1038F000DB292A445CDF1C447D870F4444230244B7
:103900004861E943985ECE43FE14B3437B6497431A
:103910001F859F40D7A3A040CBA1A1408D97A24077
:10392000BC74A340BA49A440B81EA540F2D2A54039
:103930005C8FA640295CA7406210A840CDCCA8406F
:10394000A470A940AC1CAA40B4C8AA408B6CAB4080
:10395000C520AC402FDDAC40F0A7AE404C37B140A5
:103960004C37B1400000000000000000A55AA55AE5
:0839700000000000000000004F
:040000050800018965
:00000001FF
