:020000040800F2
:10000000600E0020C509000891050008930500084E
:10001000970500089B0500089F05000800000000E8
:10002000000000000000000000000000A305000820
:10003000A505000800000000A7050008A9050008A4
:10004000DF090008DF090008DF090008DF090008F0
:10005000DF090008DF090008DF090008DF090008E0
:10006000AD380008DF090008DF090008DF090008D3
:10007000DF090008DF090008DF090008DF090008C0
:10008000DF090008DF090008DF090008DF090008B0
:10009000DF090008DF090008DF090008DF090008A0
:1000A000DF090008DF090008DF090008DF09000890
:1000B000DF090008A92F0008DF090008DF09000890
:1000C000DF090008DF090008DF090008DF09000870
:1000D000DF09000861080008DF090008DF090008DF
:1000E000DF090008DF090008DF090008DF09000850
:1000F000DF090008DF090008DF090008DF09000840
:10010000DF090008DF090008CF370008DF09000811
:10011000DF090008DF090008DF090008DF0900081F
:10012000DF090008DF090008DF090008DF0900080F
:10013000DF090008DF090008DF090008DF090008FF
:10014000DF090008DF090008DF090008DF090008EF
:10015000DF090008DF090008DF090008DF090008DF
:10016000DF090008DF090008DF090008DF090008CF
:10017000DF090008DF090008DF090008DF090008BF
:10018000DF090008DF09000800F002F800F0B2F80B
:100190000AA090E8000C82448344AAF10107DA45E2
:1001A00001D100F0A7F8AFF2090EBAE80F0013F082
:1001B000010F18BFFB1A43F001031847245C00002D
:1001C000445C00000A444FF0000C10F8013B13F0AF
:1001D000070408BF10F8014B1D1108BF10F8015BA0
:1001E000641E05D010F8016B641E01F8016BF9D193
:1001F00013F0080F1EBF10F8014BAD1C0C1B09D1EA
:100200006D1E58BF01F801CBFAD505E014F8016B5B
:1002100001F8016B6D1EF9D59142D6D370470000ED
:100220000023002400250026103A28BF78C1FBD8FF
:10023000520728BF30C148BF0B6070476E2903F0DA
:100240002387702903F04585662905F04F816529CC
:1002500005F04C81672905F049816129AFF30080E1
:1002600003681B0A28BF41F08001692903F0B684A6
:10027000642903F0B384752903F0B0846F2904F076
:100280001B80782903F01185E92903F0B587E4295B
:1002900003F0B287F52903F0AF87EF2904F0188047
:1002A000F82903F010850368DB0928BF41F08001BD
:1002B000632903F02487732903F02987E32904F0D5
:1002C0006D82F32904F07282002070471FB505F09B
:1002D00003F904F0BDFA04000020002104F0A4FF9B
:1002E000401C60600020002104F088FFE0601FBD1A
:1002F00010B510BD04F07EFA1146FFF7E7FF00F0DD
:1003000009F804F057FB03B4FFF7F2FF03BC02F057
:10031000C1FB00002DED028B84B09FED7E0AB0EE94
:10032000408A00200390029000BF00BFA82000F088
:10033000C7FA4FF4165000F041FA02F099F94FF461
:10034000A06000F05FFB42F2CF0141F2873002F083
:10035000FFFD03F0CBF953214FF0FF3003F0E1F93B
:1003600003F0CDFA02F00AFF002003F047F96AA279
:100370000021084603F073F969A20021462003F02A
:100380006EF968A20221002003F069F964A202213B
:100390001E2003F064F965A20221462003F05FF9F4
:1003A0005FA20221642003F05AF9B1E061480068BD
:1003B00003284AD102F063F9B0EE408ABDEEC80AC4
:1003C00010EE104A00EE104A10EE100AC11700EBB2
:1003D00011710911A0EB0111029100EE104A10EE0B
:1003E000100AC11700EB1171091103910A2094FB47
:1003F000F0F994FBF0F100FB114A4A464EA14F4838
:1004000003F0ACFB52464CA14D4803F0A7FB4B4A0E
:100410000021462003F023F9494A0021502003F02F
:100420001EF9002240F22551464801F0C2F946A0CB
:10043000DDE9022103F086FB00203E49086001222D
:1004400040F225513F4801F0B4F9642000F09AFAD7
:10045000012043490860192000F04CFA002041496E
:10046000C1F898024048007800F0800000284FD082
:100470003D48007800F03F004FEAE07807464FF033
:10048000FF3100203A46A2FB01CB08FB01B107FB7C
:1004900000186746354800683F1848F100084FF4D7
:1004A000AA7200203946A1FB02CB08FB02B207FB6F
:1004B000002044F620620023CDE900C06046019987
:1004C00003F015FB05460E460A23E81A76F10001F3
:1004D00015DA002240F225511A4801F06AF9244841
:1004E000006820B903F0E2FA01202149086021A246
:1004F00002211E2003F0B3F81FA003F023FB00200D
:1005000019490870012240F225510E4801F051F9B5
:100510004CE700000000000054656D3A0000000048
:10052000300000004469733A0000000057696E3AD9
:10053000000000009400002025640000000000205E
:10054000050000200010014041542B4E4D47533D03
:10055000332C30303030255825580D0A0D0A000054
:100560009882404200804042D8060020DC060020ED
:100570000C0000203100000041542B4E4D47533DEC
:10058000332C3030303130300D0A0D0A00000000BD
:10059000704700BFFEE700BFFEE700BFFEE700BFF9
:1005A000FEE7704770477047704700000CB50020A9
:1005B000019000907648006840F4803074490860EB
:1005C00000BF7348006800F4003000900198401CA0
:1005D0000190009818B90198B0F5A04FF1D16C487E
:1005E000006800F4003010B10120009001E000200C
:1005F00000900098012846D165484030006840F0DE
:1006000080506349403108606248006840F44040CF
:10061000604908605E48083000685D49083108603C
:100620000846006840F4004008600846006840F44E
:10063000A05008605848091F0860081F006840F073
:100640008070091F086000BF5148006800F000700A
:100650000028F9D040F20570504908604C48083035
:10066000006820F003004A49083108600846006825
:1006700040F00200086000BF45480830006800F004
:100680000C000828F8D10CBD10B54548006840F4AE
:100690007000434908603E48006840F001003C4952
:1006A000086000203A4908310860394800683D492F
:1006B0000840374908603C48091D0860081F006869
:1006C00020F48020091F0860002031490C310860A7
:1006D000FFF76CFF4FF0006031498039086010BDB2
:1006E00070B500200022022300240221284D083585
:1006F0002D6805F00C0020B1042806D0082834D15C
:1007000007E02A4D2A4E356033E02A4D284E3560E9
:100710002FE01F4D2D1D2D68C5F380541C4D2D1D40
:100720002D6805F03F0154B1224DB5FBF1F5184E8F
:10073000361D3668C6F3881605FB06F209E01B4D28
:10074000B5FBF1F5124E361D3668C6F3881605FB6B
:1007500006F20F4D2D1D2D68C5F301456D1C6B0074
:10076000B2FBF3F5124E356003E0104D104E3560CC
:1007700000BF00BF064D08352D68C5F303150E4EAA
:10078000705D0B4D2D68C540094E356070BD000091
:10079000003802400070004008544007003C02400E
:1007A00088ED00E0FFFFF6FE103000240024F40086
:1007B0001000002000127A001400002010B588B04C
:1007C00004460121084600F0B1FC0121102000F090
:1007D00007FD07220921374800F095FA07220A2170
:1007E000344800F090FA4FF4C060069002208DF873
:1007F0001C008DF81D0000208DF81E0001208DF8D2
:100800001F0006A92B4800F0F3F902940020ADF870
:100810000C00ADF80E00ADF81000ADF814000C207F
:10082000ADF8120002A9244800F085FE01212248FB
:1008300000F009FF012240F225511F4800F0B9FFE6
:1008400025208DF8040003208DF805008DF80600A2
:1008500001208DF8070001A800F0D9F808B010BDFC
:1008600010B540F22551144800F0DEFF012820D1D8
:10087000114800F017FFC4B200BF40210E4800F03D
:10088000BDFF0028F9D0392C07D10C48006808B901
:10089000012000E0002009490860382C09D10748F0
:1008A000001D006808B9012000E000200349091D6F
:1008B000086010BD0000024000100140B402434235
:1008C00010B504466FF0040000F0EEF8E11704EBF9
:1008D0005171C1F3C701394A11701046007800EB1D
:1008E0004001C1EBC0104FF6FF7101EAC00034496E
:1008F000088010BD0146314A12784A434FF0E02388
:100900005A6100229A611A46126942F001021A6184
:1009100000BF4FF0E022106900F001021AB100F4AC
:100920008032002AF5D04FF0E022126922F0010255
:100930004FF0E0231A6100229A6170470146204A75
:1009400012884A434FF0E0235A6100229A611A4606
:10095000126942F001021A6100BF4FF0E0221069F3
:1009600000F001021AB100F48032002AF5D04FF0F5
:10097000E022126922F001024FF0E0231A61002206
:100980009A61704770B504464FF4077094FBF0F01D
:10099000C6B24FF4077094FBF0F100FB114085B232
:1009A00005E04FF40770FFF7C9FF701EC6B2002EB6
:1009B000F7D115B12846FFF7C1FF70BD2400002014
:1009C000260000200948804709480047FEE7FEE767
:1009D000FEE7FEE7FEE7FEE7FEE7FEE7FEE7FEE7EF
:1009E00004480549054A064B70470000890600087F
:1009F0008901000860080020600E0020600A0020C5
:100A0000600A002032490143324A1160704770B5D4
:100A1000002100230F22C4781CB32E4C246804F458
:100A2000E064C4F5E064C4F30721C1F10404E3B257
:100A30000A4144789C40E1B28478144021430C0779
:100A4000210E254C05786155047804F01F0501241A
:100A5000AC4005786D11AD0005F1E025C5F8004109
:100A600009E0047804F01F050124AC401B4D067812
:100A7000761145F8264070BD194A0A400243154BCD
:100A80001B1F1A60704739B1124A121D12680243C7
:100A9000104B1B1D1A6006E00E4A121D126882439D
:100AA0000C4B1B1D1A607047042808D14FF0E02141
:100AB000096941F004014FF0E022116107E04FF0B5
:100AC000E021096921F004014FF0E0221161704733
:100AD0000000FA050CED00E000E400E080E100E039
:100AE00080FFFF1F10B504469848844208D10121B9
:100AF000084600F086FB0021012000F082FB76E032
:100B00009348844208D10121022000F07AFB0021A1
:100B1000022000F076FB6AE08E48844208D1012171
:100B2000042000F06EFB0021042000F06AFB5EE070
:100B30008948844208D10121082000F062FB00218D
:100B4000082000F05EFB52E08448844208D1012175
:100B5000102000F056FB0021102000F052FB46E070
:100B60007F48844208D10121202000F04AFB002167
:100B7000202000F046FB3AE07A48844208D1012167
:100B8000402000F03EFB0021402000F03AFB2EE028
:100B90007548844208D10121802000F032FB0021F9
:100BA000802000F02EFB22E07048844208D1012111
:100BB000801500F026FB0021A01500F022FB16E0B6
:100BC0006B48844208D10121401500F01AFB002136
:100BD000601500F016FB0AE06648844207D1012147
:100BE000001500F00EFB0021201500F00AFB10BDDF
:100BF000F0B50A4600210023002400BF3DE0012596
:100C000005FA01F3156805EA03049C4234D105682E
:100C10004F000326BE40B543056015794E00B54030
:100C20000668354305601579012D02D01579022D2E
:100C300016D185684F000326BE40B54385605579BF
:100C40004E00B540866835438560456801268E4074
:100C5000B5434560456896798E40B6B235434560E8
:100C6000C5684F000326BE40B543C560D5794E0028
:100C7000B540C6683543C560491C1029BFD3F0BDD7
:100C80004FF6FF7101600021017141718171C171E5
:100C9000704708B54FF480320092009A0A430092E0
:100CA000009AC261C161009AC261C2690092C269C0
:100CB000009208BD0246002013690B400BB10120D1
:100CC00000E0002070470146086980B27047024684
:100CD000002053690B400BB1012000E00020704759
:100CE0000146486980B2704701837047418370476D
:100CF0000AB1018300E04183704741617047426956
:100D00004A4042617047F0B5002300244D07ED0EC4
:100D100002FA05F3CE1000F1200555F826504E07D3
:100D2000F70E0F26BE40B543CF1000F1200646F85F
:100D30002750CE1000F1200555F8265045EA03044F
:100D4000CE1000F1200545F82640F0BD000002401D
:100D50000004024000080240000C02400010024063
:100D60000014024000180240001C02400020024013
:100D70000024024000280240F948006840F00100C9
:100D8000F74908600020F64908310860F448006817
:100D9000F4490840F2490860F348091D0860F34827
:100DA000EF4984310860F0481038091D0860EC48AC
:100DB000006820F48020EA4908600020E8490C31EE
:100DC0000860E7498C31086070470021E44A921CB2
:100DD000117011460870704710B5014600220023BB
:100DE00000204A11012A02D1DD4C236808E0022AC2
:100DF00003D1DB4C7034236802E0D94C743423688F
:100E000001F01F02012494401C400CB1012000E0BD
:100E1000002010BD38B5002000900024002500BF40
:100E20003120FFF7D9FF05460098401C009000983C
:100E3000B0F5A04F01D0002DF2D03120FFF7CCFF4C
:100E400008B1012400E00024204638BD01460020FE
:100E5000C34A106820F0F80040EAC10010607047F3
:100E6000C349086070470021BD4A7032117011708B
:100E7000012802D004280AD104E00121B84A7032C6
:100E8000117005E00521B64A7032117000E000BF14
:100E900000BF7047B7490860704770B5049C41EACD
:100EA00082150126C6EB530645EA0645054345EA89
:100EB0000465AB4E361D356070BDAD4908667047A0
:100EC000820142EA0172A64B84331A607047A84936
:100ED0008866704710B5830143EA016343EA0273F1
:100EE0009F4C8834236010BDA14908677047A04912
:100EF000C864704702460020994B0833186820F0F8
:100F0000EC6042EA01031843954B083318607047C0
:100F100002460020924B0833186820F0784042EADD
:100F2000010318438E4B08331860704701460020B8
:100F30008B4A0832106820F00300084310607047A5
:100F400087480830006800F00C0070470146002018
:100F5000834A0832106820F0F000084310607047A0
:100F6000014600207E4A0832106820F4E050084311
:100F70001060704701460020794A0832106820F45A
:100F8000604040EAC10010607047F0B500210022C7
:100F90000024022500260223714F08373F6807F01E
:100FA0000C0121B1042905D0082937D105E0724F81
:100FB000076036E0714F076033E0694F3F1D3F68BF
:100FC000C7F38056664F3F1D3F6807F03F036EB181
:100FD0006A4FB7FBF3F7DFF888C10CF1040CDCF8BB
:100FE00000C0CCF3881C07FB0CF40CE0624FB7FB8D
:100FF000F3F7DFF86CC10CF1040CDCF800C0CCF3A3
:10100000881C07FB0CF4564F3F1D3F68C7F3014790
:101010007F1C7D00B4FBF5F7076002E0564F0760C8
:1010200000BF00BF4E4F08373F6807F0F0010909C5
:10103000534F7A5C0768D7404760494F08373F688D
:1010400007F4E051890A4E4F7A5C4768D7408760C1
:10105000434F08373F6807F46041490B484F7A5CBB
:101060004768D740C760F0BD002100F44072B2F578
:10107000407F0AD13A4A0832116821F4F811414AF6
:1010800002401143364A08321160354A7032126804
:10109000C0F30B031A43324B70331A607047354963
:1010A0004439086070473349403908607047364911
:1010B0000860704701460020294A8C32106820F0F1
:1010C0001F004A1E1043264A8C32106070470146AA
:1010D0000020234A8C32106820F4F8504A1E40EA5F
:1010E00002201F4A8C3210607047014600201C4AC3
:1010F0008C32106820F4401008431060704701469D
:101100000020174A8C32106820F440000843106019
:10111000704701460020124A8C32106820F440309B
:1011200008431060704719490860704739B10C4A8C
:101130003032126802430A4B30331A6006E0084A24
:10114000303212688243064B30331A607047F9B16F
:10115000034A343212680243014B34331A601CE0F4
:1011600000380240FFFFF6EA103000240030002073
:1011700000004742800E47420024F40000127A002B
:1011800028000020FFFCFF0F5C014742E0114742AE
:101190008F4A126882438E4B1A60704739B18C4A6D
:1011A000121D126802438A4B1B1D1A6006E0884A12
:1011B000121D12688243864B1B1D1A60704739B19D
:1011C000834A0C3212680243814B0C331A6006E0EA
:1011D0007F4A0C32126882437D4B0C331A60704791
:1011E00039B17B4A103212680243794B10331A60CE
:1011F00006E0774A103212688243754B10331A604A
:10120000704739B1724A243A12680243704B243B4A
:101210001A6006E06E4A243A126882436C4B243B03
:101220001A60704739B16A4A203A12680243684B23
:10123000203B1A6006E0664A203A12688243644BFB
:10124000203B1A60704739B1614A1C3A1268024368
:101250005F4B1C3B1A6006E05D4A1C3A12688243F1
:101260005B4B1C3B1A60704739B1594A143A1268FB
:101270000243574B143B1A6006E0554A143A126871
:101280008243534B143B1A60704739B1504A103AAD
:10129000126802434E4B103B1A6006E04C4A103A6B
:1012A000126882434A4B103B1A60704739B1484A72
:1012B0001C3212680243464B1C331A6006E0444A53
:1012C0001C3212688243424B1C331A60704739B19A
:1012D0003F4A2032126802433D4B20331A6006E039
:1012E0003B4A203212688243394B20331A607047E0
:1012F00039B1374A243212680243354B24331A601D
:1013000006E0334A243212688243314B24331A6098
:10131000704739B12E4A2C32126802432C4B2C33C1
:101320001A6006E02A4A2C3212688243284B2C337A
:101330001A60704739B1264A303212680243244B92
:1013400030331A6006E0224A303212688243204B62
:1013500030331A607047012808D11D493C310968B3
:1013600041F008011A4A3C32116007E018493C314B
:10137000096821F00801164A3C321160704739B102
:10138000134A273A12780243114B273B1A7006E0A2
:101390000F4A273A127882430D4B273B1A70704749
:1013A0000B484030006840F08070094940310860C7
:1013B000704701460020064A283A12680A400AB1DE
:1013C000012000E00020704701492639087070476D
:1013D0003438024010B501218803FFF756FF002181
:1013E0004FF48040FFF751FF10BD1C490860704763
:1013F0001B490862704730B500228B071C0F0F2372
:1014000003FA04F2154B08338C1053F8243093433D
:10141000124C08348D1044F8253023468C1053F8B4
:1014200024308C07240F00FA04F423430B4C0834B7
:101430008D1044F8253030BD0949DC310860704713
:10144000084908607047002004492031096801F408
:10145000807109B1012000E0002070470038014090
:10146000000027420004274210B50446FA4884428F
:1014700008D101211020FFF708FF00211020FFF7FD
:1014800004FF57E0F548844209D101214804FFF7E1
:10149000EBFE00214FF40030FFF7E6FE4AE0F04893
:1014A000844209D101218804FFF7DEFE00214FF4B8
:1014B0008020FFF7D9FE3DE0EA48844209D10121AE
:1014C000C804FFF7D1FE00214FF40020FFF7CCFE47
:1014D00030E0E548844209D101210805FFF7C4FE48
:1014E00000214FF48010FFF7BFFE23E0DF48844265
:1014F00008D101212020FFF7C8FE00212020FFF79E
:10150000C4FE17E0DA48844209D101218807FFF7B9
:10151000ABFE00214FF08040FFF7A6FE0AE0D54861
:10152000844207D101214005FFF79EFE002160059E
:10153000FFF79AFE10BD2DE9FF4705460E46002431
:10154000A14600BFA046B08900B100BF2C8A24F498
:101550004054F08804432C82AC8941F20C608443EF
:10156000B08831890843718908430443AC81AC8A4F
:1015700024F44074B0890443AC826846FFF705FD4B
:10158000B548854202D0B948854202D1DDF80C90B9
:1015900001E0DDF80890A88900F4004040B109EBB3
:1015A000C90000EB091031684900B0FBF1F707E012
:1015B00009EBC90000EB091031688900B0FBF1F7B5
:1015C0006420B7FBF0F004012009642101FB1078CE
:1015D000A88900F4004040B1322000EBC800B0FB05
:1015E000F1F000F00700044308E0322000EB08109F
:1015F0006421B0FBF1F000F00F0004432C81BDE842
:10160000FF874FF41651016000218180C180018164
:101610000C21418100218181704710B502460020D4
:10162000108A20F470600B884C8823438C882343F5
:10163000CC8823431843108210BD002101804180D3
:101640008180C180704721B1828942F40052828139
:1016500004E082894DF6FF731A4082817047028B45
:1016600002F47F420283028B0A430283704721B156
:10167000828942F40042828103E08289C2F30E0231
:101680008281704721B1828A42F40062828204E042
:10169000828A4FF2FF731A4082827047C1F30802B8
:1016A0008280704701468888C0F308007047028A2C
:1016B0004FF6F0731A400282028A0A430282704790
:1016C00021B1828942F00202828104E082894FF6D0
:1016D000FD731A408281704782894FF2FF731A406E
:1016E000828182890A4382817047028A4FF6DF73C2
:1016F0001A400282028A0A430282704721B1028A9A
:1017000042F48042028204E0028A4BF6FF731A40E0
:1017100002827047818941F001018181704721B1C6
:10172000828A42F00802828204E0828A4FF6F773CE
:101730001A4082827047028BD2B20283028B42EA45
:1017400001220283704721B1828A42F02002828204
:1017500004E0828A4FF6DF731A408282704721B11B
:10176000828A42F01002828204E0828A4FF6EF738E
:101770001A4082827047828A4FF6FB731A40828237
:10178000828A0A438282704721B1828A42F0020231
:10179000828204E0828A4FF6FD731A40828270478B
:1017A0001AB1838A0B43838202E0838A8B4383824C
:1017B0007047F0B50346002400260025002040F6BF
:1017C0006A17B94200D100BF1846C1F3421401F0B4
:1017D0001F06012707FA06F5012C01D10C3004E0A1
:1017E000022C01D1103000E014301AB107682F43E9
:1017F000076002E00768AF430760F0BD02460020C3
:10180000B1F5007F00D100BF13880B400BB1012060
:1018100000E00020704701F40072B2F5007F00D1B3
:1018200000BFCA430280704770B5024600240023FF
:101830000025002040F66A16B14200D100BFC1F376
:10184000421501F01F03012606FA03F3012D13D1FF
:101850009689334017E0000000100140004400402A
:1018600000480040004C004000500040001401407F
:1018700000780040007C0040022D02D1168A3340DF
:1018800001E0968A33400C12012606FA04F4168809
:10189000344013B10CB1012000E0002070BD10B540
:1018A0000022002340F66A14A14200D100BF0A12B0
:1018B00001249440A3B2DC43048010BD10B504465B
:1018C000FE48844208D101210846FFF7DEFC0021D2
:1018D0000120FFF7DAFC9DE0B4F1804F08D101212F
:1018E0000846FFF7C1FC00210120FFF7BDFC91E095
:1018F000F348844208D101210220FFF7B5FC002102
:101900000220FFF7B1FC85E0EE48844208D10121B6
:101910000420FFF7A9FC00210420FFF7A5FC79E0D3
:10192000E948844208D101210820FFF79DFC0021ED
:101930000820FFF799FC6DE0E448844208D10121BA
:101940001020FFF791FC00211020FFF78DFC61E0D3
:10195000DF48844208D101212020FFF785FC0021C7
:101960002020FFF781FC55E0DA48844208D10121AC
:101970000220FFF78AFC00210220FFF786FC49E0E5
:10198000D548844209D101210804FFF77EFC0021DB
:101990004FF48030FFF779FC3CE0D048844209D115
:1019A00001214804FFF771FC00214FF40030FFF7DC
:1019B0006CFC2FE0CA48844209D101218804FFF75A
:1019C00064FC00214FF48020FFF75FFC22E0C54853
:1019D000844208D101214020FFF746FC002140202D
:1019E000FFF742FC16E0C048844208D10121802064
:1019F000FFF73AFC00218020FFF736FC0AE0BB48E5
:101A0000844207D101218015FFF72EFC0021A0158B
:101A1000FFF72AFC10BD00220288A84B98420ED086
:101A2000AC4B98420BD0B0F1804F08D0A44B9842F9
:101A300005D0A44B984202D0A34B984204D14FF654
:101A40008F731A404B881A43A04B984207D0A04B83
:101A5000984204D04FF6FF431A400B891A43028084
:101A60004B68C3620B880385944B984202D0994B14
:101A7000984201D18B7A03860123838270474FF00D
:101A8000FF314160002101800181418081727047F6
:101A90000185828270470A46002101884FF68F73C4
:101AA000194011430180704741627047C16270471D
:101AB0000146486A70470146088D704721B1028887
:101AC00042F00202028004E002884FF6FD731A40E1
:101AD0000280704721B1028842F00402028004E0D3
:101AE00002884FF6FB731A400280704721B10288CA
:101AF00042F08002028004E002884FF67F731A40B1
:101B00000280704702884FF6F7731A4002800288FD
:101B10000A430280704702884FF6FF431A40028052
:101B200002880A430280704721B1028842F0010214
:101B3000028004E002884FF6FE731A40028070476C
:101B400070B5002400220023058C4FF6FE76354048
:101B50000584028C8388048B4FF68F752C40B51E4C
:101B60002C400D882C43751E2A408D892A434D88B0
:101B70002A43524DA84202D0564DA84213D14FF6E7
:101B8000F7752A40CD892A434FF6FB752A408D8888
:101B90002A434FF6FF652B404FF6FF552B400D8A29
:101BA0002B434D8A2B43838004838D6845630284D5
:101BB00070BD70B5002400220023058C4FF6EF762F
:101BC00035400584028C8388048B48F6FF752C40D1
:101BD0004FF6FF452C400D884FF6FF7606EA0525A7
:101BE0002C434FF6DF752A408D8906EA05152A43F6
:101BF0004D8806EA05152A43304DA84202D0354DDE
:101C0000A8421DD14FF67F752A40CD894FF6FF7649
:101C100006EA05152A434FF6BF752A408D8806EA65
:101C200005152A434FF6FF352B404FF2FF752B4029
:101C30000D8A06EA85052B434D8A06EA85052B4366
:101C4000838004838D688563028470BD70B5002431
:101C500000220023058C4FF6FF6635400584028C78
:101C60008388848B4FF68F752C404FF6FC752C4083
:101C70000D882C434FF6FF552A408D894FF6FF768D
:101C800006EA05252A434D8806EA05252A430B4D19
:101C9000A84202D00F4DA84238D14FF2FF752A401A
:101CA000CD894FF6FF7606EA05252A434FF6FF3524
:101CB0002A408D8806EA05252A4319E000000140E4
:101CC0000004004000080040000C004000100040EC
:101CD0000014004000040140004001400044014065
:101CE0000048014000180040001C00400020004057
:101CF0004EF6FF752B404DF6FF752B400D8A06EA18
:101D000005152B434D8A06EA05152B4383808483F2
:101D10008D68C563028470BD70B500220023002465
:101D2000058C4EF6FF7635400584038C8488828BC3
:101D300048F6FF752A404FF6FF452A400D884FF6BA
:101D4000FF7606EA05252A434DF6FF752B408D895F
:101D500006EA05352B434D8806EA05352B43FE4D33
:101D6000A84202D0FD4DA84208D14BF6FF752C4089
:101D70000D8A4FF6FF7606EA85152C438480828310
:101D80008D680564038470BD0021018041808180DD
:101D900081608181C18101824182704770B50346B3
:101DA000002000241846183001258D40ACB21D8C4F
:101DB000A5431D8409B108290AD100EB610005681B
:101DC0004FF68F76354005600568154305600FE0D6
:101DD0000D1FC5F34E052844056848F6FF763540CB
:101DE000056005684FF6FF7606EA02263543056072
:101DF00070BD4163704781637047C1637047016480
:101E000070470A460021018B4FF68F73194011432A
:101E1000018370470A460021018B48F6FF73194081
:101E20004FF6FF7303EA02231943018370470A4602
:101E30000021818B4FF68F731940114381837047C6
:101E40000A460021818B48F6FF7319404FF6FF7355
:101E500003EA02231943818370470A460021018B5C
:101E60004FF6F77319401143018370470A4600216A
:101E7000018B4FF2FF7319404FF6FF7303EA022301
:101E80001943018370470A460021818B4FF6F7738F
:101E900019401143818370470A460021818B4FF21C
:101EA000FF7319404FF6FF7303EA0223194381833E
:101EB00070470A460021018B4FF6FB73194011430E
:101EC000018370470A460021018B4FF6FF3319400A
:101ED0004FF6FF7303EA02231943018370470A4652
:101EE0000021818B4FF6FB731940114381837047AA
:101EF0000A460021818B4FF6FF3319404FF6FF73DE
:101F000003EA02231943818370470A460021018BAB
:101F10004FF67F7319401143018370470A46002131
:101F2000018BC1F30E014FF6FF7303EA022319433D
:101F3000018370470A460021818B4FF67F73194059
:101F40001143818370470A460021818BC1F30E0142
:101F50004FF6FF7303EA02231943818370470A4651
:101F60000021018C4FF6FD73194011430184704725
:101F70000A460021018C4FF6F77319401143018482
:101F800070470A460021018C4FF6DF7319404FF667
:101F9000FF7303EA02131943018470470A460021C4
:101FA000018C4FF67F7319404FF6FF7303EA02135B
:101FB0001943018470470A460021018C4FF6FF53F4
:101FC00019404FF6FF7303EA022319430184704757
:101FD0000A460021018C4FF2FF7319404FF6FF7340
:101FE00003EA02231943018470470A460021018C49
:101FF0004DF6FF7319404FF6FF7303EA023319439E
:102000000184704730B5002301248C40A3B2048CB6
:102010009C430484048C02FA01F5ADB22C43048481
:1020200030BD30B5002304248C40A3B2048C9C4303
:102030000484048C02FA01F5ADB22C43048430BD53
:10204000828B4FF2FF331A408283828B4FF6FF73ED
:1020500003EA01231A4382837047F0B50C46154604
:10206000002100220026078C4EF6FF7C07EA0C07B1
:102070000784818B028C4FF6FF7707EA043640F61F
:10208000FF4739404FF6FF7707EA052739434FF6F8
:10209000FF7707EA0337394345F6FF773A4046F4BE
:1020A00080573A4381830284F0BD828B4FF6F373ED
:1020B0001A408283828B0A4382837047F0B50C46B4
:1020C0001546002100220026078C4FF6FF6C07EA18
:1020D0000C070784818B028C4FF6FF7707EA0426F2
:1020E0004FF60C7739404FF6FF7707EA03172F4377
:1020F00039434FF2FF573A4046F480773A438183A1
:102100000284F0BD028B4FF2FF331A400283028B30
:102110004FF6FF7303EA01231A4302837047F0B5B9
:102120000C461546002100220026078C4FF6EF7C56
:1021300007EA0C070784018B028C4FF6FF7707EA4A
:10214000041640F6FF4739404FF6FF7707EA03379A
:1021500039434FF6FF7703E00000014000040140DF
:1021600007EA052739434FF65F773A4046F01007F4
:102170003A4301830284F0BD028B4FF6F3731A4099
:102180000283028B0A4302837047F0B50C46154662
:1021900000210022068C4FF6FE773E400684018B1C
:1021A000028C4FF60C7631407E1C06EA03162E4355
:1021B00031434FF6F576324044F001063243018355
:1021C0000284F0BD70B505460C46208850B92389BD
:1021D000A28861882846FFF7D8FFE1882846FFF7E4
:1021E000CBFF25E0208804280AD12389A2886188B2
:1021F0002846FFF794FFE1882846FFF783FF17E0A2
:10220000208808280AD12389A28861882846FFF7F8
:1022100055FFE1882846FFF748FF09E02389A28897
:1022200061882846FFF719FFE1882846FFF708FF75
:1022300070BD002101804180012181800021C18089
:10224000018170472DE9F04105460C460026012723
:10225000608808B9022600E00026A088012801D184
:10226000022700E001272088A0B92389A28861887D
:102270002846FFF78AFFE1882846FFF77DFF23897C
:102280003A4631462846FFF74AFFE1882846FFF7DD
:1022900039FF13E02389A28861882846FFF73FFFB2
:1022A000E1882846FFF72EFF23893A463146284623
:1022B000FFF76BFFE1882846FFF75EFFBDE8F0817E
:1022C0000146486B70470146886B70470146C86BF2
:1022D00070470146086C70470A884B881A438B8800
:1022E0001A43CB881A430B891A434B891A438B89AB
:1022F0001A43A0F84420704700210180418081806A
:10230000C180018141818181704731B1B0F84420A1
:1023100042F40042A0F8442005E0B0F84420C2F3A3
:102320000E02A0F84420704721B1828842F00402D6
:10233000828004E082884FF6FB731A4082807047E7
:1023400021B1828842F00102828004E082884FF647
:10235000FE731A40828070471AB183890B438381D0
:1023600002E083898B4383817047818270470246F4
:102370000020138A0B400BB1012000E000207047C1
:10238000CA430282704730B5024600200023002471
:10239000158A05EA0103958905EA010413B10CB118
:1023A000012000E0002030BDCA430282704741EAAC
:1023B0000203A0F8483070471AB183890B43838128
:1023C00002E083898B438381704721B1828842F088
:1023D0000802828004E082884FF6F7731A408280F8
:1023E000704701894FF6F8721140018170470A4623
:1023F000002101894FF68F73194011430181704705
:1024000030B504460D4629462046FFF7F0FF2089E7
:1024100040F00700208130BD2DE9F04104460D4613
:1024200016461F46602D06D13B4601223146204606
:10243000FFF775FE05E03B46012231462046FFF7D7
:10244000A4FE29462046FFF7D2FF208940F007006E
:102450002081BDE8F08130B50C4600210189C9B268
:102460004FF6FF7505EA03251543254329430181EE
:1024700030BD2DE9F04105460E461746984600242A
:1024800043463A4631462846FFF7E5FF2C894FF68A
:10249000F870044044F007044FF68F70044044F095
:1024A00070042C81BDE8F081F0B504460D46164657
:1024B0001F463B46324629462046FFF7CCFF20897F
:1024C00040F480402081F0BD82884FF68F731A401F
:1024D000828082880A438280704702894FF6F873AF
:1024E0001A40028102890A430281704702894FF62D
:1024F0007F731A40028102890A4302817047F0B556
:102500000C4615461E460021002200230189028B3D
:10251000038C4FF6F877394021434FF6FC473A4099
:1025200040F201173A434FF6DD773B404FF6FF7715
:1025300007EA06172F433B43018102830384F0BD62
:1025400021B1828842F08002828004E082884FF6C6
:102550007F731A4082807047A0F8501070470000C7
:10256000002041490860091D0860091D0860091D17
:1025700008603E483C4914310860704700213A49E0
:102580008279002A3AD00A46126803689A430B46B9
:102590001A600A1D126803689A430B1D1A600279BB
:1025A00011440A6803681A430A602F4A0832126805
:1025B00003689A432C4B08331A601A1D126803688B
:1025C0009A43294B0C331A604279102A0ED11A1FF4
:1025D000126803681A43244B08331A601A1D1268E4
:1025E00003681A43204B0C331A600DE01E494279F0
:1025F00011440A6803681A430A6005E0027911442D
:102600000A6803689A430A607047002101600171FB
:102610000C21417100218171704713491031096803
:102620000143114A103211607047014600200E4AE2
:10263000143212680A400AB1012000E000207047FD
:10264000094914310860704701460020064A1432D7
:1026500012680A400AB1012000E0002070470249D8
:102660001431086070470000003C0140FFFF7F000C
:1026700010B50B4800F074F800F03DF810BD10B52F
:10268000074800F090F8074880ED000A90ED000A36
:1026900000F032F8044880ED000A90ED000A10BD09
:1026A00048000020440000204000002000230622B3
:1026B0001DE098184110274800EB8100D0ED000A7A
:1026C000F4EEC00AF1EE10FA02D2481E02B20EE099
:1026D000204800EB8100D0ED000AF4EEC00AF1EED4
:1026E00010FA02DD481C03B201E0084670479A4226
:1026F000DFDA1046FAE7704710B52DED028BB0EE29
:10270000408A9FED150AF0EE408AB0EE480AFFF7C6
:10271000CDFF0446601CC0B1062C16D00D4800EB5E
:10272000840090ED000A30EE480A0C4800EB84006B
:1027300090ED001AC0EE010A04EB8400400000EEA8
:10274000100AB8EEC00A70EE808AB0EE680ABDECDE
:10275000028B10BD50000020000000006800002027
:1027600010B5044668202070002060700C20A07016
:102770000020E0708020207100F046FB10BD417009
:10278000704781707047C170704701717047014692
:10279000487870470146887870470146C878704786
:1027A00001460879704770B52DED068B82B005465D
:1027B000002600249FEDA10AB0EE408A80202871F7
:1027C0006878A9780843E9780843297940EA01063E
:1027D000A87830B1042843D008286ED00C283ED108
:1027E000BBE0642000902878022301AA314600F063
:1027F00060FB9DF8040040EA04249DF8050040EACF
:102800000424C4F30B04E00AC0B1E443C4F30B0195
:10281000481C02F050FD41EC1A0B9FED890B53EC64
:10282000102B02F05BFD41EC190B02F013FD08EEDA
:10283000100AB1EE480AB0EE408A10E0204602F0DD
:102840003AFD41EC1A0B9FED7E0B53EC102B02F07E
:1028500045FD41EC190B02F0FDFC08EE100ABFE04B
:10286000642000902878022301AA314600F021FB61
:102870009DF8040040EA04249DF8050040EA042481
:10288000C4F30D04600BC8B1E443C4F30D01481C4C
:1028900002F011FD41EC1A0B9FED6B0B53EC102B6A
:1028A00002F01CFD41EC190B02F0D4FC08EE100AFA
:1028B000B1EE480AB0EE408A11E011E0204602F085
:1028C000FAFC41EC1A0B9FED600B53EC102B02F05D
:1028D00005FD41EC190B02F0BDFC08EE100A7FE08B
:1028E000642000902878022301AA314600F0E1FA22
:1028F0009DF8040040EA04249DF8050040EA042401
:10290000A4B2E00BB8B1E443A1B2481C02F0D3FC7E
:1029100041EC1A0B9FED4E0B53EC102B02F0DEFC3A
:1029200041EC190B02F096FC08EE100AB1EE480AD1
:10293000B0EE408A10E0204602F0BDFC41EC1A0BDC
:102940009FED430B53EC102B02F0C8FC41EC190B2C
:1029500002F080FC08EE100A42E064200090287823
:10296000032301AA314600F0A4FA9DF8040040EACE
:1029700004249DF8050040EA04249DF8060040EA7E
:102980000424C4F31104600CC0B1E443C4F3110186
:10299000481C02F090FC41EC1A0B9FED2F0B53ECFE
:1029A000102B02F09BFC41EC190B02F053FC08EEDB
:1029B000100AB1EE480AB0EE408A10E0204602F05C
:1029C0007AFC41EC1A0B9FED240B53EC102B02F018
:1029D00085FC41EC190B02F03DFC08EE100A00BF2B
:1029E00000BF687830B101280BD0022810D003282E
:1029F0001CD114E0B7EE000AC8EE000AB0EE608AFF
:102A000014E0B0EE000AC8EE000AB0EE608A0DE0F5
:102A1000B1EE000AC8EE000AB0EE608A06E0B2EE3F
:102A2000000AC8EE000AB0EE608A00BF00BFB0EE38
:102A3000480A02B0BDEC068B70BD0000000000002B
:102A4000000000000000F03F000000000000D03F48
:102A5000000000000000B03F000000000000903FB8
:102A600000BF1A4A128802F04002002AF9D0C2B20E
:102A7000164B9A8070470146704701464FF0FF3071
:102A8000704710B5044612492046FFF7E9FF10BD14
:102A90000020704700BFFEE70FB438B504460D466E
:102AA000052C0FDC07A8009029460AA001F04AF87F
:102AB0000099069801F040F80020009007A001F06E
:102AC00041F800BF002038BC5DF814FB0010014045
:102AD000800000205B25735D3A0000000D0A0000B5
:102AE00010B504466FF00400FDF7DEFFE11704EBBC
:102AF0005171C1F3C701354A11701046007800EBDF
:102B00004001C1EBC0104FF6FF7101EAC00030492F
:102B1000088010BD70B505462E48007828B9A82059
:102B2000FFF7DEFF01202B49087028480078684332
:102B30004FF0E0214861002088610846006940F0BC
:102B40000100086100BF4FF0E020046904F00100BB
:102B500018B104F480300028F5D04FF0E02000696F
:102B600020F001004FF0E02108610020886170BD75
:102B700070B505461748007828B9A820FFF7B0FFC0
:102B80000120144908701248008868434FF0E02182
:102B90004861002088610846006940F00100086132
:102BA00000BF4FF0E020046904F0010018B104F404
:102BB00080300028F5D04FF0E020006920F00100BF
:102BC0004FF0E02108610020886170BD8C0000207A
:102BD0008E0000209000002010B5D948006820F435
:102BE0004000D74908600846006840F4800008604B
:102BF0000120D4490860D449C1F8B0020420FFF78D
:102C000089FF0020CF4908600420FFF783FF0020E0
:102C1000CD49C1F8B00210BD10B5C948006820F414
:102C20004000C74908600846006840F4800008601A
:102C30000020C449091D0860C349C1F8AC02042042
:102C4000FFF768FF0120BF49091D0860BE49C1F8B0
:102C5000AC020420FFF75EFF10BD70B50446B84813
:102C6000006820F44000B64908600846006840F457
:102C7000800008600020B349091D086000251EE09F
:102C800004F0800018B10120AE49086002E0002085
:102C9000AC4908606006040E0220FFF73BFF0120EC
:102CA000A849091D08600220FFF734FF0020A6494B
:102CB000C1F8B0020220FFF72DFF681CC5B2082D35
:102CC000DEDB70BD70B500249D48006820F4400034
:102CD0009B490860084600680860002517E000204E
:102CE0009849091D08600220FFF714FF012096494A
:102CF000C1F8B0026006040E92488038006808B13E
:102D0000601CC4B20120FFF705FF681CC5B2082D86
:102D1000E5DB204670BD10B58948006820F440000E
:102D200087490860084600680860012085490860F6
:102D3000FFF7F0FE01208449C1F8B002FFF7EAFE78
:102D400007E0601CC4B2FA2C03DDFFF765FF012029
:102D500010BD7C48803800680028F2D17949091DEF
:102D6000086000BFF4E710B500207649091D08602F
:102D70007348006820F44000714908600846006804
:102D800040F48000086000206F49C1F8AC020220C6
:102D9000FFF7C0FE01206B49091D08600220FFF704
:102DA000B9FE00206849C1F8B00210BD10B500207E
:102DB0006449091D08606248006820F440006049C9
:102DC00008600846006840F48000086001205E4901
:102DD000C1F8AC020220FFF79DFE01205949091DF0
:102DE00008600220FFF796FE00205749C1F8B002A4
:102DF00010BD10B5002304E00C780470401C491C81
:102E00005B1C9342F8D310BD1CB501210846FEF7A8
:102E10008DF94FF4C050009001208DF8040000207F
:102E20008DF8060003208DF8050001208DF80700BD
:102E300069464348FDF7DCFE1CBD2DE9F05F0746FF
:102E4000884691461C46DDF828A04FF0000B002074
:102E500040EA47003D490870084680F80180224654
:102E60004946801CFFF7C5FFA01C84B2FFF7B4FEE3
:102E7000002516E03549485DFFF7EFFE002603E028
:102E8000761C0520FFF746FEFFF745FF08B15645C3
:102E9000F6D3564503D3681C00F0FF0B03E0681C13
:102EA00085B2A542E6DB00BFFFF7B6FE5846BDE897
:102EB000F09F2DE9F0470546884616461F46DDF887
:102EC00020900024FFF788FE002141EA4501C8B2A6
:102ED000FFF7C3FEFFF71FFF20B1FFF79DFE0120A4
:102EE000BDE8F0874046FFF7B8FEFFF714FF18B1C2
:102EF000FFF792FE0120F3E7FFF76EFE012101EBE1
:102F00004501C8B2FFF7A9FEFFF705FF18B1FFF7AB
:102F100083FE0120E4E7781E87B206E0FFF7D2FEC9
:102F20003055FFF720FF601C84B2BC42F6DBFFF790
:102F3000C9FE3055FFF73AFFFFF76EFE0020CFE7DE
:102F400000000240AC02404200004042F006002077
:102F50007FB505460C4601210220FEF730F90295A7
:102F6000ADF804400020ADF80600ADF80C0001A952
:102F70001648FEF750FD012211461448FFF7ECF900
:102F800001211248FEF7D0FD1D208DF80000012020
:102F90008DF8010003208DF8020001208DF8030058
:102FA0006846FDF734FD7FBD10B501210748FFF7E6
:102FB000EAF9012804D106480068401C0449086069
:102FC00001210248FFF7F0F910BD000000040040A5
:102FD0009400002010B50821FC48FDF785FE04216F
:102FE000FA48FDF781FE0520FDF784FC0821F7482B
:102FF000FDF77CFE0620FDF77DFC0421F348FDF77C
:1030000075FE10BD10B50421F048FDF76FFE0821D4
:10301000EE48FDF76BFE0421EC48FDF765FE062047
:10302000FDF768FC0821E948FDF75EFE0620FDF784
:1030300061FC10BD10B50421E448FDF757FE0821DE
:10304000E248FDF753FE0220FDF754FC0421DF485F
:10305000FDF74AFE0520FDF74DFC0421DB48FDF796
:1030600045FE10BD2DE9F04105462C460421D74808
:10307000FDF73CFE002626E027460421D348FDF755
:1030800035FE07F08007802F04D10821CF48FDF7D7
:103090002BFE03E00821CD48FDF728FE6006040E54
:1030A0000220FDF727FC0421C848FDF71DFE022081
:1030B000FDF720FC0421C548FDF718FE0220FDF7AE
:1030C00019FC701CC6B2082ED6DBBDE8F08110B525
:1030D0000446FFF77FFF7820FFF7C4FFFFF7AAFF42
:1030E0004020FFF7BFFFFFF7A5FF2046FFF7BAFF1D
:1030F000FFF7A0FFFFF786FF10BD10B50446FFF7EE
:1031000069FF7820FFF7AEFFFFF794FF0020FFF77D
:10311000A9FFFFF78FFF2046FFF7A4FFFFF78AFF05
:10312000FFF770FF10BD70B504460D461DB1E0B24B
:10313000FFF7CDFF02E0E0B2FFF7DFFF70BD70B533
:10314000002418E004F1B0000021FFF7ECFF00219B
:103150000846FFF7E8FF00211020FFF7E4FF0025F5
:1031600005E001210020FFF7DEFF681CC5B2802DBD
:10317000F7DB601CC4B2082CE4DB70BD1CB5012178
:103180000420FDF7D3FF0C20009001208DF80400EF
:1031900000208DF806008DF8050001208DF807004D
:1031A00069468A48FDF724FDC820FDF7EBFB0021A6
:1031B000AE20FFF7B8FF00210846FFF7B4FF00215B
:1031C0001020FFF7B0FF00214020FFF7ACFF0021E7
:1031D000B020FFF7A8FF00218120FFF7A4FF002106
:1031E000FF20FFF7A0FF0021A120FFF79CFF002197
:1031F000A620FFF798FF0021C920FFF794FF0021C8
:10320000A820FFF790FF00211F20FFF78CFF00216F
:10321000D320FFF788FF00210846FFF784FF002135
:10322000D520FFF780FF00210846FFF77CFF002133
:10323000D920FFF778FF0021F120FFF774FF00216C
:10324000DA20FFF770FF00210220FFF76CFF00215A
:10325000DB20FFF768FF00214020FFF764FF00211B
:103260008D20FFF760FF00211420FFF75CFF002195
:10327000AF20FFF758FFFFF762FF1CBD70B5044693
:103280000D4605F1B001C8B2FFF737FF102141EA42
:103290001410FFF732FF04F00F0141F00100FFF7B7
:1032A0002CFF70BD70B50646002415E004F1B00196
:1032B000C8B2FFF722FF0020FFF71FFF1020FFF723
:1032C0001CFF002504E03046FFF701FF681CC5B273
:1032D000802DF8DB601CC4B2082CE7DB70BD10B594
:1032E0000020FFF7DFFF10BD10B58D20FFF705FFB1
:1032F0001420FFF702FFAF20FFF7FFFE10BD10B54F
:103300008D20FFF7FAFE1020FFF7F7FEAE20FFF743
:10331000F4FE10BD2DE9F0470646894617469A4649
:103320004FF0000800240025BAF1010F03D0BAF1D4
:10333000020F65D125E020E0785D203800F0FF081D
:103340007E2E04DD002609F1010000F0FF09494648
:103350003046FFF793FF002409E008EB48011C4AC0
:1033600002EB4101085DFFF7B2FE601CC4B2062CFF
:10337000F3DBB01DC6B2681CC5B2785D0028DBD196
:103380003EE039E0785D203800F0FF08782E04DD5B
:10339000002609F1010000F0FF0949463046FFF719
:1033A0006DFF002407E004EB08110A4A505CFFF7A8
:1033B0008EFE601CC4B2082CF5DB09F10100C1B21D
:1033C0003046FFF75BFF00240FE0000000080240DA
:1033D000F05400081857000804EB08110831C04ADF
:1033E000505CFFF774FE601CC4B2082CF4DB06F1DD
:1033F0000800C6B2681CC5B2785D0028C2D100BF03
:1034000000BFBDE8F0872DE9F04180460E46174623
:1034100000247D0131464046FFF730FF00BF06E043
:10342000B049485DFFF753FE6D1C601CC4B2102C00
:10343000F6DB701CC1B24046FFF720FF002406E017
:10344000A849485DFFF743FE6D1C601CC4B2102CF8
:10345000F6DBBDE8F0812DE9F05F06460F469046A9
:103460001C46DDF828A04FF0000BE11704EB51716A
:10347000C910A4EBC10131B92046E11704EB517129
:10348000C1F3C70506E02046E11704EB5171C910EE
:10349000491CCDB23D4614E029463046FFF7EEFE0A
:1034A000B1460AE059460BF1010B1AF80100FFF78B
:1034B0000EFE09F1010000F0FF09C145F2DB681CB6
:1034C000C5B2A542E8DBBDE8F09F2DE9F04707460D
:1034D0000E469046994600250024A8F12000C5B26A
:1034E0007F2F02DD0027B01CC6B2B9F1100F22D128
:1034F00031463846FFF7C2FE002407E004EB051111
:10350000774A505CFFF7E3FD601CC4B2082CF5DB82
:10351000701CC1B23846FFF7B1FE002408E004EB8E
:10352000051108316E4A505CFFF7D1FD601CC4B232
:10353000082CF4DB11E031463846FFF79FFE0024EB
:1035400009E005EB4501684A02EB4101085DFFF720
:10355000BEFD601CC4B2062CF3DBBDE8F08710B5DD
:103560000246012000E050430B00A1F10104E1B24A
:10357000F9D110BD2DE9FF5F074691461E460E9D0D
:103580004FF0000A002435E0301B401EC1B20A2073
:10359000FFF7E5FFB9FBF0F00A21B0FBF1F201FB08
:1035A0001208BAF1000F14D1701EA04211DDB8F15B
:1035B000000F0CD1AB4605EBDB71491001FB047128
:1035C000C8B22B4620220199FFF77FFF10E04FF091
:1035D000010AAB4605EBDB71491001FB0471C8B26F
:1035E00008F13001CAB22B460199FFF76EFF00BF08
:1035F000601CC4B2B442C7DBBDE8FF9F70B506468D
:10360000002415E004F1B001C8B2FFF776FD0120F7
:10361000FFF773FD1020FFF770FD002504E0304632
:10362000FFF755FD681CC5B2802DF8DB601CC4B2E5
:10363000082CE7DB70BD70B504460D4605F1B001FE
:10364000C8B2FFF75AFD102141EA1410FFF755FDEB
:1036500004F00F0141F00100FFF74FFD70BD2DE9AF
:10366000F04706460F46904600250024A14631E06B
:1036700018F809002038C5B2782E02DD0026781C23
:10368000C7B239463046FFF7D6FF002407E004EB07
:103690000511134A505CFFF71AFD601CC4B2082CD8
:1036A000F5DB781CC1B23046FFF7C5FF002408E007
:1036B00004EB051108310A4A505CFFF708FD601C55
:1036C000C4B2082CF4DB06F10800C6B209F101000F
:1036D00000F0FF0918F809000028C9D1BDE8F087FB
:1036E0001857000898000020F05400081CB501216C
:1036F0000220FDF71BFDC020009001208DF8040082
:1037000000208DF8060003208DF8050002208DF8BA
:10371000070069465E48FDF76BFA00205D490860C6
:103720001CBD30B587B004460D4601210820FDF7C9
:1037300046FD01210846FDF7F9FC04200590022012
:103740008DF8180003208DF8190000208DF81A005C
:1037500002208DF81B0005A94F48FDF749FA022207
:1037600011464D48FDF7CFFAADF808500020ADF8EE
:103770000A000394ADF8100002A94848FEF74BF97F
:1037800008204749088000204880012088800020C8
:10379000C88008814148FEF715FD012209213F48F4
:1037A000FEF7DAFD01213D48FEF7BEF932208DF823
:1037B000040002208DF8050000208DF8060001208D
:1037C0008DF8070001A8FDF722F907B030BD10B54C
:1037D0003448007800F08000002854D101212F489F
:1037E000FEF7D1FDD0B12F48007800F04000A8B11D
:1037F0002C48007800F03F003F280AD12948007883
:1038000040F08000274908704FF0FF3026490860DB
:1038100004E024480078401C2249087008211F4811
:10382000FEF7B1FD78B31F48007800F0400078B192
:103830001C48007840F080001A4908701748FEF7CD
:1038400045FD1949086000211448FEF7B4FB1AE051
:10385000002014490870144908601248007840F0AC
:1038600040001049087000210C48FEF75DF9002166
:103870000A48FEF719F902210848FEF79CFB0121CE
:103880000648FEF751F909210448FEF78DFD10BDE9
:10389000000402409882404200000240000C0040B8
:1038A000F0070020D8060020DC06002010B50A2012
:1038B000FDF768F804212648FDF7FCF9D8B9002285
:1038C00040F225512348FDF774FF23A000F03AF998
:1038D0002748006820B900F0CBF80120244908608F
:1038E00024A202216420FFF7BAFE012240F22551F2
:1038F0001848FDF75EFF0420FEF7B1FE10BD0EB5BF
:1039000000F03AF801218803FDF76AFC0221042047
:10391000FDF771FD0420009000208DF804000C20BC
:103920008DF8050001208DF806006846FEF726FE9A
:1039300008208DF8080000208DF809008DF80A0095
:1039400001208DF80B0002A8FDF761F80EBD000004
:10395000001002400010014041542B4E4D47533D92
:10396000332C3031303030300D0A0D0A00000000A9
:10397000E8060020310000001CB501211420FDF7ED
:10398000D5FB0420009000208DF8040003208DF862
:10399000050001208DF8070069463148FDF728F938
:1039A0001CBD10B5044614B101202E4908702D48E5
:1039B0000078002837D010212B48FDF77BF978B12B
:1039C00008212948FDF776F950B104212648FDF772
:1039D00071F928B101212548FDF76CF9012822D1A0
:1039E0000A20FCF7CFFF00201E49087010211E4856
:1039F000FDF760F908B9012010BD08211A48FDF74C
:103A000059F908B90220F7E704211748FDF752F9E0
:103A100008B90320F0E701211448FDF74BF901280C
:103A20001BD10420E8E710210F48FDF743F90128D6
:103A300013D108210C48FDF73DF901280DD10421CF
:103A40000948FDF737F9012807D101210748FDF79B
:103A500031F910B90120034908700020CCE70000BB
:103A600000080240EC060020001002400000024066
:103A70001CB501214020FDF759FB4FF40050009088
:103A800001208DF8040000208DF8060003208DF839
:103A9000050001208DF8070069461348FDF7A8F8D6
:103AA0004FF400511048FDF721F91CBD1CB5012150
:103AB0004020FDF73BFB4FF48040009001208DF843
:103AC000040000208DF8060003208DF80500012079
:103AD0008DF8070069460448FDF78AF84FF48041E5
:103AE0000148FDF703F91CBD00180240704710B5EE
:103AF0004C1084EA530404D54042C1F1000138BFA0
:103B0000491E1B4204D55242C3F1000338BF5B1E5D
:103B100000F0B1F914F0804F04D04042C1F100012F
:103B200038BF491E14F0004F04D05242C3F10003C5
:103B300038BF5B1E10BD00000A46014900F0ECBA18
:103B4000800000200FB4044910B503AA029800F0C9
:103B5000E3FA10BC5DF814FB800000200FB41CB524
:103B6000084B06AA7B4469460090059800F0A5FA28
:103B700004460020694600F0B3FA20461CBC5DF8FC
:103B800014FB00007905000070B50C460546012ABB
:103B900005D02878800600D5EA69002302E00123D9
:103BA00005E05B1C934202D2E05C0028F9D1A869D1
:103BB000E618C01AA861286A18442862284600F04E
:103BC000D1F904E0D5E9012114F8010B9047B44282
:103BD000F8D3284600F0DCF970BD00002DE9F04173
:103BE0000646002410687529314616A510D000F04D
:103BF000E0F9002802DA404213A507E031688A079D
:103C000001D512A502E0490704D511A5012401E060
:103C100000F0D8F900210A2206F1240709E0B0FBE0
:103C2000F2FCB0FBF2F302FB1C0030307854184673
:103C3000491C0028F3D123462A463046BDE8F0410E
:103C400000F0C9B9000000002D0000002B000000AA
:103C500020000000F0B40D460188090502D5214C72
:103C60007C4402E01F4C7C440E34002100F1240609
:103C700008E002F00F071209E75D42EA03721B0930
:103C80007754491C52EA0307F3D102780023120744
:103C900004D5702D06D009B1022311342246F0BCA0
:103CA00000F099B901231034F8E770B504460D46C9
:103CB0002146106800F086F9024629462046BDE8F4
:103CC00070400023C6E7D21D22F00703D3E900238A
:103CD000C0E70368126843F0200303600823C36150
:103CE0000023B7E7A42000002DE9F05F89460446D1
:103CF0004FF0000ADFF874B1FB44C0F820A0204662
:103D0000E1688847002874D0252806D0D4E901212D
:103D10009047206A401C2062F1E700265F4620465B
:103D2000E16888472028054607DB312D05D2781940
:103D300010F8200C08B10643F1E7B00701D526F0D2
:103D40000406C4F81CA00027C4F818A02A2D09D026
:103D5000284601F04CFA38B304EB8708303DC8F828
:103D6000185019E059F8041B204604EB87029161B2
:103D7000E1688847012F054618D1E069002820DA5C
:103D800026F020061DE0D8F8180000EB800005EBB7
:103D900040003038C8F818002046E16888470546DA
:103DA00001F025FA0028EED1012F0AD02E2D08D1DE
:103DB0002046E16888477F1C0546022F46F0200612
:103DC000C4DBA069002803DA404246F00106A06186
:103DD000F00701D026F010066C2D0BD0682D09D00D
:103DE0004C2D39D06A2D35D0742D35D07A2D33D065
:103DF00016E038E0E1682F4620468847B84205467D
:103E000009D16C2F26D04FF48060E168064320462C
:103E10008847054604E06C2F1AD04FF480700643A3
:103E20000DB3A5F14100192802D8203546F40066EB
:103E30004A462946204626604E46FCF7FFF980B1E7
:103E400001280BD0F61D26F0070000F1080956E7FF
:103E50004020E4E78020D8E70020D6E706F10409F7
:103E60004DE7284652E7206ABDE8F09F3420000065
:103E700070477047704753EA020C00F069802DE9E3
:103E8000F04B4FF00006002B1FBFB3FA83F503FA87
:103E900005F424FA05F65E4012BF1643B2FA82F525
:103EA00002FA05F4C5F120051EBF22FA05FC44EA1A
:103EB0000C04203556EA044C4FEA144418BF641C25
:103EC0004FF000084FF00009904271EB030C39D31A
:103ED000002919BFB1FA81F701FA07F6B0FA80F7A5
:103EE00000FA07F6C7F120071EBF20FA07FC46EAD2
:103EF0000C062037B6FBF4FCA7EB0507103F07F0D4
:103F00001F0BCBF120060CFA0BFB2CFA06F644BF74
:103F1000B3460026202FA4BF5E464FF0000B5BEA9D
:103F2000060C08BF4FF0010B19EB0B09ABFB027C31
:103F300048EB0608C01B06FB02CC0BFB03CC71EB65
:103F40000C01C1E70B46024641464846BDE8F08BEE
:103F500013B54FF000004FF00001AFF30080BDE853
:103F60001C40704770B5044685690068C10601D5DC
:103F7000302600E02026C00707D070BDD4E901211B
:103F800030469047206A401C20626D1EF6D570BDF9
:103F900070B5044685690078C00707D170BDD4E9C3
:103FA000012120209047206A401C20626D1EF6D51A
:103FB00070BD09684A0501D540B27047C905FCD5F6
:103FC00000B2704709684A0501D5C0B27047C905FB
:103FD000FCD580B270472DE9F0470D4699469246D0
:103FE000044600F124080168880604D5E06921F040
:103FF0001001216000E00120A84201DD471B00E024
:104000000027A1697A1902EB0900081AA06120783B
:10401000C00602D42046FFF7A5FF002608E0D4E939
:1040200001211AF806009047206A401C761C206285
:104030004E45F4DB2078C0060AD52046FFF792FFF4
:1040400006E0D4E9012130209047206A401C20621C
:10405000381EA7F10107F4DC07E0D4E9012118F8C4
:1040600005009047206A401C2062281EA5F101052A
:10407000F3DC2046FFF78CFF2078000602D50220F3
:10408000BDE8F0870120FBE711680268006A53056C
:1040900001D508700AE0D30501D5088006E01306B3
:1040A00003D5C217C1E9000200E008600120704793
:1040B00001694A1C02610878704700B58FB0CDE9EC
:1040C00001310021059105497944CDE903101146DC
:1040D0006846FFF709FE0FB000BD0000E5FFFFFFD7
:1040E0000A6802F8010B0A60704710B5436913B102
:1040F000AFF3008001E0FFF747FD012010BD12780B
:1041000000F124010A7000224A700122EDE71168D3
:104110004FF0FF32E9E70000074B70B50D467B44D6
:10412000FFF7CBFF04462846FEF7A7FC10B14FF07F
:10413000FF3070BD204670BD3FE9FFFF2DE9FF5FF6
:1041400015468A460446DFF8AC80F8440027D8E9D3
:1041500000103E46CDE9001010E03AF816106A460D
:1041600002A800F027FB411C07D02178890603D55F
:10417000E269391891420DD80744761C20788006F0
:1041800002D5E069B84205DDAE42E6DB3AF816003A
:104190000028E2D1A069C01BA0612046FFF7E2FE23
:1041A000D8E90010CDE90010002017E03AF8181007
:1041B0006A4602A800F0FEFAB0F1FF3F81460BD03C
:1041C00000250DF1080B05E0D4E901211BF80500DD
:1041D00090476D1C4D45F7D308F10100B042804671
:1041E000E4DB206A384420622046FFF7D1FEBDE8B8
:1041F000FF9F0000F61B00002DE9F0418046D21D14
:1042000022F007020025D2E90002F52915A614D0F4
:10421000011E72F1000106DA0023D0EB030063EB0C
:10422000020211A608E0D8F800108B0701D50FA6EE
:1042300002E0490701D50EA601251146002408F128
:10424000240704E000F04EF830323A55641C50EA7E
:104250000102F7D12B46324621464046BDE8F041E7
:10426000FFF7B9BE000000002D0000002B00000089
:104270002000000030B4002100F1240408E002F026
:104280000705D208303542EA4372DB086554491C01
:1042900052EA0305F3D10468002310A2250708D5CC
:1042A00004F020040C4304D0C46901230CA2641E52
:1042B000C46130BCFFF78FBE10B5044621461068BC
:1042C000FFF780FE02462046BDE810400023D1E7FC
:1042D000D21D22F00701D1E90023CBE70000000046
:1042E0003000000030B5B0F10A024FEA900E71F1D3
:1042F00000034EEA817EB0EB0E0061EB91014FEAC4
:10430000101E4EEA017E10EB0E0041EB11114FEA38
:10431000102E4EEA016E10EB0E0041EB11214FEA18
:10432000104E4EEA014E10EB0E0041EB11414018C9
:1043300041F100014FEAD00040EA41704FEAD1015B
:1043400010EB80054FEA810444EA907444EB0104C9
:104350006D1944EB0404521BA3414FF0000348BF06
:104360000A3200D530BD401C41F1000130BD70471C
:104370002DE9FF4F0C461E464FF0FF378BB0D2E9B8
:104380000001DDF860800A908A46C1F30A5505B93C
:104390003D46002108464FF00000BAF1000F00F43E
:1043A000400005DA00EB80004FF4400101EA5000C4
:1043B0004FEA9059B9F1010F00DDB9460A9850EA69
:1043C0004A000ED044F61050A5F2FF3545432F1495
:1043D000B8F1000F1ED07542291E1EDDC9F1000282
:1043E0001CE0B8F1010F4FF0000001D0302103E0D4
:1043F000F24305E02154401CB042FBDB3046002272
:10440000002121540B99C1F80880C1E900200FB0A8
:10441000BDE8F08FBD1B6D1CDEE74A4600DA69423D
:1044200006A800F059FA06AB93E8070003AB83E84F
:10443000070050460A9900F007FB8DE80700A0F539
:1044400000501F3800900398002D09DD42F21F0133
:104450004A46084403A90390684600F066FD08E058
:10446000A0F500504A461F3803A90390684600F0A3
:1044700070FD8DE807000004000C03D04FF0FF3002
:10448000410800E01046B8F1000F03D0002200926E
:1044900015461EE0751E05D4FFF724FF3032625525
:1044A0006D1EF9D5B3460122084302D000227F1CBD
:1044B00004E02078302801D100227F1E002A0997CD
:1044C00086D01DE0112D07DAFFF70CFF3032625560
:1044D0006D1C50EA0102F5D1084302D00098C8B122
:1044E0000EE00021681E05E0235C625C63542254E8
:1044F000401E491C8142F7DBAB46A81B401E0990B9
:10450000002004F80B000B98099AC0F80880C0E955
:10451000002B7CE711264FF0000859E72DE9F04FFA
:1045200088460446D21D22F0070191B0D1E900016E
:10453000CDE90A0100F043FE02460B98C00F01D0FE
:104540002D2007E02068810701D52B2002E02021E3
:1045500001EAC000032A099001D0072A05DB0346BF
:104560004146204600F078F90BE12078800601D51D
:10457000E06900E00620B8F1650F814606D0B8F189
:10458000660F18D0B8F1670F70D131E00020B9F193
:10459000110F009001DB112301E009F101030AAAC8
:1045A00001A90CA8FFF7E4FEDDE90C70002609F173
:1045B0000105834647E001204B4600904FF000473D
:1045C0000AAA01A90CA8FFF7D3FEDDE90DB00C99EA
:1045D0005D46002610B909F101000D18B9EB050080
:1045E00003D4C0F1FF3609F10105A5EB09002BE06A
:1045F000B9F1010F01DA4FF001090020B9F1110FF3
:104600000090484601DD112300E003460AAA01A9F3
:104610000CA8FFF7ADFEDDE90C704D460026834681
:10462000207800070AD4AB4500DA5D4601A8012DC9
:1046300004DD411911F8011C302907D04F4502DA79
:1046400017F1040F04DA012082460FE06D1EEEE739
:10465000002F02DCED1B3E4403E0781CA84200DD85
:104660007D1CB81B00F1010A4FF0004720780007BD
:1046700003D4AA4501DB4FF0FF3A0021B7F1004F08
:104680000DF143088DF8431024D002202B23002F76
:1046900001DA7F422D230A21021EA0F1010000DC75
:1046A0005FB197FBF1FC97FBF1F201FB1C7C174615
:1046B0000CF1300C08F801CDEEE7A8F10100037011
:1046C0002188090501D5452100E06521A0F10108F7
:1046D00000F8011C09980FA9A1EB0807FF1D00B104
:1046E0000120411901EBEA70A1693844081A401E03
:1046F000A0612078C00602D42046FFF733FC099859
:1047000028B1D4E901219047206A401C206220781A
:10471000C00622D52046FFF725FC1EE0002E04DB54
:10472000B34502DD01A8805D00E03020D4E901211D
:104730009047206A401C2062761CAAF101005FEAC3
:10474000000A0AD100F084F8C0680168405CD4E92E
:1047500001219047206A401C2062281EA5F1010516
:10476000DCDC07E0D4E9012118F8010B9047206A4E
:10477000401C2062381EA7F10107F3DC2046FFF73A
:1047800007FC032011B043E610B5436913B1AFF342
:10479000008001E0FFF7D2FC012010BD128800F17B
:1047A000240182840022C2840122EDE711684FF0C7
:1047B000FF32E9E770B516460C46054600F040F8B2
:1047C000036893F80101012806D0FF2C0FD8185D6B
:1047D00068B101202C7070BDD3F807013246214624
:1047E00003F2071303442846BDE8704018474FF012
:1047F000FF3070BD754600F0E3F8AE46050069462F
:10480000534620F00700854618B020B5FCF7E8F8BD
:10481000BDE820404FF000064FF000074FF00008C1
:104820004FF0000B21F00701AC46ACE8C009ACE842
:10483000C009ACE8C009ACE8C0098D46704700006B
:1048400010B500F005F8001D10BD00BFDD09000027
:10485000004870471C0800202DE9F0411F4604461F
:1048600003260168072A01F4006004DB08B116A5DD
:1048700005E016A503E008B115A500E015A521F097
:1048800010002060A069C01EA0610FB1401EA06191
:104890002046FFF767FB4FB1D4E901213846904726
:1048A000206A401C2062C01C206206E0206AFAE7F1
:1048B000D4E9012115F8010B9047761EF8D2204665
:1048C000FFF766FBBDE8F0814E414E006E616E0061
:1048D000494E4600696E66002DE9F047814616464E
:1048E0008AB0334878440DC88DE80D0030487844CC
:1048F000801C03AC0DC884E80D0041F69B300844D1
:10490000372190FBF1F290FBF1F5A5F1800501FB59
:1049100012041B3C02D56442012000E00020DFF8B5
:1049200090A080460027FA44AAF1BE0A0DE0E007F5
:1049300009D03246684607EB47010AEB810100F0D7
:1049400008FB8DE8070064107F1C002CEFD1184F86
:104950007F44AC3F18E0E80714D007EB04100DF1DA
:10496000180A90E80E008AE80E00C068F04201D1F3
:1049700098190890324606A903A800F0EAFA03AB9A
:1049800083E807006D10641C002DE4D132466946AF
:10499000B8F1000F03A802D000F0C7FA01E000F060
:1049A000D8FAC9E90001C9F808200AB0BDE8F087C3
:1049B000E01400000446AFF300802046FBF7A3FCA0
:1049C00000487047FC0700204FF0013C50F8042BD2
:1049D00051F8043B9A4221D1A2EB0C03934313EA12
:1049E000CC1317D150F8042B51F8043B9A4215D13F
:1049F000A2EB0C03934313EACC130BD150F8042B16
:104A000051F8043B9A4209D1A2EB0C03934313EAF9
:104A1000CC13DBD04FF00000704700BFD01A01BAB2
:104A2000B1FA81F101F0180122FA01F0CB40C1F195
:104A30002001DBB2C0B2C01A2CFA01F3D11A9143A3
:104A400011EAC311E6D170475FEA400C08BF91F04C
:104A5000000F4FEA8C234FEAC12243EA51514FEA3B
:104A60001C5018BF00F5F0404FEA300018BF41F06D
:104A700000415FEA6C5C00F02980BCF1FF3F08BF99
:104A800040F080407047130C06BF12044FF0100C2A
:104A90004FF0000C130E04BF12020CF1080C130FA0
:104AA00004BF12010CF1040C930F04BF92000CF12F
:104AB000020CD30F04BF52000CF1010C11464FF051
:104AC0000002A0F11F00A0EB0C00704711F0004F96
:104AD00008BF704731F000413FF4D5AF0B0C06BF63
:104AE00009044FF0100C4FF0000C0B0E04BF09022C
:104AF0000CF1080C0B0F04BF09010CF1040C8B0F17
:104B000004BF89000CF1020CCB0F04BF49000CF16B
:104B1000010CCCF12003A0EB0C0022FA03F302FA03
:104B20000CF241EA030100F10100704720F07F4CD4
:104B300080EA030023F07F47ACEB070303F57C53C7
:104B400000F0004003F1FF032DE980494FEA154BC7
:104B500009B44FEA144325EA0B4E24EA03480FF246
:104B6000042606EB132749083E785FEA320203FB6E
:104B70000667C7F5000707FB06F64FEA54374FEA0A
:104B8000D64606F1020607FB066CCCF1005C4FEA44
:104B90001C472CEA074C07FB06F40CFB06F504EB5C
:104BA00015464FEA961634BF00204FF000404FEAFA
:104BB000D13706FB07FC4FEA1C4C0CFB0BF7D21B52
:104BC00003FB0CF761EB07010CFB0EF7B0EB0740A2
:104BD00072EB17420CFB08F734BFA2EB0742B2EBB3
:104BE000074261EB17414FEA0C444FEA910706FB7D
:104BF00007FC4FEA1C4C0CFB0BF7B0EBC74072EB09
:104C0000573203FB0CF734BFA2EBC742B2EBC742EB
:104C100061EB57310CFB0EF7B0EBC70072EB57722C
:104C20000CFB08F734BFA2EBC702B2EBC70261EB83
:104C30005771039F4FEA816141EA921104EBCC0462
:104C40004FEAD1374FEA826206FB07FC42EA901234
:104C50004FEA80604FEA1C4C0CFB0BF7D21B03FBA6
:104C60000CF761EB07010CFB0EF7B0EB074072EBA2
:104C700017420CFB08F734BFA2EB0742B2EB074226
:104C800061EB17414FEA8C554FEA910704EB9C24E6
:104C900006FB07FC4FEA1C4C0CFB0BF7B0EBC740C4
:104CA00072EB573203FB0CF734BFA2EBC742B2EBF7
:104CB000C74261EB57310CFB0EF7B0EBC70072EB4C
:104CC00057720CFB08F734BFA2EBC702B2EBC70266
:104CD00061EB577115EB4C254FEA816141EA921166
:104CE0004FEA82624FEAD13742EA901206FB07FC94
:104CF00044F100044FEA80604FEA1C4C0CFB0BF7B8
:104D0000D21B03FB0CF761EB07010CFB0EF7B0EBBA
:104D1000074072EB17420CFB08F734BFA2EB0742C7
:104D2000B2EB074261EB174115EB1C154FEA8131DD
:104D300041EA92414FEA823242EA90424FEA8030A1
:104D40004FEA0C7644F1000448EA03434EEA0B486C
:104D50004FF0000EB2EB080C71EB030724BF624664
:104D600039464EEB0E0E4FF0000B001852414941F0
:104D70004BEB0B0BB2EB080C71EB03077BF1000B59
:104D800024BF624639464EEB0E0E4FF0000B001862
:104D9000524149414BEB0B0BB2EB080C71EB030793
:104DA0007BF1000B24BF624639464EEB0E0E51EAF2
:104DB000020718BF46F0010616EB0E7655F1000209
:104DC00054F1000103D5BDE88901BDE80088BDE8C4
:104DD0008901BDE80048B619524141EB0101A3F138
:104DE0000103704780807F7E7D7C7B7A797877763F
:104DF00076757473727171706F6E6E6D6C6C6B6AB8
:104E00006A69686867666665646463636261616055
:104E1000605F5F5E5E5D5D5C5C5B5B5A5A595958D2
:104E2000585757565655555554545353525252513C
:104E3000515050504F4F4F4E4E4D4D4D4C4C4C4B92
:104E40004B4B4A4A4A4949494848484747474746D9
:104E50004646454545444444444343434342424215
:104E600042414141002B26D4770021D01CB54FEAA6
:104E7000370703B44FF010004FF010014FF000005F
:104E80000FBCBDE810400BF1010BBBF1010F08BFD7
:104E90005FEA170722BF12F1010211F101014FF081
:104EA000004143F1000300F0004043EA0000704776
:104EB000F9D35708DAE746EA064613F1400F4FEAFE
:104EC00016461FDD13F1200FDFBF16430A460021EF
:104ED00020335B42C8D0C3F1200746EA064602FAF7
:104EE00007F74FEA164646EA0706C3F1200722FAFB
:104EF00003F201FA07F721FA03F14FF0000342EA47
:104F00000702B1E746EA020646EA06464FEA1646B7
:104F100046EA0106BCBF46EA0646360C4FF00003DF
:104F20004FF000024FF000019EE72DE9C048934684
:104F300030B491E8380007C831EA400C48BF34EA81
:104F4000430C03D5FFF7F2FDFFF78CFFF0BCBDE883
:104F500000882DE9C048934630B491E8380007C86E
:104F600010F0804F08BF13F0804F03D100F005F818
:104F7000FFF778FFF0BCBDE8008820F07F4780EAAB
:104F8000030023F07F4C07EB0C03A3F57C5300F0E8
:104F90000040A3F1FE0392F0000F00F0B38095F003
:104FA000000F00F077802DE901494FEA11404FEAE8
:104FB000144621EA004800FB06FC24EA064708FBE9
:104FC00006F607FB08F800FB07F718EB06484CEB62
:104FD000164C4FEA124B18EB07484FEA15464CEBBC
:104FE000174022EA0B4E0BFB06FC25EA06470EFB98
:104FF00006F607FB0EFE0BFB07F71EEB064E4CEB0F
:10500000164C4FF000061EEB074E4CEB174B18EBFF
:105010000B0840F1000018EB0E0B58EB000840F1B4
:1050200000008F1A4FF000013CBFC943661B14BF3C
:10503000B5EB040C00213CBFC943F61B4FEA1744F3
:105040004EEA8E0E27EA04454FEA1C4704FB07622E
:105050002CEA074C05FB07F70CFB05F604FB0CFCE0
:1050600016EB074642EB174216EB0C4642EB1C428E
:105070001BEB060658EB0202414146EA9E0601D5AB
:10508000BDE80189B619524141EB0101A3F10103C9
:10509000BDE801894FEA14454FEA114724EA054665
:1050A00021EA074C05FB07F406FB07F70CFB06F1AA
:1050B00005FB0CFC11EB074144EB17444FEA124788
:1050C00011EB0C4144EB1C4422EA074C05FB07F2B0
:1050D00006FB07F70CFB06F605FB0CFC16EB074678
:1050E00042EB174216EB0C4642EB1C456A1854F192
:1050F000000148BF7047B619524141EB0101A3F1CD
:105100000103704795F0000F37D04FEA11424FEA84
:10511000144721EA024624EA074C02FB07F106FB8A
:1051200007F70CFB06F402FB0CFC14EB074441EB05
:1051300017414FEA154714EB0C4441EB1C4125EA9B
:10514000074C02FB07F506FB07F70CFB06F602FB14
:105150000CFC16EB074645EB174516EB0C4645EBEA
:105160001C42121951F1000148BF7047B619524153
:1051700041EB0101A3F1010370474FEA14454FEAE7
:10518000114724EA054621EA074C05FB07F106FB17
:1051900007F70CFB06F24FF0000605FB0CFC12EBC8
:1051A000074241EB174112EB0C4251EB1C4148BF47
:1051B0007047921841EB0101A3F10103704703B45A
:1051C00001984100009850EAC12018BF04204A0D00
:1051D00018BF40F0010040F2FF72B2EB515F08BF10
:1051E00040F00200012808BF052002B070473038A7
:1051F0000A2801D2012070470020704710B500290D
:105200000AD00878002807D005487844FFF7DCFB6F
:10521000002801D0002010BD0248784410BD0000D5
:10522000F60B0000EE0B000010B500290AD008783C
:10523000002807D005487844FFF7C6FB002801D0B6
:10524000002010BD0248784410BD0000E60B0000AD
:10525000DE0B000021F00042A2F16052B2F5801F87
:1052600001F0004328BFD2F17F6C0BD95FEA001C2C
:1052700043EAC20242EB507018BF704728BF20F0CB
:1052800001007047B2F5801FBCBF184670474FEA57
:10529000410C1CF5001F02D2084600F022B970B57F
:1052A00000F0C6F800000089FFF7F6BF4FF000409D
:1052B000A0F580007047B0FA80F310FA03F10AD02D
:1052C000C3F11D0303F580634FEA41504FEA0352D7
:1052D00002EBD12170474FF000007047DFF848C162
:1052E00070B51CEA111E1EBF1CEA13159EEA0C0FB6
:1052F00095EA0C0F00F06F8081EA030423EA4C1357
:105300004EEAD47E21EA4C1141F4801143F480131B
:10531000AE44A1FB024CA0FB0365AEF17F7E3619C3
:1053200055EB0C05A1FB034C4CF10003A0FB021C48
:1053300016EB0C06654153F10003094218BF46F015
:10534000010613F4007F0BD14FEA03314FEA053019
:10535000340341EA155140EA16506FF003020AE0A7
:105360004FEAC3214FEAC520F40241EA555140EA11
:1053700056506FF0020202EB2E4201EB025585EA15
:10538000CE710AD05FEA440C18BF24F0004450F1FB
:10539000000041F1000120EAD47040F2FE7C624539
:1053A00000D270BDA84214BF4FF080444FF040447B
:1053B000002E08BF0024BEF1806FA8BFA1F1C0413C
:1053C000BDE8704080F282804FF0000001F1C041E2
:1053D00001F0004170479EEA0C0F0CEA131518BF4C
:1053E00095EA0C0F06D04FF0000081EA030E0EF094
:1053F000004170BD00F01CF88900013E00F007B8C4
:1054000000F009B84FEA430C5FEA5C5C08D081EA1F
:10541000030100F05BB84FEA410C5FEA5C5CF6D137
:105420004FF00000014970470000FF070000F87FBF
:105430000EF1020E2EF0030E5EF8046B364205D418
:10544000012A43EB030515F5001F12D8012841EB93
:10545000010C1CF5001F0CD80ED14FEAD17C15F5BC
:10546000001F0CEB4C0C0CF1020C08BF4CEBD37C76
:1054700004E04FF0080C01E04FEAD37C0CEB4C0544
:1054800026FA05F606F00706B6F1040C06D20EEB76
:10549000860CBDE870404CF0010C6047DFE80CF072
:1054A000090B02024FF000414FF00000A1F500216E
:1054B00070BD19461046012851EB010418BFD4F500
:1054C000001484BF002001F0004170BD0808A0F561
:1054D00000114FEA310170474FF04070E1EE100AC1
:1054E0007047FF2141EAD050C0057047FFF716B85A
:1054F0000000000000000000002F00000000070076
:10550000070000147F147F1400242A7F2A120062EF
:10551000640813230036495522500000050300009B
:1055200000001C224100000041221C000014083E23
:1055300008140008083E0808000000A060000008E9
:10554000080808080000606000000020100804023D
:10555000003E5149453E0000427F400000426151FB
:105560004946002141454B31001814127F10002795
:1055700045454539003C4A49493000017109050358
:1055800000364949493600064949291E0000363689
:1055900000000000563600000008142241000014EC
:1055A00014141414000041221408000201510906C9
:1055B00000324959513E007C1211127C007F49494A
:1055C0004936003E41414122007F4141221C007F7B
:1055D00049494941007F09090901003E4149497A89
:1055E000007F0808087F0000417F41000020404103
:1055F0003F01007F08142241007F40404040007F6F
:10560000020C027F007F0408107F003E4141413EB2
:10561000007F09090906003E4151215E007F0919FA
:1056200029460046494949310001017F0101003FF7
:105630004040403F001F2040201F003F4038403F77
:1056400000631408146300070870080700615149DB
:10565000454300007F41410000552A552A5500006E
:1056600041417F00000402010204004040404040EC
:10567000000001020400002054545478007F484484
:10568000443800384444442000384444487F0038BB
:105690005454541800087E0901020018A4A4A47CE4
:1056A000007F080404780000447D400000408084AE
:1056B0007D00007F102844000000417F4000007CF6
:1056C00004180478007C0804047800384444443802
:1056D00000FC242424180018242418FC007C08044E
:1056E000040800485454542000043F444020003C27
:1056F0004040207C001C2040201C003C4030403CAE
:10570000004428102844001CA0A0A07C004464543D
:105710004C44141414141414000000000000000081
:105720000000000000000000000000F80000000081
:10573000000000333000000000100C06100C0600C2
:10574000000000000000000040C07840C078400029
:10575000043F04043F040400007088FC083000008B
:10576000001820FF211E0000F008F000E0180000E3
:1057700000211C031E211E0000F00888700000009C
:105780001E2123241927211010160E0000000000EE
:105790000000000000000000000000E0180402000B
:1057A000000000071820400000020418E00000007C
:1057B0000040201807000000404080F0804040007A
:1057C0000202010F01020200000000F000000000D0
:1057D0000101011F010101000000000000000000A4
:1057E00080B0700000000000000000000000000019
:1057F00000010101010101010000000000000000A2
:10580000003030000000000000000000806018043C
:10581000006018060100000000E010080810E00019
:10582000000F102020100F00001010F800000000E2
:105830000020203F20200000007008080888700029
:1058400000302824222130000030088888483000A9
:105850000018202020110E000000C02010F80000C9
:1058600000070424243F240000F808888808080062
:105870000019212020110E0000E010888818000077
:10588000000F112020110E0000380808C838080049
:105890000000003F000000000070880808887000C9
:1058A000001C222121221C0000E010080810E0004A
:1058B0000000312222110F00000000C0C0000000D3
:1058C00000000030300000000000008000000000F8
:1058D00000008060000000000000804020100800F0
:1058E00000010204081020004040404040404000B9
:1058F0000404040404040400000810204080000094
:105900000020100804020100007048080808F00098
:105910000000003036010000C030C828E810E00068
:105920000718272423140B000000C038E0000000F3
:10593000203C23020227382008F88888887000005D
:10594000203F202020110E00C03008080808380031
:10595000071820202010080008F808080810E000A8
:10596000203F202020100F0008F88888E808100049
:10597000203F20202320180008F88888E80810001D
:10598000203F200003000000C03008080838000055
:1059900007182020221E020008F808000008F80856
:1059A000203F210101213F20000808F808080000DD
:1059B0000020203F2020000000000808F808080010
:1059C000C08080807F00000008F888C02818080088
:1059D000203F20012638200008F8080000000000C1
:1059E000203F20202020300008F8F800F8F80800B8
:1059F000203F003F003F200008F830C00008F808B2
:105A0000203F200007183F00E01008080810E000C1
:105A10000F10202020100F0008F808080808F000D8
:105A2000203F210101010000E01008080810E000FB
:105A30000F18242438504F0008F888888888700090
:105A4000203F2000030C3020007088080808380030
:105A50000038202121221C00180808F80808180026
:105A60000000203F2000000008F808000008F808A7
:105A7000001F202020201F000878880000C8380858
:105A8000000007380E010000F80800F80008F800D0
:105A9000033C0700073C030008186880806818086A
:105AA00020302C03032C30200838C800C8380800E8
:105AB0000000203F2000000010080808C838080037
:105AC0002038262120201800000000FE02020200DB
:105AD0000000007F40404000000C30C0000000008B
